:040000000C947600E6
:100004000C9400000C9400000C9400000C9400006C
:100014000C9400000C9400000C9400000C9400005C
:100024000C94D50E0C9400000C9400000C94000069
:100034000C9400000C9400000C9400000C94610ECD
:100044000C9400000C9471090C9400000C940000B2
:100054000C9400000C9400000C9400000C9400001C
:100064000C94000000000800100020000400800030
:100074004000000400080040008000100020FF64DD
:10008400829BB4CDE6FF0040C0E0F0F8FAFE000029
:10009400000A120E0A120D0F120E0F120D05120E87
:1000A40005120D0B120E0B120D100B0C050E0F0F7B
:1000B400130A00000C009F815DD5C3D6DE85DFD70F
:1000C4004E5E48CB1A4F9EC840D800000001020083
:1000D4000200B60001000002B80014006502BA0074
:1000E40004000A00CE000000F894EE27EFBBF1E014
:1000F400F5BFE5BFF8E1A895A4B7A77FA4BFF09327
:100104006000E09360008DE0A2E0BB27ED938A9548
:10011400E9F780E094E0A0E0B1E0ED930197E9F71E
:10012400E2EDF0E085919591009761F0A591B5918C
:1001340005901590BF01F00105900D920197E1F72C
:10014400FB01F0CFE0E0EEBBEFEFEDBFE4E0EEBF8C
:10015400C0E0D2E00C94C30FE881E0937C008BE113
:100164008A95F1F7E0917A00E064E0937A00E091F7
:100174007A00E071E1F3E0917A00E061E0937A00C3
:10018400E0917800F0917900E1C01A93E0E8E093FF
:100194006100E0E0E0936100E0E2E5B9EFEDE4B98D
:1001A400E4E4E8B9E8E3E7B9E0E0EBB9ECEFEAB995
:1001B400E0E0E4BDE3E0E5BDE0E0E6BDE7BDE8BDC9
:1001C400E3EAE0938000E3E0E0938100E0E0E09381
:1001D4008500E0938400E0938700E0938600E09339
:1001E4008900E0938800E0938B00E0938A00E09319
:1001F400B600E093B000E7E0E093B100E0E0E09304
:10020400B200E093B300E093B400E0936900EDBB67
:10021400E0936800E1E0E0936E00E0E0E0936F00BB
:10022400E1E0E0937000E0E0E093C000E8E9E093EF
:10023400C100E6E0E093C200E0E0E093C500E9E13C
:10024400E093C400E0E8E0BFE0E0E0937B00E093EB
:100254007E00E0937C00E3E8E0937A000E94AC1314
:10026400E23028F0A8E1B0E0E1E00E94F616A4E351
:10027400B0E00E94E216CE2EA6E3B0E00E94E216A1
:10028400E0933E020E94B1130E94B81311E01930AA
:1002940090F40E94BF130E94C6130E94CB130E94C5
:1002A400D1130E94D9130E94C6130E94E0130E9426
:1002B400D1131F5FECCF789422C01A93F89411E005
:1002C4001930A8F4E12F0E94CB13EA0FFB1F0F0192
:1002D4000E94BF130E94E613E12F0E94E0130E94C4
:1002E400C6130E94EE130E94E6131F5FE9CFEC2DA4
:1002F400A4E3B0E00E94F6160E94F41378941991D6
:100304000895A881A13028F0A0E035FCA1E0A03038
:1003140009F005C0E881E0936402689435F8E88147
:10032400E030A1F435FE04C0A0916402A13008F4C9
:1003340006C05C9AE0916402E150E0936402E091AB
:100344006402E03019F45C98E89435F82196089535
:1003540022971A934598E0910002A8E6B0E00E9423
:10036400FB130E94D316E983FA8310E0183178F462
:10037400183010F4439801C0439A459A83E08A9553
:10038400F1F7459883E08A95F1F71F5FEFCF449822
:1003940083E08A95F1F7449A27FC44C0A0910002B7
:1003A400AA3060F0A0910002AD3040F4A0E0F299D0
:1003B400A1E0A03019F40E94011409F002C0E0E4A5
:1003C400EB83A0910002A630B8F0A0910002A930FE
:1003D40098F40E94061481F40E940B1469F40E949C
:1003E400101451F4A0E022FCA1E0A03029F4A0E014
:1003F40023FCA1E0A03009F002C0E0E4EB83A0916B
:100404000002A13060F0A0910002A43040F40E94E8
:10041400151429F4A0E0F799A1E0A03009F002C076
:10042400E0E4EB8310E0183168F5183070F4EB81E8
:10043400E078EE1FE0E0EE1FE03011F4439801C0D5
:10044400439AEB81EE0FEB8313C0E981FA81E070EC
:10045400F078DF01EFE00E947916E03011F4439860
:1004640001C0439AE981FA81EE0FFF1FE983FA8301
:10047400459A85E08A95F1F7459885E08A95F1F7E4
:100484001F5FD1CF449885E08A95F1F7449A18818B
:1004940024960895E0917902E03011F00C945F0302
:1004A400E0917A02E03011F00C944F031D9953C08F
:1004B400E0910002E13021F40E941A14319647C001
:1004C400E23021F40E941A14329641C0E33021F440
:1004D4000E941A1434963BC0E43021F40E941A148A
:1004E400389635C0E53021F40E941A1470962FC056
:1004F400E63021F40E941A14B09629C0E73029F49A
:100504000E941A14E05CFF4F22C0E83029F40E94D4
:100514001A14E058FF4F1BC0E93029F40E941A1442
:10052400E050FF4F14C0EA3029F40E941A14E0503E
:10053400FE4F0DC0EB3029F40E941A14E050FC4F1A
:1005440006C0EC3041F40E941A14E050F84FE093D6
:100554007B02F0937C02A0910002A53039F4A091B3
:100564007B02B0917C020E94071708F095C00E949C
:100574001A14E830A0E0FA0711F4E4E055C0E230C0
:10058400A0E0FA0711F4E2E04FC0E130A0E0FA077E
:1005940011F4E3E049C0E030A8E0FA0711F4E1E027
:1005A40043C0E031A0E0FA0711F4E5E03DC0E430D7
:1005B400A0E0FA0711F4E6E037C0E032A0E0FA0761
:1005C40011F4E7E031C0E034A0E0FA0711F4E8E008
:1005D4002BC0E030A1E0FA0711F4ECE025C0E030D4
:1005E400A4E0FA0711F4EAE01FC0E030A2E0FA0741
:1005F40011F4EBE019C0E038A0E0FA0711F4E9E0E7
:1006040013C0E330A6E0FA0739F40E941F1419F46A
:10061400EEE0E09379020AC0E130A2E0FA0731F497
:100624000E941F1419F4EDE0E093790234FE06C031
:10063400EFE0E0937902EEEFEA9363DEA0917902B2
:10064400A13028F0E0E0E0933F02E89434F836FC6F
:1006540012C0E0917E02EF5FE0937E02E6EEE0934B
:100664007A02A0917E02A53029F4689436F8E0E07D
:10067400E0937E0206C0EFE0E0937F02E1E0E093C6
:100684007A02E0E0E0937B02E0937C02A0917D0299
:10069400A53110F0E0937D0205C0E0917A02E150AB
:1006A400E0937A0236FE09C0E0917F02E150E093C4
:1006B4007F02E03011F4E89436F8089526970E94FA
:1006C4002814AA85BB85AE1BBF0BE885F985AE1B34
:1006D400BF0BE4E6F0E00E9490160F01AC85BD85E7
:1006E400E885F985EA1BFB0BD0010E94B616EC8362
:1006F400FD83AD81AA2342F00E942F14AE2FEE8118
:100704000E943414EC810DC00E942F14AE81EA2B98
:100714000E943B14AC81BD81EFEFFFEFEA1BFB0BA2
:10072400F0E0EF5FE9830E942814BF01EC81FD81B2
:10073400AC85BD850E949016DF01E4E6F0E00E94DE
:10074400B616DB01AE1BBF0BAA83BB83AB81AA2306
:1007540042F00E942F14AE2FEF810E943414EA81DC
:100764000BC00E942F14AF81EA2B0E943B14AA8174
:10077400BB81EFEFFFEFEA1BE883E1E0ED1519F031
:10078400E2E0ED1549F4E881A7E1B0E00E94F61635
:10079400E981A6E1B0E02CC0E3E0ED1519F0E4E056
:1007A400ED1549F4E881A1E2B0E00E94F616E98172
:1007B400A0E2B0E01DC0E5E0ED1519F0E6E0ED15AE
:1007C40049F4E881A3E0B0E00E94F616E981A2E0D2
:1007D400B0E00EC0E7E0ED1519F0E8E0ED1551F4D6
:1007E400E881ADE0B0E00E94F616E981ACE0B0E04B
:1007F4000E94F61660960895A0917902A23041F401
:10080400D394EBE0ED1510F4E1E0DE2EE89430F83B
:10081400A0917902A33041F4DA94E1E0DE1610F4F9
:10082400EBE0DE2EE89430F8A0917902AC3011F0C0
:100834000C945B0430FE3DC0E1E0ED1519F0E2E0FC
:10084400ED1529F40E9440140E94441420C0E3E0F2
:10085400ED1519F0E4E0ED1529F40E9440140E940E
:10086400491415C0E5E0ED1519F0E6E0ED1529F49D
:100874000E9440140E944E140AC0E7E0ED1519F0DE
:10088400E8E0ED1531F40E9440140E945314A08353
:10089400B183E1E0DE1618F0E8E0ED1508F407C0D6
:1008A400ED2D0E94EE13EA0FFB1FA082B182E894A3
:1008B40030F8A0917902A430C9F5A0E030FCA1E0A1
:1008C4000E94581430F8E1E0ED1519F0E2E0ED155E
:1008D40031F40E945D140E942F14EF7C23C0E3E0E6
:1008E400ED1519F0E4E0ED1531F40E9467140E944F
:1008F4002F14E37F17C0E5E0ED1519F0E6E0ED15E0
:1009040031F40E9471140E942F14EF730BC0E7E0BE
:10091400ED1519F0E8E0ED1549F40E947B140E94EE
:100924002F14EC7FA2E3B0E00E94F616A0917902A6
:10093400A530E9F5E2E0ED1581F4A0E0F599A1E038
:10094400E1E0EA2711F4F59801C0F59AF79AF599D0
:1009540002C02F9801C02F9A2AC0E4E0ED1571F46B
:10096400A0E021FCA1E00E94581421F8689423F827
:1009740021FC02C05B9801C05B9A19C0E6E0ED154A
:1009840051F4A0E0F199A1E0E1E0EA2711F4F19833
:1009940001C0F19A0CC0E8E0ED1549F4A0E0F39928
:1009A400A1E0E1E0EA2711F4F39801C0F39AA091E1
:1009B4007902A83019F4E9E0ED1509F008C00E94A5
:1009C400AC13A1E0EA27A8E1B0E00E94F616A091DA
:1009D4007902A73011F00C94540530FE57C031FE53
:1009E40050C0E1E0ED1519F0E2E0ED1561F40E946C
:1009F4008514E23CA1E0FA0728F40E9485143A9693
:100A04000E948A143EC0E3E0ED1519F0E4E0ED1510
:100A140061F40E948F14EC32A1E0FA0728F40E94DA
:100A24008F143A960E9494142CC0E5E0ED1549F019
:100A3400E6E0ED1531F0E7E0ED1519F0E8E0ED152D
:100A440061F40E949914E039A1E0FA0728F40E94A5
:100A5400991435960E949E1414C0EAE0ED1551F4E1
:100A6400A0913E02A33628F4E0913E02EF5FE093AA
:100A74003E0207C0EBE0ED1521F4ECE3CE1608F4DA
:100A8400C394689431F8EFE08E2E0CC00E94A31436
:100A94000E94CF16E032A3E0FA0720F40E94A314C8
:100AA4000E94AC14A0917902A63011F00C94BC05FC
:100AB40030FE53C031FE4CC0E1E0ED1519F0E2E028
:100AC400ED1551F40E948514F39728F00E948514C3
:100AD4003A970E948A143CC0E3E0ED1519F0E4E073
:100AE400ED1551F40E948F14F39728F00E948F148F
:100AF4003A970E9494142CC0E5E0ED1549F0E6E025
:100B0400ED1531F0E7E0ED1519F0E8E0ED1561F4CD
:100B14000E949914E536A0E0FA0728F00E9499147F
:100B240035970E949E1414C0EAE0ED1551F4A0918B
:100B34003E02AB3028F0E0913E02E150E0933E02E9
:100B440007C0EBE0ED1521F4E5E0EC1508F4CA94D8
:100B5400689431F8EFE08E2E0DC00E94A3140E9419
:100B6400CF16329738F00E94A314ED91FD9131977E
:100B7400FE93EE93A0917902A13029F4A0E030FC19
:100B8400A1E0A03009F08DC098DBE1E0ED1519F08B
:100B9400E2E0ED15E1F4E0915402F0915502FA938C
:100BA400EA93E0914202F0914302FA93EA93E091CE
:100BB4005602F0915702FA93EA93E0914402F091BD
:100BC4004502FA93EA93E0E2EA93E0E165C0E3E0E8
:100BD400ED1519F0E4E0ED15E1F4E0915802F0911F
:100BE4005902FA93EA93E0914602F0914702FA938C
:100BF400EA93E0915A02F0915B02FA93EA93E0914E
:100C04004802F0914902FA93EA93E8E0EA93E4E0B7
:100C140043C0E5E0ED1519F0E6E0ED15E1F4E091EF
:100C24005C02F0915D02FA93EA93E0914A02F0913A
:100C34004B02FA93EA93E0915E02F0915F02FA9319
:100C4400EA93E0914C02F0914D02FA93EA93E0E8C2
:100C5400EA93E0E421C0E7E0ED1519F0E8E0ED15D2
:100C6400E9F4E0916002F0916102FA93EA93E09171
:100C74004E02F0914F02FA93EA93E0916202F091EE
:100C84006302FA93EA93E0915002F0915102FA93CD
:100C9400EA93E1E0EA93E2E0EA9310DDE8940E944B
:100CA400B214A0917902AA30D9F430FE09C0E4EF5D
:100CB400F1E0AE16BF0618F4F50131965F0110C0DD
:100CC400ED2D0E94EE130E94BA14E032A3E0FA075D
:100CD40038F4ED2D0E94EE13AE0FBF1F0E94AC142A
:100CE400A0917902AB30E1F430FE09C0E1E0F0E01C
:100CF400EA15FB0518F4F50131975F0111C0ED2DDC
:100D04000E94EE130E94BA14329750F0ED2D0E9407
:100D1400EE13AE0FBF1FED91FD913197FE93EE934D
:100D2400A0917902A13028F0A0E034FCA1E0A03029
:100D340009F002C00E94BF1408951A93A091790289
:100D4400A93049F4A0E0F199A1E0E1E0EA2711F427
:100D5400F19801C0F19AA0917902AA3011F0AB3058
:100D640011F4F19901C02DC0F29B28C0A091790221
:100D7400AA3031F40E949914E039A1E0FA0708F08E
:100D840009C00E9499140F010E94C6140E94CB143A
:100D94000E949E14A0917902AB3031F40E94991400
:100DA400E536A0E0FA0708F409C00E9499140F017F
:100DB4000E94C6140E94CF140E949E14F29AEFE07F
:100DC4008E2EA0917902AC3031F40E940B1419F4E8
:100DD4000E94101409F009C0A0E0F399A1E0E1E039
:100DE400EA2711F4F39801C0F39AA0917902A7308D
:100DF40011F0A63011F4F39901C031C0F49B2CC05A
:100E0400A0917902A73031F40E94D614E039A1E010
:100E1400FA0708F00BC00E94D6140F010E94DB14DD
:100E24000E94CB14AAE0B0E00E94EE16A0917902D1
:100E3400A63031F40E94D614E536A0E0FA0708F48F
:100E44000BC00E94D6140F010E94DB140E94CF1421
:100E5400AAE0B0E00E94EE16F49AEFE08E2EA0E035
:100E64003299A1E0A03011F4F59901C003C0E1E08A
:100E7400E0937902A0917902A130E1F4A0E0F59920
:100E8400A1E0E1E0EA2711F4F59801C0F59AF79A98
:100E94000E94B113F59902C02F9801C02F9AA0E0C7
:100EA4003299A1E0A03021F40E94AC13E13009F0A2
:100EB40001C0F598F59B5EC0A0917902A23019F0AB
:100EC400A33009F04AC020FC2AC0F69B26C0A0919A
:100ED4007902A23031F40E948514E23CA1E0FA07C1
:100EE40008F009C00E9485140F010E94E0140E94BA
:100EF400CB140E948A14A0917902A33021F40E9499
:100F04008514F39708F409C00E9485140F010E9408
:100F1400E0140E94CF140E948A14F69A1CC0A09177
:100F24007902A23021F4A0912E02A73008F005C066
:100F3400E0912E02EF5F0E94E514A0917902A330A4
:100F440021F4A0912E02A23008F405C0E0912E02F3
:100F5400E1500E94E514EFE08E2EA0917902A430B6
:100F640041F4A0E020FCA1E00E94581420F8EFE036
:100F74008E2E17C0F59915C0A0912502B0912602B6
:100F8400999740F0A0912502B0912602AD3BE2E092
:100F9400BE0708F0F798F79B04C0F69AE7E0E093E1
:100FA4002E02A0917902A53031F40E940B1419F499
:100FB4000E94061409F00FC0A0E021FCA1E00E94E9
:100FC400581421F8689423F821FC02C05B9801C0EE
:100FD4005B9A0E94B81321FC29C0A0917902A83021
:100FE40069F4A0E025FCA1E00E94581425F825FC32
:100FF40002C02E9801C02E9AE89422F80E94EC14A4
:10100400999730F00E94EC14AD3BE2E0BE0710F07B
:10101400E89423F823FE03C00E940B1409F005C0D2
:10102400689422F8E7E0E093390260C021FE5EC0D4
:10103400A0917902A73019F0A63009F04BC024FC26
:101044002BC022FE26C0A0917902A73031F40E9461
:101054008F14EC32A1E0FA0708F009C00E948F1443
:101064000F010E94F1140E94CB140E949414A091C9
:101074007902A63021F40E948F14F39708F409C072
:101084000E948F140F010E94F1140E94CF140E9439
:101094009414689422F81CC0A0917902A73021F41A
:1010A400A0913902A73008F005C0E0913902EF5F42
:1010B4000E94F614A0917902A63021F4A09139027D
:1010C400A23008F405C0E0913902E1500E94F61400
:1010D400EFE08E2EA0917902A83041F4A0E024FC28
:1010E400A1E00E94581424F8EFE08E2E25FE20C0C3
:1010F400A0917902A73021F40E94FD14E43608F08F
:1011040007C00E94FD14EB5FA8E2B0E00E94F6164F
:10111400A0917902A63021F40E94FD14EB3008F46A
:1011240007C00E94FD14E550A8E2B0E00E94F61644
:10113400A0917902AE3031F40E94151419F40E9482
:10114400011409F085C0A0E0B0E0E6EEF0E00E94F2
:10115400EE160E947114A4E0B0E0E5E00E94F616D9
:10116400AAE0B0E0E1EEF0E00E94EE160E947B14EB
:10117400AEE0B0E0E5E00E94F616A4E1B0E0E8E1FC
:10118400F1E00E94EE160E945D14A9E1B0E0EAE0ED
:101194000E94F616AEE1B0E0E8E7F0E00E94EE1639
:1011A4000E946714A2E2B0E0EAE00E94F616A8E208
:1011B400B0E0E2E30E94F616A2E3B0E0E0E00E94B1
:1011C400F616F894A8E1B0E0E1E00E94F616EFE02C
:1011D400CE2EA4E3B0E00E94F616EEE1E0933E02C8
:1011E400A6E3B0E00E94F616E7E0E0932E02A0E743
:1011F400B0E00E94F616E0933902A1E7B0E00E9445
:10120400F61610E01930E0F40E94BF130E94021594
:10121400ED93FC93E12F0E94CB130E9402150E94D0
:10122400EE160E94D9130E940215ED93FC93E12F50
:101234000E94E0130E9402150E94EE161F5FE2CF87
:101244007894E0E0E0937902E8ECEA930E94830169
:10125400A0917902AD3081F40E94011449F40E94F6
:10126400061431F40E94151419F40E94101409F0A4
:1012740003C068940E94B214A0917902A13010F0C6
:101284000E94BF1419910895E091C000E072E1F347
:10129400E881E093C600219608951A930A93AA81DF
:1012A400BB81E4E6F0E00E94A3168F010E940715BB
:1012B400A4E6A09FF001A19FF00DAA81BB81AE1B03
:1012C400BF0B8D010E94071519810881249608958A
:1012D400EFE4EA93D9DFEBE40E94101508950E942D
:1012E40017150E9410173FB7F8941091C6003FBF1E
:1012F4001C3F51F4E0E0E093B302E0938102E093F9
:101304008202E09380020CC3E091B302A1E8B2E050
:10131400F0E0EE0FFF1FAE0FBF1FE12FF0E0ED93E3
:10132400FC93E091B302A0918102B0918202F0E0BB
:10133400EA17FB0721F4A091B302A13008F4EBC231
:101344000E942515E635A0E0FA0711F00C94140A62
:10135400E6E5EA9399DF0E942A159FDF0E9499141B
:101364000E943115E0911602F09117020E94311586
:10137400E0911402F09115020E943115E0911802D7
:10138400F09119020E9431150E9435150E94311501
:101394000E9485140E943115E0912902F0912A02DD
:1013A4000E943115E0912702F09128020E94311524
:1013B400E0912B02F0912C020E9431150E943A1503
:1013C4000E9431150E948F140E943115E09134025D
:1013D400F09135020E943115E09133020E943F15CD
:1013E400E0913602F09137020E9431150E944115B6
:1013F4000E9431150E94D6140E943115E0911F02FB
:10140400F09120020E943115E0911E020E943F15C6
:10141400E0912102F09122020E943115E0918002B4
:101424000E9410150E942515E234A0E0FA0721F469
:10143400E0918502E09379020E942515E035A0E051
:10144400FA0731F40E944615E337A0E0FA0709F0E1
:1014540029C00E944B15E133A0E0FA07D9F4F09AB1
:10146400A0918902B0918A02E4E60E948A16E09370
:101474000E02F0930F02E0918B02F0918C02A09186
:101484000E02B0910F02EA0FFB1FE0930E02F093DD
:101494000F0207C00E944B15E033A0E0FA0709F4DD
:1014A400F09816DF0E942515ED34A0E0FA0709F440
:1014B4000FDF0E942515EB34A0E0FA0711F00C941D
:1014C400FB0A0E944615EF33A0E0FA07D9F5EBE6D4
:1014D400EA93DADEE6E6EA93D7DEA3E0B0E00E9420
:1014E4005015A2E0B0E00E945015A7E1B0E00E94C0
:1014F4005015A6E1B0E00E945015A1E2B0E00E94B0
:101504005015A0E2B0E00E945015ADE0B0E00E949A
:101514005015ACE0B0E00E9450150E942F140E94B8
:101524003F150E94C614EA93AFDE0E94E014EA93CA
:10153400ABDE0E94F114EA93A7DE0E94DB14EA9367
:10154400A3DE54C00E944615E132A0E0FA0711F070
:101554000C94F80AE0918702A3E0B0E00E94F6162A
:10156400E0918902A2E0B0E00E94F616E0918B02BD
:10157400A7E1B0E00E94F616E0918D02A6E1B0E08A
:101584000E94F616E0918F02A1E2B0E00E94F616E6
:10159400E0919102A0E2B0E00E94F616E09193027D
:1015A400ADE0B0E00E94F616E0919502ACE0B0E048
:1015B4000E94F616E09197020E943B14E091990272
:1015C400A4E0B0E00E94F616E0919B02A9E1B0E02D
:1015D4000E94F616E0919D02A2E2B0E00E94F61687
:1015E400E0919F02AEE0B0E00E94F616EBEFEA93C2
:1015F4004BDE0E942515EA35A0E0FA0731F40E947B
:101604004615E435A0E0FA0709F047C10E944B15DE
:10161400EF33A0E0FA0711F5EAE7EA9335DEE4E7F1
:10162400EA9332DE01E0093060F4E02FA0E4B2E096
:10163400F0E0EE0FFF1F0E94BA140E9431150F5FF5
:10164400F2CF01E0093048F4E02F0E94EE130E942B
:10165400BA140E9431150F5FF5CF1CC10E944B15BF
:10166400E132A0E0FA0711F00C944F0CE0918902EA
:10167400F0918A02E335A0E0FA0711F00C94C20B52
:101684000E945515E0934202F0934302A091420256
:10169400B09143020E945D15E0934202F09343022D
:1016A4000E946415E0934402F0934502A091440221
:1016B400B09145020E946C15E0934402F0934502F8
:1016C4000E947315E0934602F0934702A0914602EC
:1016D400B09147020E947B15E0934602F0934702C3
:1016E4000E948215E0934802F0934902A0914802B7
:1016F400B09149020E948A15E0934802F09349028E
:101704000E949115E0934A02F0934B02A0914A0281
:10171400B0914B020E949915E0934A02F0934B0258
:101724000E94A015E0934C02F0934D02A0914C024C
:10173400B0914D020E94A815E0934C02F0934D0223
:101744000E94AF15E0934E02F0934F02A0914E0217
:10175400B0914F020E94B715E0934E02F0934F02EE
:101764000E94BE15E0935002F0935102A0915002E2
:10177400B09151020E94C615E0935002F0935102B9
:10178400E0918902F0918A02E235A0E0FA0711F0B3
:101794000C944C0C0E945515E0935402F09355029E
:1017A400A0915402B09155020E945D15E093540239
:1017B400F09355020E946415E0935602F093570289
:1017C400A0915602B09157020E946C15E093560204
:1017D400F09357020E947315E0935802F093590254
:1017E400A0915802B09159020E947B15E0935802CF
:1017F400F09359020E948215E0935A02F0935B021F
:10180400A0915A02B0915B020E948A15E0935A0299
:10181400F0935B020E949115E0935C02F0935D02E9
:10182400A0915C02B0915D020E949915E0935C0264
:10183400F0935D020E94A015E0935E02F0935F02B4
:10184400A0915E02B0915F020E94A815E0935E022F
:10185400F0935F020E94AF15E0936002F09361027F
:10186400A0916002B09161020E94B715E0936002FA
:10187400F09361020E94BE15E0936202F09363024A
:10188400A0916202B09163020E94C615E0936202C5
:10189400F0936302EBEFEA93F7DC0E942515E03541
:1018A400A0E0FA0731F40E944615EF34A0E0FA07ED
:1018B40009F031C00E944B15EF33A0E0FA0781F420
:1018C400E0E7EA93E1DCEFE6EA93DEDCCA92DCDCF3
:1018D400E0913E02EA93D8DC3DD7EA93D5DC18C008
:1018E4000E944B15E132A0E0FA0791F4C0908902FE
:1018F400EC2DA4E3B0E00E94F616E0918B02E09395
:101904003E0270D7E0918D02A8E1B0E00E94F61685
:10191400EBEFEA93B9DCE091B302EF5FE093B3023B
:101924000E94151724961FC31A930A93AC81BD8194
:10193400EE81FF81EA1BFB0B8F010230E0E01E0702
:1019440064F0AA81BB81A43FE1E0BE0728F4EA81E8
:10195400FB813196EA83FB830EC00F3FEFEF1E0736
:1019640054F4AA81BB810E94071728F4EA81FB8101
:101974003197EA83FB83EA81FB81198108812896E8
:101984000895F19B10C0D3D7FA93EA930E942A15C5
:10199400E0911602F09117020E94CD15E093160211
:1019A400F093170205C0E0E0E0931602E0931702FB
:1019B400F39B0FC00E94D6140E94D115E0911F0220
:1019C400F09120020E94CD15E0931F02F0932002B3
:1019D40005C0E0E0E0931F02E0932002F59B0EC0F7
:1019E40092D70E94D715E0912902F0912A020E9411
:1019F400CD15E0932902F0932A0205C0E0E0E093BC
:101A04002902E0932A0221FE0EC087D70E94DD1529
:101A1400E0913402F09135020E94CD15E093340236
:101A2400F093350205C0E0E0E0933402E093350220
:101A340008951A930A93ED81FE81AB81BC81EA1764
:101A4400FB0788F0EA81F0E0EA0FFB1FAD81BE815D
:101A5400EA17FB0740F4AB81BC81ED81FE81EA1BF0
:101A6400FB0B8F0102C000E010E0F801198108812E
:101A7400279608950E941017EC81A885B985F0E097
:101A84000E948216DF010E94E3158F01E6D6AD8124
:101A9400EA23AE2FED81EA1729F4E885F985E01BE6
:101AA400F10B05C0F801A885B985EA0FFB1F9F015A
:101AB400D4D6AF81EA23AE2FEF81EA1741F4EE8149
:101AC400D901F0E00E94D716EA1BFB0B04C0EE819B
:101AD400F0E0E20FF31F0E9415172A960895F0997B
:101AE40066C025D7FA93EA93B3D7E2E0EA93A1DF7D
:101AF400EE0FFF1FA0911602B0911702EA0FFB1F11
:101B04000E94E815F39B05C0CCD6AE3EE2E0BE07CA
:101B140008F00AC049D70E94D115E2E0EA9389DFB0
:101B2400A0911F02EA0F01C0E0E0E0931E02A09121
:101B34001E02AB3F18F0EAEFE0931E02E4D60E94C7
:101B4400D715E5E0EA9375DFEE0FFF1FA091290298
:101B5400B0912A02EA0FFB1F0E94ED155AD639F400
:101B640021FE05C094D6AE3EE2E0BE0708F014C0E4
:101B7400D4D60E94DD15E5E0EA935BDFA091340240
:101B8400EA0FE0933302C9D625D7EA17FB0718F406
:101B9400E0E0E093330203C0E0E0E0933302A0917D
:101BA4003302AB3F18F0EAEFE093330218C0E09140
:101BB4000E02F0910F020E94E815F39B04C0E0911D
:101BC4000E02E0931E02E0910E02F0910F020E94B9
:101BD400ED1521FE04C0E0910E02E0933302A091C2
:101BE4001402B0911502A538E3E0BE0720F0E4E842
:101BF400F3E00E94E815F19B05C04ED6AE3EE2E04C
:101C0400BE0708F007C0E0911502E0938900E09157
:101C1400140203C0E0E0E0938900E0938800A091FF
:101C24002702B0912802A538E3E0BE0718F0E4E8E3
:101C3400F3E0D1D7F59B05C025D6AE3EE2E0BE0762
:101C440008F007C0E0912802E0938B00E09127029E
:101C540003C0E0E0E0938B00E0938A00F79B07C0A9
:101C6400BFD7EE57FF4F049000922D0203C0E0E06F
:101C7400E0932D0225FE02C0D1D509F010C0BBD6D9
:101C8400F0E0E0933B02F0933C02A0913B02B09160
:101C94003C02EFEF0E948A16DF0193D701C0E0E017
:101CA400E0933D0223FE07C09FD7EE57FF4F0490F9
:101CB4000092380203C0E0E0E09338020895AA934A
:101CC400EA93EFB7EA93EDEFE6BDA091B402AF5FFC
:101CD400A093B402AF3F19F4E0E0E093B402A09102
:101CE4001E02A23030F0E091B402A0911E02EA1765
:101CF40008F001C05A9AE0911E02A091B402EA17BA
:101D040009F45A98A0912D02A23030F0E091B40267
:101D1400A0912D02EA1708F001C05D9AE0912D020E
:101D2400A091B402EA1709F45D98A0913802A23098
:101D340030F0E091B402A0913802EA1708F001C033
:101D44005E9AE0913802A091B402EA1709F45E9811
:101D5400A0913D02A23030F0E091B402A0913D0286
:101D6400EA1708F001C02B9AE0913D02A091B40259
:101D7400EA1709F42B98A0913302A23030F0E091D5
:101D8400B402A0913302EA1708F001C02C9AE09142
:101D94003302A091B402EA1709F42C98E991EFBF39
:101DA400E991A991189541D6E5EFE093B2005F9AC5
:101DB40027FC03C00E949F0602C00E94FE03A6EBFC
:101DC400B2E0C8D5ED3BA2E0FA0738F0689432F8E7
:101DD400E0E0E093B602E093B702E0910002E15044
:101DE400E0930002A0910002A13018F4ECE0E0932B
:101DF40000020E944C025F98E0E0EA930E94830193
:101E040026FE02C0F29901C00AC0A0910002AA30C5
:101E140020F0A0910002AD3008F001C001C002C062
:101E2400E0E043C026FE04C0F9D411F4F49901C0E3
:101E34000AC0A0910002A63020F0A0910002A930AF
:101E440008F001C001C002C0E0E02FC026FE02C0BD
:101E5400F69901C00AC0A0910002A13020F0A0911F
:101E64000002A43008F001C001C002C0E0E01DC0BF
:101E740026FE05C022FC02C031FE01C001C00CC018
:101E8400C3D451F4A0910002A63020F0A091000226
:101E9400A93008F001C001C002C0E0E006C0E09132
:101EA4000002F0E0EF5FFD4FE081EA930E94AA0197
:101EB400A091B502AF5FA093B502A53610F40C94BF
:101EC400B50FE1E0E093B502A0E026FCA1E0EED47A
:101ED40026F8E0E0E81510F4F29901C001C08A94F4
:101EE400882009F4F298E0E0E81510F4F49901C0B0
:101EF40001C08A94882009F4F498E0E0E81510F40D
:101F0400F69901C001C08A94882009F4F698E0E0AB
:101F1400E81510F422FC01C001C08A94882011F451
:101F2400E89422F8E0E0E81510F420FC01C001C0B8
:101F34008A94882011F4E89420F8E0E0E81510F47D
:101F440024FC01C001C08A94882011F4E89424F888
:101F5400E0E0E81510F431FC01C001C08A94882047
:101F640011F4E89431F8E991EFBFF991E991B9914D
:101F7400A9919991899179916991F9901990099010
:101F8400189500E010E050E040E00E94C700289A55
:101F940032FE7DC0E89432F85F5F5D33B0F150E00B
:101FA40033FC32C0E0913F02EF5FE0933F02E091E7
:101FB4003E02A0913F02EA17F1F434F8689433F832
:101FC400F198F398F598F59902C02F9801C02F9ACB
:101FD400E89421F821FC02C05B9801C05B9AE89464
:101FE40025F825FC02C02E9801C02E9AEEEFEA9344
:101FF4000E94830109C0A0913F02AF5FE0913E02BD
:10200400EA1711F4689434F826C034FE24C0E52F8E
:10201400E13011F0EA3009F402C0E43109F402C0FD
:10202400EE3109F402C0E83209F402C0ED3211F4D1
:10203400E4E60EC0E23311F0E43309F402C0E633FF
:1020440009F402C0E83309F402C0EA3321F4E8ECED
:10205400EA930E948301D3D399F4D6D389F4D9D3D4
:1020640079F4A0E023FCA1E0A03051F4A0E0F799BA
:10207400A1E0A03029F4A0E027FCA1E0A03009F001
:1020840005C04F5FC41608F4289801C040E0F80169
:1020940031968F01E032A3E0FA0710F40C94CD10CE
:1020A400E7E0EA930E94AE00E0931802F09319026D
:1020B400E0911802F0911902FA93EA93E0E8EA93A6
:1020C400A3E0B0E00E94E216EA93E0E4EA93A2E01F
:1020D400B0E08ED5E0931202F0931302E1E0EA93AC
:1020E4000E94AE00E0932102F0932202E0912102CB
:1020F400F0912202FA93EA93E2E0EA93ADE0B0E0D1
:102104000E94E216EA93E1E0EA93ACE0B0E070D515
:10211400E0931C02F0931D02E6E0EA930E94AE00F5
:10212400E0932B02F0932C02E0912B02F0912C020D
:10213400FA93EA93E0E2EA93A7E1B0E00E94E216A0
:10214400EA93E0E1EA93A6E1B0E052D5E0932502F8
:10215400F0932602E0E0EA930E94AE00E093360298
:10216400F0933702E0913602F0913702FA93EA9342
:10217400E8E0EA93A1E2B0E00E94E216EA93E4E028
:10218400EA93A0E2B0E034D5E0933102F093320256
:1021940000E010E0F6DBA3DC9924F19B34C0F29B51
:1021A40002C0C5D304C0E0911202F0911302E0937F
:1021B4001002F0931102BBD333971FD5AE17BF079C
:1021C40010F4E0E41EC0B3D3339617D5EA17FB0727
:1021D400B8F4A0E026FCA1E0EA2FE295E07FEE0F40
:1021E400EE0F9E2A0AD5A139E1E0BE0740F0A0E037
:1021F40026FEA1E0EA2FE295E07FEE0F9E2A02C0C0
:10220400E0E29E2A02C0E0E09E2AF39B22C0F49BF7
:1022140002C0CAD301C033D4E0931A02F0931B0264
:10222400C3D33397EFD4AE17BF0710F4E4E00FC065
:10223400BBD33396E7D4EA17FB0740F4E8D4E2D4DF
:10224400A139E1E0BE0708F0EAD402C0E2E09E2A28
:1022540002C0E0E09E2AF59B2DC0F69B02C053D33A
:1022640001C001D4E0932302F09324024CD33397AA
:10227400DDD4AE17BF0710F4E8E01AC044D3339698
:10228400D5D4EA17FB0798F4A0E026FCA1E0EA2FD6
:10229400EE0FEE0FEE0F9E2AC9D4AD3BE2E0BE076F
:1022A40028F0A0E026FEA1E0EA2F9E2A02C0E1E089
:1022B4009E2A09C0F69B02C0F79901C002C0D3D37D
:1022C400BAD4E0E09E2A21FE22C022FE02C025D319
:1022D40001C0CED3E0932F02F09330021ED3339784
:1022E400AFD4AE17BF0710F4E4E00FC016D3339693
:1022F400A7D4EA17FB0740F48AD4A2D4AD3BE2E0AA
:10230400BE0708F08CD402C0E2E09E2A09C022FE77
:1023140002C023FC01C002C0ABD397D4E0E09E2AE4
:102324006AD3E0933A02A0910002A43011F00C9415
:10233400AA139092060227FEC1C08CD492D4E093D3
:10234400020288D431968DD4E093030283D432966A
:1023540088D4E093040230FE40C0E1E0ED1519F0AA
:10236400E2E0ED1551F431FE03C0CDD29F0104C06B
:1023740020912B0230912C022FC0E3E0ED1519F0CF
:10238400E4E0ED1551F431FE03C0C7D29F0104C04F
:1023940020913602309137021FC0E5E0ED1519F0A7
:1023A400E6E0ED1551F431FE03C0C1D29F0104C033
:1023B40020911802309119020FC0E7E0ED1519F0D1
:1023C400E8E0ED1549F431FE03C0B1D29F0104C029
:1023D400209121023091220203C0B3D22D913C916D
:1023E400EAE0ED1519F0EBE0ED1569F4EAE0ED151E
:1023F40019F420913E0204C0EBE0ED1511F42C2DEC
:102404003327E0E003C0D901DCD331D4E0930702E1
:102414003BD4E09308023901D90120E030E046D4EE
:10242400E093090230FC04C041D4E062E093090265
:10243400E9E0ED15A9F4E0916502E09307028AD181
:10244400E13031F4E0917602E0930802E0E006C066
:10245400E0916F02E0930802E0916F02E0930902B9
:1024640030FE02C0950106C0ED2DB6D1AE0FBF1FE0
:102474002D913C91E9E0ED1531F0EAE0ED1519F00C
:10248400EBE0ED1531F4E0E0E0930B02E0930C0295
:1024940012C0D90196D3EBD3E0930B02F5D3E093AA
:1024A4000C023901D90120E030E030FC03C0FED336
:1024B400E06201C0FBD3E0930D024AC1E3D1AD3B1E
:1024C400E2E0BE0758F0E0917002E0930202E0916E
:1024D4007102E0930302E09171024FC0F79902C0C8
:1024E400F59B07C07DD3E657FF4F04900092050289
:1024F40003C0E0E0E093050220FE0CC0E0916F020F
:10250400E0930202E0E4E09303026AD3EB59FD4F47
:10251400E08133C08BD30E94071720F4409023023C
:1025240050902402E0912302F0912402309721F488
:10253400409223025092240279D343D33F0176D3AD
:10254400BBD379D3062C072811F0B0D301C0E0E047
:10255400E09302026BD3B5D369D3B9D36CD3A6D3BA
:10256400E093030260902302709024025FD3E0E0C2
:10257400E0932302E093240299D3E093040287D1E9
:10258400AD3BE2E0BE0740F48CD1A935E2E0BE07E2
:1025940010F0F39901C00BC0E0917002E0930702C0
:1025A400E0917102E0930802E09171026CC021FC99
:1025B40002C023FE07C018D3E657FF4F04900092D1
:1025C4000A0203C0E0E0E0930A0221FC02C022FEFA
:1025D40031C024FE0CC0E0916F02E0930702E0E4F6
:1025E400E093080201D3EB59FD4FE08121C028D3C9
:1025F400E8D23F0125D360D328D3062C072811F055
:1026040055D301C0E0E0E09307021AD35AD318D39C
:102614005ED31BD34BD3E093080260902F027090DB
:1026240030020ED3E0E0E0932F02E09330023ED379
:10263400E0930902F39B29C0E5D2C3D23F01E2D261
:102644003BD3E0931A02F0931B02062C072811F0E7
:102654002DD301C0E0E0E0930702D4D232D3D2D22A
:1026640036D3E0931A02F0931B0220D3E0930802BE
:1026740060901A0270901B02C5D2E0E0E0931A0247
:10268400E0931B0213D3E093090225FE28C0A09116
:102694003A02E4E621D3E4E60E94BB16E0933A0250
:1026A400062C072811F002D301C0E0E0E0930702F2
:1026B400A0913A02EAE010D3EAE00E94BB16E0934C
:1026C4003A02F4D2E093080260903A027724A0918F
:1026D4003A02E0E0E0933A02E9D2E0930902DCD066
:1026E400A935E2E0BE0758F0E0917002E0930B02D6
:1026F400E0917102E0930C02E091710227C07DD257
:1027040060D23F017AD2D8D2E0931002F093110242
:10271400062C072811F0CAD201C0E0E0E0930B02B6
:102724006CD2CFD26AD2D3D2E0931002F0931102CA
:10273400BDD2E0930C0260901002709011025DD241
:10274400E0E0E0931002E0931102B0D2E0930D02B6
:102754001FCCFFCFA8E1B0E00E94E2160895A0E7E5
:10276400B0E00E94E216E0932E020895A1E7B0E0E3
:102774000E94E216E09339020895E12FA0E4B2E04A
:10278400F0E0EE0FFF1F0895EA0FFB1F0F01E12F8A
:102794000895ACE3B0E0F0E0EE0FFF1F0895AE0F34
:1027A400BF1F0E94DE16D001ED93FC930895E12F24
:1027B400A2E5B2E0F0E0EE0FFF1F0895AAE5B0E055
:1027C400F0E0EE0FFF1F0895AE0FBF1F0E94CF165B
:1027D400D0010E94EE160895A2E5B2E0F0E0EE0FFB
:1027E400FF1F0895E0913E02A6E3B0E00E94F616B2
:1027F4000895F0E0EE0FFF1FEA0FFB1F0895A0E01D
:10280400F199A1E0A0300895A0E0F399A1E0A030EF
:102814000895A0E025FCA1E0A0300895A0E021FCEB
:10282400A1E0A0300895A0E0F599A1E0A0300895BA
:10283400E0917B02F0917C020895E0917D02EF5FCC
:10284400E0937D02A0917D02A5300895AC85BD85FD
:10285400EE85FF85EA1BFB0B0895A2E3B0E00E941E
:10286400E2160895E095EA23A2E3B0E00E94F6168A
:102874000895A2E3B0E00E94F6160895ED2DA0E4B9
:10288400B2E0B7CFA0912B02B0912C020895A09191
:102894003602B09137020895A0911802B09119023E
:1028A4000895A0912102B09122020895E1E0EA275F
:1028B4000E940B170895A6E1B0E0E0E00E94F6162E
:1028C400A7E1B0E00E94F6160895A0E2B0E0E0E0CF
:1028D4000E94F616A1E2B0E00E94F6160895A2E066
:1028E400B0E0E0E00E94F616A3E0B0E00E94F61625
:1028F4000895ACE0B0E0E0E00E94F616ADE0B0E090
:102904000E94F6160895A4E1B0E00E94DE16089530
:10291400A4E1B0E00E94EE160895AEE1B0E00E949A
:10292400DE160895AEE1B0E00E94EE160895A0E030
:10293400B0E00E94DE160895A0E0B0E00E94EE161A
:102944000895ED2DA0E4B2E0F0E0EE0FFF1FAE0F0E
:10295400BF1F0895ED91FD913196FE93EE93089576
:1029640027F8E0E0E0937902E8ECEA930C94830121
:10297400AE0FBF1F0E94CF160895E0E0E0937902E6
:10298400EEE1EA930C948301A4E0B0E00E94E21625
:102994000895F0E0E00DF11D0895D001F0E00E94EB
:1029A400D716EA1BFB0B0895AAE0B0E00E94DE16DE
:1029B4000895AEE0B0E00E94E2160895A9E1B0E007
:1029C4000E94E2160895E0932E02A0E7B0E00E9470
:1029D400F6160895A0913102B09132020895A2E250
:1029E400B0E00E94E2160895E0933902A1E7B0E056
:1029F4000E94F6160895A8E2B0E00E94E216089537
:102A0400AE0FBF1FE0E0F0E00895E02FA091800238
:102A1400EA0FE09380020A930C944609EA930E9419
:102A24004609EBEFEA930C9446090A921A92FA9239
:102A34006A937A938A939A93AA93BA93EA93FA93AA
:102A4400EFB7EA930895E0918302F0918402089528
:102A5400E0911202F0911302FA93EA930895FA9323
:102A6400EA930C944F09E0912502F091260208950F
:102A7400E0913102F09132020895F0E0F0CFE0915C
:102A84001C02F0911D020895E0918502F0918602E6
:102A94000895E0918702F091880208950E94E21659
:102AA400EA930C944609A0918B02B0918C02E4E65F
:102AB4000E948A160895E0918D02F0918E02EA0F29
:102AC400FB1F0895A0918F02B0919002E4E60E944A
:102AD4008A160895E0919102F0919202EA0FFB1F89
:102AE4000895A0919302B0919402E4E60E948A169C
:102AF4000895E0919502F0919602EA0FFB1F089564
:102B0400A0919702B0919802E4E60E948A16089573
:102B1400E0919902F0919A02EA0FFB1F0895A091A7
:102B24009B02B0919C02E4E60E948A160895E0910B
:102B34009D02F0919E02EA0FFB1F0895A0919F024F
:102B4400B091A002E4E60E948A160895E091A102E1
:102B5400F091A202EA0FFB1F0895A091A302B09185
:102B6400A402E4E60E948A160895E091A502F09179
:102B7400A602EA0FFB1F0895A091A702B091A80234
:102B8400E4E60E948A160895E091A902F091AA024F
:102B9400EA0FFB1F0895FA93EA930C94960CFA93A8
:102BA400EA936DDFFA93EA930895FA93EA935BDF6D
:102BB400FA93EA930895FA93EA935ADFFA93EA931D
:102BC4000895E4E6F0E00E94A3160895E093140249
:102BD400F09315020895E0932702F09328020895D4
:102BE400E0912E02F0E00895E0913902F0E00895BA
:102BF4000E94E216EA930C943C0DA0911002B0914D
:102C040011020895A0911A02B0911B020895A0E048
:102C140026FCA1E0EA2FEE0FEE0F9E2A0895A0E015
:102C240026FEA1E0EA2FEE0F9E2A0895A09123022A
:102C3400B09124020895E0932302F09324020895AE
:102C4400A0912F02B09130020895E0932F02F093E7
:102C540030020895ED2DA3E0EA9FF001EE56FF4FF8
:102C64000895E491F0E0EB59FD4FE08108953F01B0
:102C7400D901E4E6F0E00E94BE169F01A5E6B2E0A9
:102C8400A60DB71DEC910895D901EAE0F0E00E9489
:102C9400A3163F01D901EAE0F0E00E94BE169F01AD
:102CA400A5E6B2E0A60DB71DEC910895A5E6B2E045
:102CB400A60DB71DEC910895E4E6F0E00E94BE165F
:102CC4000895EAE0F0E00E94A3163F010895EAE0C7
:102CD400F0E00E94BE1608950E9495166E2E772489
:102CE400A0913A020895F195E195F0400895EE23FC
:102CF4000E2EFD0121F0F695E7950A94E1F708956B
:102D0400FA9FF02DEB9FF00DEA9FE02DF10D089551
:102D14006E2F6A9FF0016B9FF00D089530D0F0DFA5
:102D24000EF4E1DF0895002498E0AA0F001C0E1AA7
:102D340010F40E0E01C0A1609A95B9F7EA2FA02DE8
:102D440008950024112490E1AA0FBB1F001C111C3C
:102D54000E1A1F0A18F40E0E1F1E01C0A1609A95C8
:102D640099F7FD01D00108950AD0EBDF0EF4BBDF23
:102D74000895D9DFEA2F0895E4DFFD010895E8946A
:102D8400F7FF02C0B0DF6894B7FF06C0A095B09506
:102D9400119600F8039400FA0895ED91FC911197AF
:102DA40008950590F491E02D08951B2EBF2FF12D69
:102DB4001A2EAE2FE12D0895119602D0FE2F1197F1
:102DC400F999FECFFF93FFB7F894A1BDB2BDF89A6D
:102DD400E0B5FFBFFF91089507D01196EF93EF2F51
:102DE40003D0EF9111970895F99B02C0A895FCCFE9
:102DF4009FB7F894A1BDB2BDF89A80B5E81719F051
:102E0400E0BDFA9AF99A9FBF089500240A160B06AA
:102E14000895E894EE2309F0689408953A932A9368
:102E24001A930A9308953B812A8119810881089590
:00000001FF
