:0A0000000C9479000C9400000C949D
:10000A0000000C9400000C9400000C9400000C9466
:10001A0000000C9400000C9400000C94760F0C94D1
:10002A0000000C9400000C9400000C9400000C9446
:10003A0000000C9400000C94DC0E0C9400000C944C
:10004A00EA090C9400000C9400000C9400000C9433
:10005A0000000C9400000C9400000C9400000000B6
:10006A00080010002000040080004000000400087E
:10007A000040008000100020FF64829BB4CDE6FFA0
:10008A000040C0E0F0F8FAFE0000000A120E0A1260
:10009A000D0F120E0F120D05120E05120D0B120E78
:1000AA000B120D100B0C050E0F0F130A00000C009B
:1000BA009F815DD5C3D6DE85DFD74E5E48CB1A4F0A
:1000CA009EC840D800000000FA00000000010200AB
:1000DA000200B60001000002B80014008202BA0051
:1000EA000A000400CE000000F894EE27EFBBF1E00E
:1000FA00F5BFE5BFF8E1A895A4B7A77FA4BFF09321
:10010A006000E09360008DE0A2E0BB27ED938A9542
:10011A00E9F780E094E0A0E0B1E0ED930197E9F718
:10012A00E8EDF0E085919591009761F0A591B59180
:10013A0005901590BF01F00105900D920197E1F726
:10014A00FB01F0CFE0E0EEBBEFEFEDBFE4E0EEBF86
:10015A00C0E0D2E00C942210E881E0937C008BE1AD
:10016A008A95F1F7E0917A00E064E0937A00E091F1
:10017A007A00E071E1F3E0917A00E061E0937A00BD
:10018A00E0917800F0917900DBC01A93E0E8E093FF
:10019A006100E0E0E0936100E0E2E5B9EFEDE4B987
:1001AA00E4E4E8B9E8E3E7B9E0E0EBB9ECEFEAB98F
:1001BA00E0E0E4BDE3E0E5BDE0E0E6BDE7BDE8BDC3
:1001CA00E0938000E0938100E0938500E09384004F
:1001DA00E0938700E0938600E0938900E09388002B
:1001EA00E0938B00E0938A00E093B600E093B000BE
:1001FA00E7E0E093B100E0E0E093B200E093B300FF
:10020A00E093B400E0936900EDBBE0936800E1E09D
:10021A00E0936E00E0E0E0936F00E1E0E0937000AD
:10022A00E0E0E093C000E8E9E093C100E6E0E09393
:10023A00C200E0E0E093C500E9E1E093C400E0E831
:10024A00E0BFE0E0E0937B00E0937E00E0937C0077
:10025A00E3E8E0937A000E94F012E23010F00E9484
:10026A00F512A4E3B0E00E94B515CE2EA6E3B0E0E5
:10027A000E94B515E09359020E94FB120E940213D4
:10028A0011E0193090F40E9409130E9410130E9481
:10029A0015130E941B130E9423130E9410130E941D
:1002AA002A130E941B131F5FECCF789422C01A9363
:1002BA00F89411E01930A8F4E12F0E941513EA0FFF
:1002CA00FB1F0F010E9409130E943013E12F0E94A5
:1002DA002A130E9410130E9438130E9430131F5FC2
:1002EA00E9CFEC2DA4E3B0E00E94C9150E943E13A9
:1002FA00789419910895A881A13028F0A0E035FCDE
:10030A00A1E0A03009F005C0E881E0937F0268947B
:10031A0035F8E881E030A1F435FE04C0A0917F02EF
:10032A00A13008F406C05C9AE0917F02E150E093A4
:10033A007F02E0917F02E03019F45C98E89435F886
:10034A002196089532FE8DC0E89432F8A091800279
:10035A00AF5FA0938002AD33B8F1E0E0E093800292
:10036A0033FC31C0E0915A02EF5FE0935A02E09108
:10037A005902A0915A02EA17E9F434F8689433F85A
:10038A00F198F398F598F59902C02F9801C02F9A21
:10039A00E89421F821FC02C05B9801C05B9AE894BA
:1003AA0025F825FC02C02E9801C02E9AEEEFEA939A
:1003BA00A2DF09C0A0915A02AF5FE0915902EA1781
:1003CA0011F4689434F826C034FE24C0E091800207
:1003DA00E13011F0EA3009F402C0E43109F402C054
:1003EA00EE3109F402C0E83209F402C0ED3211F428
:1003FA00E4E60EC0E23311F0E43309F402C0E63356
:10040A0009F402C0E83309F402C0EA3319F4E8EC4B
:10041A00EA9371DF0E944513A9F40E944A1391F4EA
:10042A000E944F1379F4A0E023FCA1E0A03051F41C
:10043A00A0E0F799A1E0A03029F4A0E027FCA1E010
:10044A00A03009F00BC0E0918102EF5FE0938102D6
:10045A00A0918102CA1608F4289803C0E0E0E0934C
:10046A00810208951A930E9454130E9479151E2F2F
:10047A000E9454130E949115EA83FB83103029F0DD
:10048A000E9459130E94611304C00E945913A0E0EC
:10049A00A083AA81BB81EAE0F0E00E9479151E2FB1
:1004AA00AA81BB81EAE0F0E00E949115EA83FB830E
:1004BA000E9459130E9461131A81A981B0E0AF5FAB
:1004CA00BD4FE12F0E946913EC939FC022971A93A4
:1004DA004598E0910002A8E6B0E00E946E130E94DF
:1004EA00A615E983FA8310E0183178F4183010F46D
:1004FA00439801C0439A459A83E08A95F1F7459853
:10050A0083E08A95F1F71F5FEFCF449883E08A95DD
:10051A00F1F7449A27FC44C0A0910002AA3060F087
:10052A00A0910002AD3040F4A0E0F299A1E0A03021
:10053A0019F40E94451309F002C0E0E4EB83A0918C
:10054A000002A630B8F0A0910002A93098F40E94E7
:10055A004A1381F40E944F1369F40E94741351F4F0
:10056A00A0E022FCA1E0A03029F4A0E023FCA1E055
:10057A00A03009F002C0E0E4EB83A0910002A130B0
:10058A0060F0A0910002A43040F40E94791329F48B
:10059A00A0E0F799A1E0A03009F002C0E0E4EB8303
:1005AA0010E0183168F5183070F4EB81E078EE1F2E
:1005BA00E0E0EE1FE03011F4439801C0439AEB816A
:1005CA00EE0FEB8313C0E981FA81E070F078DF0166
:1005DA00EFE00E945D15E03011F4439801C0439AA0
:1005EA00E981FA81EE0FFF1FE983FA83459A85E0D4
:1005FA008A95F1F7459885E08A95F1F71F5FD1CF83
:10060A00449885E08A95F1F7449A188124960895CA
:10061A00E0919602E03011F00C942004E0919702E8
:10062A00E03011F00C9410041D9953C0E0910002BF
:10063A00E13021F40E947E13319647C0E23021F462
:10064A000E947E13329641C0E33021F40E947E1349
:10065A0034963BC0E43021F40E947E13389635C0AC
:10066A00E53021F40E947E1370962FC0E63021F403
:10067A000E947E13B09629C0E73029F40E947E13A7
:10068A00E05CFF4F22C0E83029F40E947E13E05854
:10069A00FF4F1BC0E93029F40E947E13E050FF4F40
:1006AA0014C0EA3029F40E947E13E050FE4F0DC0B8
:1006BA00EB3029F40E947E13E050FC4F06C0EC3068
:1006CA0041F40E947E13E050F84FE0939802F093B1
:1006DA009902A0910002A53039F4A0919802B09134
:1006EA0099020E94DA1508F095C00E947E13E8303C
:1006FA00A0E0FA0711F4E4E055C0E230A0E0FA07FE
:10070A0011F4E2E04FC0E130A0E0FA0711F4E3E0AF
:10071A0049C0E030A8E0FA0711F4E1E043C0E03153
:10072A00A0E0FA0711F4E5E03DC0E430A0E0FA07E2
:10073A0011F4E6E037C0E032A0E0FA0711F4E7E08E
:10074A0031C0E034A0E0FA0711F4E8E02BC0E03051
:10075A00A1E0FA0711F4ECE025C0E030A4E0FA07C2
:10076A0011F4EAE01FC0E030A2E0FA0711F4EBE06E
:10077A0019C0E038A0E0FA0711F4E9E013C0E33049
:10078A00A6E0FA0739F40E94831319F4EEE0E09325
:10079A0096020AC0E130A2E0FA0731F40E948313FC
:1007AA0019F4EDE0E093960234FE06C0EFE0E09320
:1007BA009602EEEFEA939FDDA0919602A13028F00F
:1007CA00E0E0E0935A02E89434F836FC12C0E09173
:1007DA009B02EF5FE0939B02E6EEE0939702A09103
:1007EA009B02A53029F4689436F8E0E0E0939B0276
:1007FA0006C0EFE0E0939C02E1E0E0939702E0E0BC
:10080A00E0939802E0939902A0919A02A53110F020
:10081A00E0939A0205C0E0919702E150E0939702B3
:10082A0036FE09C0E0919C02E150E0939C02E03060
:10083A0011F4E89436F8089526970E948C13AA8535
:10084A00BB85AE1BBF0BE885F985AE1BBF0BE4E683
:10085A00F0E00E9474150F01AC85BD85E885F98525
:10086A00EA1BFB0BD0010E948C15EC83FD83AD8142
:10087A00AA2342F00E949313AE2FEE810E9498138E
:10088A00EC810DC00E949313AE81EA2B0E949F1344
:10089A00AC81BD81EFEFFFEFEA1BFB0BF0E0EF5FEE
:1008AA00E9830E948C13BF01EC81FD81AC85BD8573
:1008BA000E947415DF01E4E6F0E00E948C15DB016A
:1008CA00AE1BBF0BAA83BB83AB81AA2342F00E9453
:1008DA009313AE2FEF810E949813EA810BC00E94F6
:1008EA009313AF81EA2B0E949F13AA81BB81EFEF7A
:1008FA00FFEFEA1BE883E1E0ED1519F0E2E0ED1500
:10090A0049F4E881A7E1B0E00E94C915E981A6E1AE
:10091A00B0E02CC0E3E0ED1519F0E4E0ED1549F480
:10092A00E881A1E2B0E00E94C915E981A0E2B0E045
:10093A001DC0E5E0ED1519F0E6E0ED1549F4E88192
:10094A00A3E0B0E00E94C915E981A2E0B0E00EC0C0
:10095A00E7E0ED1519F0E8E0ED1551F4E881ADE0B6
:10096A00B0E00E94C915E981ACE0B0E00E94C91567
:10097A0060960895A0919602A23041F4D394EBE0D8
:10098A00ED1510F4E1E0DE2EE89430F8A09196021D
:10099A00A33041F4DA94E1E0DE1610F4EBE0DE2E47
:1009AA00E89430F8A0919602AC3011F00C941C0532
:1009BA0030FE3DC0E1E0ED1519F0E2E0ED1529F455
:1009CA000E94A4130E94A81320C0E3E0ED1519F0B9
:1009DA00E4E0ED1529F40E94A4130E94AD1315C09A
:1009EA00E5E0ED1519F0E6E0ED1529F40E94A413EF
:1009FA000E94B2130AC0E7E0ED1519F0E8E0ED1520
:100A0A0031F40E94A4130E94B713A083B183E1E0DA
:100A1A00DE1618F0E8E0ED1508F407C0ED2D0E9487
:100A2A003813EA0FFB1FA082B182E89430F8A09134
:100A3A009602A430C9F5A0E030FCA1E00E94BC13E4
:100A4A0030F8E1E0ED1519F0E2E0ED1531F40E941D
:100A5A00C1130E949313EF7C23C0E3E0ED1519F054
:100A6A00E4E0ED1531F40E94CB130E949313E37F67
:100A7A0017C0E5E0ED1519F0E6E0ED1531F40E9436
:100A8A00D5130E949313EF730BC0E7E0ED1519F02D
:100A9A00E8E0ED1549F40E94DF130E949313EC7FFE
:100AAA00A2E3B0E00E94C915A0919602A530E9F52B
:100ABA00E2E0ED1581F4A0E0F599A1E0E1E0EA2792
:100ACA0011F4F59801C0F59AF79AF59902C02F9892
:100ADA0001C02F9A2AC0E4E0ED1571F4A0E021FCD0
:100AEA00A1E00E94BC1321F8689423F821FC02C0FB
:100AFA005B9801C05B9A19C0E6E0ED1551F4A0E0DD
:100B0A00F199A1E0E1E0EA2711F4F19801C0F19A24
:100B1A000CC0E8E0ED1549F4A0E0F399A1E0E1E0AA
:100B2A00EA2711F4F39801C0F39AA0919602A7302C
:100B3A0011F00C94E10530FE2BC031FE24C0E1E037
:100B4A00DE1618F0E8E0ED1508F409C0E4EFF1E06C
:100B5A008E169F0618F4F4013A964F0114C0EAE083
:100B6A00ED1551F4A0915902A33628F4E0915902E7
:100B7A00EF5FE093590207C0EBE0ED1521F4ECE3D7
:100B8A00CE1608F4C394689431F8EFE07E2E0FC0B5
:100B9A000E94E9130E94A215E032A3E0FA0738F492
:100BAA000E94E913ED91FD913196FE93EE93E9E0EF
:100BBA00ED1511F40E94F512A0919602A63011F0DB
:100BCA000C94260630FE2BC031FE24C0E1E0DE166E
:100BDA0018F0E8E0ED1508F409C0E2E3F0E0E815E2
:100BEA00F90518F4F4013A974F0114C0EAE0ED153B
:100BFA0051F4A0915902AB3028F0E0915902E1502A
:100C0A00E093590207C0EBE0ED1521F4E5E0EC159D
:100C1A0008F4CA94689431F8EFE07E2E0AC00E9464
:100C2A00E9130E94A215329720F00E94E9130E944C
:100C3A00F213E9E0ED1529F4A8E1B0E0E0E00E9442
:100C4A00C915A0919602A13029F4A0E030FCA1E0D8
:100C5A00A03009F08DC02BDBE1E0ED1519F0E2E0E0
:100C6A00ED15E1F4E0916F02F0917002FA93EA93C4
:100C7A00E0915D02F0915E02FA93EA93E0917102CB
:100C8A00F0917202FA93EA93E0915F02F0916002A6
:100C9A00FA93EA93E0E2EA93E0E165C0E3E0ED1556
:100CAA0019F0E4E0ED15E1F4E0917302F0917402B9
:100CBA00FA93EA93E0916102F0916202FA93EA935D
:100CCA00E0917502F0917602FA93EA93E091630259
:100CDA00F0916402FA93EA93E8E0EA93E4E043C00D
:100CEA00E5E0ED1519F0E6E0ED15E1F4E0917702A3
:100CFA00F0917802FA93EA93E0916502F091660224
:100D0A00FA93EA93E0917902F0917A02FA93EA93DC
:100D1A00E0916702F0916802FA93EA93E0E8EA93B5
:100D2A00E0E421C0E7E0ED1519F0E8E0ED15E9F49B
:100D3A00E0917B02F0917C02FA93EA93E0916902D6
:100D4A00F0916A02FA93EA93E0917D02F0917E02B1
:100D5A00FA93EA93E0916B02F0916C02FA93EA93A8
:100D6A00E1E0EA93E2E0EA9367DDE8940E94F8138F
:100D7A00A0919602AA30F1F430FE09C0E4EFF1E046
:100D8A00AE16BF0618F4F50131965F0113C0ED2DBA
:100D9A000E9438130E940014E032A3E0FA0750F4CC
:100DAA00ED2D0E943813AE0FBF1FED91FD913196C4
:100DBA00FE93EE93A0919602AB30C9F430FE09C0BF
:100DCA00E1E0F0E0EA15FB0518F4F50131975F015F
:100DDA000EC0ED2D0E9438130E940014329738F08D
:100DEA00ED2D0E943813AE0FBF1F0E94F213A0917F
:100DFA009602A13028F0A0E034FCA1E0A03009F06E
:100E0A0002C00E94051408951A93A0919602A9306F
:100E1A0049F4A0E0F199A1E0E1E0EA2711F4F198A0
:100E2A0001C0F19AA0919602AA3011F0AB3011F4E8
:100E3A00F19901C031C0F29B2CC0A0919602AA3050
:100E4A0031F40E940C14E039A1E0FA0708F00BC053
:100E5A000E940C140F010E9411140E941614A0E0A3
:100E6A00B0E00E94C115A0919602AB3031F40E9405
:100E7A000C14E536A0E0FA0708F40BC00E940C1423
:100E8A000F010E9411140E941A14A0E0B0E00E94FF
:100E9A00C115F29AEFE07E2EA0919602AC3031F4A1
:100EAA000E944F1319F40E94741309F009C0A0E0BC
:100EBA00F399A1E0E1E0EA2711F4F39801C0F39A6B
:100ECA00A0919602A73011F0A63011F4F39901C04F
:100EDA0031C0F49B2CC0A0919602A73031F40E9435
:100EEA002114E039A1E0FA0708F00BC00E9421148E
:100EFA000F010E9426140E941614AAE0B0E00E9474
:100F0A00C115A0919602A63031F40E942114E5364B
:100F1A00A0E0FA0708F40BC00E9421140F010E94F6
:100F2A0026140E941A14AAE0B0E00E94C115F49A8D
:100F3A00EFE07E2EA0E03299A1E0A03031F4F59BDB
:100F4A0004C00E94F012E13009F003C0E1E0E0932E
:100F5A009602A0919602A130E1F4A0E0F599A1E0F1
:100F6A00E1E0EA2711F4F59801C0F59AF79A0E9490
:100F7A00FB12A0E03299A1E0A03021F40E94F01205
:100F8A00E13009F001C0F598F59902C02F9801C027
:100F9A002F9AF59B62C0A0919602A23019F0A33055
:100FAA0009F04EC020FC2EC0F69B2AC0A0919602E2
:100FBA00A23031F40E942B14E23CA1E0FA0708F0B7
:100FCA000BC00E942B140F010E9430140E941614A9
:100FDA00A4E1B0E00E94C115A0919602A33021F4C9
:100FEA000E942B14F39708F40BC00E942B140F01D4
:100FFA000E9430140E941A14A4E1B0E00E94C115A4
:10100A00F69A1CC0A0919602A23021F4A091220265
:10101A00A73008F005C0E0912202EF5F0E94351464
:10102A00A0919602A33021F4A0912202A23008F4E2
:10103A0005C0E0912202E1500E943514EFE07E2EB5
:10104A00A0919602A43041F4A0E020FCA1E00E9405
:10105A00BC1320F8EFE07E2E17C0F59915C0A091B9
:10106A001502B0911602999740F0A0911502B0911D
:10107A001602AD3BE2E0BE0708F0F798F79B04C002
:10108A00F69AE7E0E0932202A0919602A53031F4A5
:10109A000E944F1319F40E944A1309F00FC0A0E0EE
:1010AA0021FCA1E00E94BC1321F8689423F821FCDA
:1010BA0002C05B9801C05B9A0E94021321FC2DC0FA
:1010CA00A0919602A83069F4A0E025FCA1E00E9454
:1010DA00BC1325F825FC02C02E9801C02E9AE8946C
:1010EA0022F8A0912702B0912802999740F0A09186
:1010FA002702B0912802AD3BE2E0BE0710F0E89467
:10110A0023F823FE03C00E944F1309F005C0689418
:10111A0022F8E7E0E093340264C021FE62C0A091A5
:10112A009602A73019F0A63009F04FC024FC2FC050
:10113A0022FE2AC0A0919602A73031F40E943E14E2
:10114A00EC32A1E0FA0708F00BC00E943E140F012E
:10115A000E9443140E941614AEE1B0E00E94C11529
:10116A00A0919602A63021F40E943E14F39708F447
:10117A000BC00E943E140F010E9443140E941A14CD
:10118A00AEE1B0E00E94C115689422F81CC0A0919B
:10119A009602A73021F4A0913402A73008F005C0C6
:1011AA00E0913402EF5F0E944814A0919602A630A3
:1011BA0021F4A0913402A23008F405C0E09134026F
:1011CA00E1500E944814EFE07E2EA0919602A830CA
:1011DA0041F4A0E024FCA1E00E94BC1324F8EFE053
:1011EA007E2E25FE20C0A0919602A73021F40E94EF
:1011FA005114E43608F007C00E945114EB5FA8E2CC
:10120A00B0E00E94C915A0919602A63021F40E946E
:10121A005114EB3008F407C00E945114E550A8E2BB
:10122A00B0E00E94C915A0919602AE3031F40E9436
:10123A00791319F40E94451309F082C0A0E0B0E0C6
:10124A00E6EEF0E00E94C1150E94D513A4E0B0E0DA
:10125A00E5E00E94C915AAE0B0E0E1EEF0E00E94E4
:10126A00C1150E94DF13AEE0B0E0E5E00E94C915A7
:10127A00A4E1B0E0E8E1F1E00E94C1150E94C113C7
:10128A00A9E1B0E0EAE00E94C915AEE1B0E0E8E702
:10129A00F0E00E94C1150E94CB13A2E2B0E0EAE09E
:1012AA000E94C915A8E2B0E0E2E30E94C915A2E3D0
:1012BA00B0E0E0E00E94C915F8940E94F512EFE050
:1012CA00CE2EA4E3B0E00E94C915EEE1E0935902E4
:1012DA00A6E3B0E00E94C915E7E0E0932202A0E786
:1012EA00B0E00E94C915E0933402A1E7B0E00E9481
:1012FA00C91510E01930E0F40E9409130E9456142F
:10130A00ED93FC93E12F0E9415130E9456140E943C
:10131A00C1150E9423130E945614ED93FC93E12FEA
:10132A000E942A130E9456140E94C1151F5FE2CF21
:10133A007894E0E0E0939602E8ECEA930E94800158
:10134A00A0919602AD3081F40E94451349F40E949F
:10135A004A1331F40E94791319F40E94741309F0A4
:10136A0003C068940E94F813A0919602A13010F06D
:10137A000E94051419910895E091C000E072E1F30A
:10138A00E881E093C600219608951A930A930E9471
:10139A0054130E9479158F010E945B14A4E6A09F42
:1013AA00F001A19FF00DAA81BB81AE1BBF0B8D017D
:1013BA000E945B141981088124960895EFE4EA9348
:1013CA00DBDFEBE40E94641408950E946B140E9410
:1013DA00E3153FB7F8941091C6003FBF1C3F51F484
:1013EA00E0E0E093D002E0939E02E0939F02E09354
:1013FA009D02F3C2E091D002AEE9B2E0F0E0EE0F56
:10140A00FF1FAE0FBF1FE12FF0E0ED93FC93E091B9
:10141A00D002A0919E02B0919F02F0E0EA17FB076A
:10142A0021F4A091D002A13008F4D2C20E9479140A
:10143A00E635A0E0FA0711F00C94820AE6E5EA9391
:10144A009BDFE0913902F0913A020E947E140E94D9
:10145A000C140E947E14E09140020E948214E091D2
:10146A003B020E9486140E9488140E947E14E09116
:10147A001502F09116020E947E140E942B140E94FB
:10148A007E14E0911C020E948214E09117020E94CD
:10149A0086140E948D140E947E14E0912702F09116
:1014AA0028020E947E140E943E140E947E14E0913B
:1014BA002E020E948214E09129020E9486140E9440
:1014CA0092140E947E14E0914B02F0914C020E9409
:1014DA007E140E9421140E947E14E09152020E94FE
:1014EA008214E0914D020E9486140E9497140E9471
:1014FA007E14E0919D020E9464140E947914E234E1
:10150A00A0E0FA0721F4E091A202E09396020E9479
:10151A007914E035A0E0FA0731F40E949C14E3370D
:10152A00A0E0FA0709F01EC00E94A114E133A0E06E
:10153A00FA0781F4F09AA091A602B091A702E4E614
:10154A000E946E152F01E091A802F091A9024E0E99
:10155A005F1E07C00E94A114E033A0E0FA0709F455
:10156A00F0982CDF0E947914ED34A0E0FA0709F410
:10157A0025DF0E947914EB34A0E0FA0711F00C94ED
:10158A005E0B0E949C14EF33A0E0FA07D9F5EBE654
:10159A00EA93F2DEE6E6EA93EFDEA3E0B0E00E9429
:1015AA00A614A2E0B0E00E94A614A7E1B0E00E944F
:1015BA00A614A6E1B0E00E94A614A1E2B0E00E943F
:1015CA00A614A0E2B0E00E94A614ADE0B0E00E942A
:1015DA00A614ACE0B0E00E94A6140E9493130E94E5
:1015EA0086140E941114EA93C7DE0E943014EA930B
:1015FA00C3DE0E944314EA93BFDE0E942614EA93D4
:10160A00BBDE54C00E949C14E132A0E0FA0711F03C
:10161A000C945B0BE091A402A3E0B0E00E94C91510
:10162A00E091A602A2E0B0E00E94C915E091A802EA
:10163A00A7E1B0E00E94C915E091AA02A6E1B0E0D4
:10164A000E94C915E091AC02A1E2B0E00E94C9155E
:10165A00E091AE02A0E2B0E00E94C915E091B002AA
:10166A00ADE0B0E00E94C915E091B202ACE0B0E092
:10167A000E94C915E091B4020E949F13E091B6023C
:10168A00A4E0B0E00E94C915E091B802A9E1B0E077
:10169A000E94C915E091BA02A2E2B0E00E94C915FF
:1016AA00E091BC02AEE0B0E00E94C915EBEFEA930C
:1016BA0063DE0E947914EA35A0E0FA0731F40E9449
:1016CA009C14E435A0E0FA0709F046C10E94A1146F
:1016DA00EF33A0E0FA0709F5EAE7EA934DDEE4E71B
:1016EA00EA934ADE01E0093060F4E02FABE5B2E0AC
:1016FA00F0E0EE0FFF1F0E9400140E947E140F5F9D
:10170A00F2CF01E0093040F4E02FADD70E94001477
:10171A000E947E140F5FF6CF1CC10E94A114E13211
:10172A00A0E0FA0711F00C94B10CE091A602F09136
:10173A00A702E335A0E0FA0711F00C94240C0E94EA
:10174A00AB14E0935D02F0935E02A0915D02B0914A
:10175A005E020E94B314E0935D02F0935E020E945F
:10176A00BA14E0935F02F0936002A0915F02B09115
:10177A0060020E94C214E0935F02F09360020E942A
:10178A00C914E0936102F0936202A0916102B091E0
:10179A0062020E94D114E0936102F09362020E94F5
:1017AA00D814E0936302F0936402A0916302B091AB
:1017BA0064020E94E014E0936302F09364020E94C0
:1017CA00E714E0936502F0936602A0916502B09176
:1017DA0066020E94EF14E0936502F09366020E948B
:1017EA00F614E0936702F0936802A0916702B09141
:1017FA0068020E94FE14E0936702F09368020E9456
:10180A000515E0936902F0936A02A0916902B0910A
:10181A006A020E940D15E0936902F0936A020E941F
:10182A001415E0936B02F0936C02A0916B02B091D5
:10183A006C020E941C15E0936B02F0936C02E0911B
:10184A00A602F091A702E235A0E0FA0711F00C9483
:10185A00AE0C0E94AB14E0936F02F0937002A09159
:10186A006F02B09170020E94B314E0936F02F0937A
:10187A0070020E94BA14E0937102F0937202A0916E
:10188A007102B09172020E94C214E0937102F09345
:10189A0072020E94C914E0937302F0937402A09139
:1018AA007302B09174020E94D114E0937302F09310
:1018BA0074020E94D814E0937502F0937602A09104
:1018CA007502B09176020E94E014E0937502F093DB
:1018DA0076020E94E714E0937702F0937802A091CF
:1018EA007702B09178020E94EF14E0937702F093A6
:1018FA0078020E94F614E0937902F0937A02A0919A
:10190A007902B0917A020E94FE14E0937902F09370
:10191A007A020E940515E0937B02F0937C02A09163
:10192A007B02B0917C020E940D15E0937B02F0933A
:10193A007C020E941415E0937D02F0937E02A0912E
:10194A007D02B0917E020E941C15E0937D02F09305
:10195A007E02EBEFEA9310DDC7D7E035A0E0FA0785
:10196A0031F40E949C14EF34A0E0FA0709F030C069
:10197A000E94A114EF33A0E0FA0781F4E0E7EA93AA
:10198A00FBDCEFE6EA93F8DCCA92F6DCE091590256
:10199A00EA93F2DC20D6EA93EFDC17C0CDD7E13226
:1019AA00A0E0FA0791F4C090A602EC2DA4E3B0E0FF
:1019BA000E94C915E091A802E09359025AD6E09113
:1019CA00AA02A8E1B0E00E94C915EBEFEA93D4DCC1
:1019DA00E091D002EF5FE093D0020E94E8152496CE
:1019EA001EC30E94E315EC81A885B985F0E00E9428
:1019FA006615DF01E4E6F0E00E9479158F018ED6C4
:101A0A00AD81EA23AE2FED81EA1729F4E885F9853D
:101A1A00E01BF10B05C0F801A885B985EA0FFB1F89
:101A2A009F017CD6AF81EA23AE2FEF81EA1741F4FA
:101A3A00EE81D901F0E00E94AA15EA1BFB0B04C053
:101A4A00EE81F0E0E20FF31F0E94E8152A9608954E
:101A5A001A930A9327FE02C08C869D86A885B985AB
:101A6A000E94A215AA81BB81ED93FC93AA85BB852E
:101A7A000E94A215AC85BD85AE1BBF0B8D01A88542
:101A8A00B9850D931C93AA81BB810D901C90A885E2
:101A9A00B9850E94A215E015F105D9F00233E0E0FC
:101AAA001E0724F40024001601060CF005C0AE81BE
:101ABA00BF81EC91EF5FEC93EEECFFEFE017F107DB
:101ACA0014F411230AF005C0AE81BF81EC91E250F3
:101ADA00EC93AE81BF81AC91AC3924F4AE81BF8165
:101AEA00ECE9EC93AE81BF81AC91A53624F0AE81CE
:101AFA00BF81E4E6EC93A885B9850D901C90AA8174
:101B0A00BB810E94A215DF01F001EA1BFB0BAC812D
:101B1A00BD81ED93FC93AA81BB810D901C90AE818F
:101B2A00BF81EC91F0E0E7FDFFEF0E0E1F1EAC81C6
:101B3A00BD810E94A215E00DF11D8F01AA85BB850A
:101B4A000E94A215E53FA1E0FA0710F4112312F44E
:101B5A0000E010E0F801198108812E960895F099A5
:101B6A0069C074D6FA93EA93E5E1F2E0FA93EA934C
:101B7A00EAE1F2E0FA93EA93ECE1F2E0FA93EA930B
:101B8A00EDE1F2E0FA93EA93EFE1F2E057D7E0935E
:101B9A001802F09319026DD6FA93EA93E7E2F2E09B
:101BAA00FA93EA93ECE2F2E0FA93EA93EEE2F2E0D5
:101BBA00FA93EA93EFE2F2E0FA93EA93E1E3F2E0CE
:101BCA003DD7E0932A02F0932B0221D6FA93EA93A7
:101BDA00E9E3F2E0FA93EA93EEE3F2E0FA93EA93A6
:101BEA00E0E4F2E0FA93EA93E1E4F2E0FA93EA93AA
:101BFA00E3E4F2E023D7E0933C02F0933D021CD6E3
:101C0A00FA93EA93EBE4F2E0FA93EA93E0E5F2E07E
:101C1A00FA93EA93E2E5F2E0FA93EA93E3E5F2E073
:101C2A00FA93EA93E5E5F2E009D7E0934E02F093DE
:101C3A004F0220C0F19B03C040923B0203C0E0E088
:101C4A00E0933B02F39B03C040924D0203C0E0E0E5
:101C5A00E0934D02F59B03C04092170203C0E0E0F7
:101C6A00E093170221FE03C04092290203C0E0E07C
:101C7A00E0932902A0911802B0911902AB3FE0E06B
:101C8A00BE0734F0EAEFF0E0E0931802F09319028D
:101C9A00F59B05C058D5AC3BE2E0BE0708F003C08F
:101CAA00E091180201C0E0E0E0931702F79B06C03A
:101CBA00E0912202C7D60092210203C0E0E0E0933D
:101CCA002102E8D439F421FE05C042D5AC3BE2E05A
:101CDA00BE0708F003C0E0912A0201C0E0E0E093E9
:101CEA002902A0912902AB3F18F0EAEFE0932902FA
:101CFA0023FE06C0E0913402A5D60092330203C047
:101D0A00E0E0E0933302A0913C02B0913D02AB3F88
:101D1A00E0E0BE0734F0EAEFF0E0E0933C02F09333
:101D2A003D02F19B05C019D5AC3BE2E0BE0708F0C5
:101D3A0003C0E0913C0201C0E0E0E0933B02A091C5
:101D4A004E02B0914F02AB3FE0E0BE0734F0EAEF3B
:101D5A00F0E0E0934E02F0934F02F39B05C002D5E8
:101D6A00AC3BE2E0BE0708F003C0E0914E0201C0BE
:101D7A00E0E0E0934D0225FE02C0B1D409F013C0A1
:101D8A008BD5F0E0E0930E02F0930F02A0910E02C1
:101D9A00B0910F02EFEF0E946E15DF01E4E6F0E06A
:101DAA000E94791501C0E0E0E09310020895AA9319
:101DBA00EA93EFB7EA93EDEFE6BDA091D102AF5FE8
:101DCA00A093D102AF3F19F4E0E0E093D102A091D1
:101DDA001702A23030F0A0911702E091D102EA175F
:101DEA0008F001C02A9AE0911702A091D102EA17DD
:101DFA0009F42A98A0912102A23030F0A091210280
:101E0A00E091D102EA1708F001C05D9AE09121023F
:101E1A00A091D102EA1709F45D98A0913B02A23081
:101E2A0030F0A0913B02E091D102EA1708F001C01C
:101E3A00299AE0913B02A091D102EA1709F4299864
:101E4A00A0914D02A23030F0A0914D02E091D10252
:101E5A00EA1708F001C05A9AE0914D02A091D10206
:101E6A00EA1709F45A98A0911002A23030F0E091D2
:101E7A00D102A0911002EA1708F001C02B9AE09152
:101E8A001002A091D102EA1709F42B98A091290215
:101E9A00A23030F0A0912902E091D102EA1708F0AD
:101EAA0001C02C9AE0912902A091D102EA1709F403
:101EBA002C98A0913302A23030F0A0913302E09125
:101ECA00D102EA1708F001C05E9AE0913302A091AC
:101EDA00D102EA1709F45E98E991EFBFE991A99155
:101EEA001895F4D4E5EFE093B20027FC03C00E94F2
:101EFA00090702C00E94BF04A3EDB2E06ED4309776
:101F0A0041F4689432F8ECEBF2E0E093D302F093F8
:101F1A00D402E0910002E150E0930002A091000295
:101F2A00A13018F4ECE0E09300020E940D03E0E017
:101F3A00EA930E94800126FE02C0F29901C00AC0FB
:101F4A00A0910002AA3020F0A0910002AD3008F062
:101F5A0001C001C002C0E0E043C026FE04C0BFD3F6
:101F6A0011F4F49901C00AC0A0910002A63020F031
:101F7A00A0910002A93008F001C001C002C0E0E04F
:101F8A002FC026FE02C0F69901C00AC0A091000225
:101F9A00A13020F0A0910002A43008F001C001C0D5
:101FAA0002C0E0E01DC026FE05C022FC02C031FED0
:101FBA0001C001C00CC069D351F4A0910002A6303F
:101FCA0020F0A0910002A93008F001C001C002C0AF
:101FDA00E0E006C0E0910002F0E0EF5FFD4FE08133
:101FEA00EA930E946B02A091D202AF5FA093D20241
:101FFA00A536A8F0E0E0E093D202A0E026FCA1E03A
:10200A00B6D326F8E0E0E71510F47A9408C0F298FF
:10201A00F498F698E89422F820F824F831F8E9912F
:10202A00EFBFF991E991B991A99199918991799122
:10203A006991F9901990099018952697E0E0EA833A
:10204A00EB830E94CA00289A0E94A701AA81BB8139
:10205A001196AA83BB83A032E3E0BE0710F40C9466
:10206A00A610E7E0EA930E94B100E0933502F093EC
:10207A00360249D4FA93EA93E0E8EA93A3E0B0E09F
:10208A000E94B515EA93E0E4EA93A2E0B0E0DFD457
:10209A00E0933902F0933A02E1E0EA930E94B10038
:1020AA00E0934702F09348023DD4FA93EA93E2E0C0
:1020BA00EA93ADE0B0E00E94B515EA93E1E0EA9355
:1020CA00ACE0B0E0C4D4E0934B02F0934C02E6E0FB
:1020DA00EA930E94B100E0931102F093120218D41D
:1020EA00FA93EA93E0E2EA93A7E1B0E00E94B51519
:1020FA00EA93E0E1EA93A6E1B0E0A9D4E0931502FD
:10210A00F0931602E0E0EA930E94B100E093230202
:10211A00F093240202D4FA93EA93E8E0EA93A1E264
:10212A00B0E00E94B515EA93E4E0EA93A0E2B0E0D9
:10213A008ED4E0932702F0932802E0E0EA83EB834F
:10214A000EDD10E0F19B34C0F29B02C060D304C0E4
:10215A00E0913902F0913A02EC83FD8358D3339728
:10216A00AC81BD81AE17BF0710F4106420C04FD3F5
:10217A003396AC81BD81EA17FB07C0F4A0E026FCC8
:10218A00A1E0EA2FE295E07FEE0FEE0F1E2BAC8165
:10219A00BD81A139E1E0BE0740F0A0E026FEA1E042
:1021AA00EA2FE295E07FEE0F1E2B01C0106201C0FC
:1021BA001060F39B1EC0F49B03C03ED3AF0104C062
:1021CA0040914B0250914C0237D333974E175F0719
:1021DA0010F414600DC030D33396E417F50738F4C1
:1021EA003BD44139E1E05E0708F03ED401C01260F9
:1021FA0001C01060F59B29C0F69B03C027D39F013D
:10220A0004C0209115023091160220D333972E175D
:10221A003F0710F4186018C019D33396E217F30772
:10222A0090F4A0E026FCA1E0EA2FEE0FEE0FEE0FED
:10223A001E2B2D3BE2E03E0728F0A0E026FEA1E09F
:10224A00EA2F1E2B01C0116007C0F79B04C0209122
:10225A00150230911602106021FE1EC022FE03C034
:10226A0008D3AF0104C0409127025091280201D33C
:10227A0033974E175F0710F414600DC0FAD23396E5
:10228A00E417F50738F4E8D34D3BE2E05E0708F0BF
:10229A00EBD301C012600AC022FE02C023FC01C0B7
:1022AA0004C040912702509128021060A0910002B8
:1022BA00A43011F00C94EE121093060227FEFAC015
:1022CA00DAD3E49101D2E0930202D5D33196E491B4
:1022DA00FBD1E0930302CFD33296E491F5D1E09398
:1022EA00040230FE3CC0E1E0ED1519F0E2E0ED1524
:1022FA0049F431FE03C08882998203C009D3E88376
:10230A00F9832CC0E3E0ED1519F0E4E0ED1549F48A
:10231A0031FE03C08882998203C0FFD2E883F98321
:10232A001DC0E5E0ED1519F0E6E0ED1549F431FEC2
:10233A0003C08882998203C0E6D2E883F9830EC07B
:10234A00E7E0ED1519F0E8E0ED1541F431FE03C0C0
:10235A008882998203C0E6D2E883F98305C034D221
:10236A000E94A215E883F983EAE0ED1519F0EBE083
:10237A00ED1569F4EAE0ED1519F4E091590204C08B
:10238A00EBE0ED1521F4EC2DF0E0E883F983E88128
:10239A00F981FA93EA9376D330FC05C0A9E0B2E05A
:1023AA00EC91E062EC93E9E0ED15A9F4E091820288
:1023BA00E093070210D1E13031F4E0919302E09307
:1023CA000802E0E006C0E0918C02E0930802E09186
:1023DA008C02E093090230FE03C0A882B98205C0CC
:1023EA00ED2D41D108D2E883F983E9E0ED1531F00A
:1023FA00EAE0ED1519F0EBE0ED1541F4E0E0E093C9
:10240A000B02E0930C02E0930D0253C0E62DE1307B
:10241A0029F4E0915002F091510215C0E23031F4F2
:10242A00E0915202F0E0E7FDFFEF0DC0E33029F43E
:10243A00E0915302F091540206C0E43031F4E09185
:10244A004E02F0914F02E883F983E881F9811ED3A5
:10245A0030FC05C0ADE0B2E0EC91E062EC93E4E060
:10246A00E61519F0E1E0E61511F426FC01C005C0F5
:10247A00ABE0B2E0EC91E062EC93E4E0E61519F02F
:10248A00E2E0E61511F426FC01C005C0ACE0B2E0BA
:10249A00EC91E062EC93E4E0E61519F0E3E0E6156E
:1024AA0011F426FC01C005C0ADE0B2E0EC91E06297
:1024BA00EC938FC048D1AD3BE2E0BE0768F0E091F3
:1024CA008D02E0930202E0918E02E0930302E09112
:1024DA008E02E093040222C0F79902C0F59B06C05F
:1024EA00E0912202D9D20092050203C0E0E0E09313
:1024FA00050220FE0DC0E0918C02E0930202E0E4A6
:10250A00E0930302E0912202DFD0E093040206C0C6
:10251A003A932A93E1E0EA930E94370219D1AB3841
:10252A00E2E0BE0710F021FC08C01CD1AB38E2E0A3
:10253A00BE0710F0F39901C00DC0E0918D02E0933F
:10254A000702E0918E02E0930802E0918E02E09386
:10255A00090228C021FC02C023FE06C0E091340211
:10256A009BD200920A0203C0E0E0E0930A0221FC37
:10257A0002C022FE10C024FE0DC0E0918C02E0933E
:10258A000702E0E4E0930802E09134029DD0E09370
:10259A00090201C086D2F39984D225FE03C07CD1F8
:1025AA004E2F552725FC7DD2D8D0A935E2E0BE07AB
:1025BA0068F0E0918D02E0930B02E0918E02E093C5
:1025CA000C02E0918E02E0930D0203C0EC81FD81C2
:1025DA005DD23ACDFFCFA8E1B0E00E94B5150895CB
:1025EA00A8E1B0E0E1E00E94C9150895A0E7B0E0D3
:1025FA000E94B515E09322020895A1E7B0E00E9477
:10260A00B515E09334020895E12FABE5B2E0F0E0AE
:10261A00EE0FFF1F0895EA0FFB1F0F01E12F089528
:10262A00ACE3B0E0F0E0EE0FFF1F0895AE0FBF1F5E
:10263A000E94B115D001ED93FC930895E12FADE608
:10264A00B2E0F0E0EE0FFF1F0895AAE5B0E0F0E077
:10265A00EE0FFF1F0895AE0FBF1F0E94A215D001F3
:10266A000E94C1150895ADE6B2E0F0E0EE0FFF1F3B
:10267A000895E0915902A6E3B0E00E94C9150895B1
:10268A00A0E0F199A1E0A0300895A0E0F399A1E0BB
:10269A00A0300895A0E025FCA1E0A0300895AA8109
:1026AA00BB81E4E6F0E00895E981EF5FE983E15058
:1026BA00F0E0EF5FFD4F0895DF01E12FF0E0EE5704
:1026CA00FD4FE081EC930895F0E0EE57FD4FE08175
:1026DA000895F0E0EE0FFF1FEA0FFB1F0895A0E038
:1026EA0021FCA1E0A0300895A0E0F599A1E0A03076
:1026FA000895E0919802F09199020895E0919A0262
:10270A00EF5FE0939A02A0919A02A5300895AC85F2
:10271A00BD85EE85FF85EA1BFB0B0895A2E3B0E0B9
:10272A000E94B5150895E095EA23A2E3B0E00E945D
:10273A00C9150895A2E3B0E00E94C9150895ED2DC8
:10274A00ABE5B2E0C6CFA0911102B0911202089592
:10275A00A0912302B09124020895A0913502B0916C
:10276A0036020895A0914702B09148020895E1E027
:10277A00EA270E94DE150895A6E1B0E0E0E00E9493
:10278A00C915A7E1B0E00E94C9150895A0E2B0E01A
:10279A00E0E00E94C915A1E2B0E00E94C9150895BF
:1027AA00A2E0B0E0E0E00E94C915A3E0B0E00E9418
:1027BA00C9150895ACE0B0E0E0E00E94C915ADE0AB
:1027CA00B0E00E94C9150895ED2DABE5B2E0F0E046
:1027DA00EE0FFF1FAE0FBF1F0895ED91FD913197C8
:1027EA00FE93EE93089527F8E0E0E0939602E8EC72
:1027FA00EA930C948001AE0FBF1F0E94A2150895A0
:10280A00E0E0E0939602EEE1EA930C948001A0E006
:10281A00B0E00E94B1150895A4E0B0E00E94B51599
:10282A000895F0E0E00DF11D0895D001F0E00E9456
:10283A00AA15EA1BFB0B0895AAE0B0E00E94B115A5
:10284A000895AEE0B0E00E94B5150895A4E1B0E0A5
:10285A000E94B1150895A9E1B0E00E94B515089546
:10286A00E0932202E0912202A0E7B0E00E94C9159B
:10287A000895AEE1B0E00E94B1150895A2E2B0E079
:10288A000E94B5150895E0933402E0913402A1E75D
:10289A00B0E00E94C9150895A8E2B0E00E94B515FB
:1028AA000895AE0FBF1FE0E0F0E00895E02FA09179
:1028BA009D02EA0FE0939D020A930C94C109EA93E0
:1028CA000E94C109EBEFEA930C94C1090A921A9289
:1028DA00FA926A937A938A939A93AA93BA93EA9307
:1028EA00FA93EFB7EA930895E091A002F091A1025A
:1028FA000895FA93EA930C94CA09F0E0E7FDFFEF12
:10290A00F8CFF0E0F6CFE0913502F0913602089563
:10291A00E0911102F09112020895E0912302F091E0
:10292A0024020895E0914702F09148020895E09147
:10293A00A202F091A3020895E091A402F091A502E7
:10294A0008950E94B515EA930C94C109A091A802B2
:10295A00B091A902E4E60E946E150895E091AA02D8
:10296A00F091AB02EA0FFB1F0895A091AC02B0915F
:10297A00AD02E4E60E946E150895E091AE02F09170
:10298A00AF02EA0FFB1F0895A091B002B091B10205
:10299A00E4E60E946E150895E091B202F091B30246
:1029AA00EA0FFB1F0895A091B402B091B502E4E6C4
:1029BA000E946E150895E091B602F091B702EA0FEF
:1029CA00FB1F0895A091B802B091B902E4E60E94F3
:1029DA006E150895E091BA02F091BB02EA0FFB1F4F
:1029EA000895A091BC02B091BD02E4E60E946E1562
:1029FA000895E091BE02F091BF02EA0FFB1F08950D
:102A0A00A091C002B091C102E4E60E946E15089539
:102A1A00E091C202F091C302EA0FFB1F0895A09150
:102A2A00C402B091C502E4E60E946E150895E091D1
:102A3A00C602F091C702EA0FFB1F0895FA93EA93C0
:102A4A000C942D0DF0E0EE57FF4F049008950E946C
:102A5A00B515EA930C94F60CA0E026FCA1E0EA2F47
:102A6A00EE0FEE0F1E2B0895A0E026FEA1E0EA2F3E
:102A7A00EE0F1E2B0895ED2DA3E0EA9FF001EE560E
:102A8A00FF4F0895E6E0EA930C943702FA93EA932B
:102A9A00EAE0EA930C943702F0E0E657FF4F04901D
:102AAA0008955A934A93EECFF195E195F04008952F
:102ABA00EE230E2EFD0121F0F695E7950A94E1F733
:102ACA000895FA9FF02DEB9FF00DEA9FE02DF10D8E
:102ADA0008956E2F6A9FF0016B9FF00D08951FD025
:102AEA00F0DF0EF4E1DF08950024112490E1AA0F2B
:102AFA00BB1F001C111C0E1A1F0A18F40E0E1F1EF3
:102B0A0001C0A1609A9599F7FD01D001089507D0F7
:102B1A00EBDF0EF4C9DF0895E7DFFD010895E894BD
:102B2A00F7FF02C0C1DF6894B7FF06C0A095B09551
:102B3A00119600F8039400FA0895ED91FC9111970B
:102B4A0008950590F491E02D08951B2EBF2FF12DC5
:102B5A001A2EAE2FE12D0895119602D0FE2F11974D
:102B6A00F999FECFFF93FFB7F894A1BDB2BDF89AC9
:102B7A00E0B5FFBFFF91089507D01196EF93EF2FAD
:102B8A0003D0EF9111970895F99B02C0A895FCCF45
:102B9A009FB7F894A1BDB2BDF89A80B5E81719F0AD
:102BAA00E0BDFA9AF99A9FBF089500240A160B0607
:102BBA000895E894EE2309F0689408953A932A93C5
:102BCA001A930A9308953B812A81198108810895ED
:00000001FF
