:0C0000000C948E000C9400000C94000086
:10000C000C9400000C9400000C9400000C94000064
:10001C000C9400000C9400000C9446110C940000FD
:10002C000C9400000C9400000C9400000C94000044
:10003C000C9400000C9479100C9400000C94F30AAE
:10004C000C9400000C9400000C9400000C94000024
:10005C000C9400000C9400000C94000000000800AC
:10006C001000200004008000400000040008004044
:10007C000080001000200002C80005013701690152
:10008C009B01CD0100020040C0E0F0F8FAFEFF1227
:10009C001216FFFF060F00FF161212000A326496AA
:1000AC000000000A120E0A120D0F120E0F120D058F
:1000BC00120E05120D0B120E0B120D100B0C050E61
:1000CC000F0F130A05170E00000000000C009F8193
:1000DC005DD5C3D6DE85DFD74E5E48CB1A4F9EC8A2
:1000EC0040D85A581ED9E60000000C0018010A002E
:1000FC0003000200D40001000002D800180088029E
:10010C00DA000100A402F20008000500F40000006F
:10011C00F894EE27EFBBF1E0F5BFE5BFF8E1A89549
:10012C00A4B7A77FA4BFF0936000E09360008DE0BC
:10013C00A2E0BB27ED938A95E9F780E094E0A0E07C
:10014C00B1E0ED930197E9F7ECEFF0E08591959133
:10015C00009761F0A591B59105901590BF01F00144
:10016C0005900D920197E1F7FB01F0CFE0E0EEBBBB
:10017C00EFEFEDBFE4E0EEBFC0E0D2E00C94F41181
:10018C00E881E0937C008BE18A95F1F7E0917A00AD
:10019C00E064E0937A00E0917A00E071E1F3E091A1
:1001AC007A00E061E0937A00E0917800F0917900B8
:1001BC001DC11A93E0E8E0936100E0E0E093610078
:1001CC00E5B9EFEDE4B9E4E4E8B9E8E3E7B9E0E078
:1001DC00EBB9ECEFEAB9E0E0E4BDE3E0E5BDE0E06B
:1001EC00E6BDE7BDE8BDE0938000E0938100E093BD
:1001FC008500E0938400E0938700E0938600E09311
:10020C008900E0938800E0938B00E0938A00E093F0
:10021C00B600E093B000E7E0E093B100E0E0E093DB
:10022C00B200E093B300E093B400E0936900EDBB3F
:10023C00E0936800E1E0E0936E00E0E0E0936F0093
:10024C00E1E0E0937000E0E0E093C000E8E9E093C7
:10025C00C100E6E0E093C200E0E0E093C500E9E114
:10026C00E093C400E0E8E0BFE0E0E0937B00E093C3
:10027C007E00E0937C00E3E8E0937A000E94A914EE
:10028C00E23010F00E94AE14A4E3B0E00E942A18F1
:10029C00EE2EA6E3B0E00E942A18DE2E0E94B414C3
:1002AC000E94BB1411E0193090F40E94C2140E94F9
:1002BC00C9140E94CE140E94D4140E94DC140E9413
:1002CC00C9140E94E3140E94D4141F5FECCFA0E069
:1002DC00B0E00E9426180E94E914AAE0B0E00E9447
:1002EC0026180E94EE14A4E1B0E00E9426180E9489
:1002FC00F314AEE1B0E00E9426180E94F814A0E3BB
:10030C00B0E00E942A18E0935F02A0915F02A53032
:10031C0038F0E0E0E0935F02A0E3B0E00E943E180A
:10032C0078941D9B0FC0F09A3B98E1E0F0E0FA93B3
:10033C00EA930E94C217339902C0F19801C0F19A56
:10034C003B9A01C0F0982BC01A93F89411E0193025
:10035C00A8F4E12F0E94CE14EA0FFB1F0F010E949C
:10036C00C2140E94FD14E12F0E94E3140E94C914D0
:10037C000E9405150E94FD141F5FE9CFEE2DA4E32A
:10038C00B0E00E943E18ED2DA6E3B0E00E943E18AE
:10039C00E0915F02A0E3B0E00E943E1878941991BE
:1003AC000895A881A13028F0A0E041FCA1E0A03084
:1003BC0009F005C0E881E0938502689441F8E88172
:1003CC00E030A1F441FE04C0A0918502A13008F4F4
:1003DC0006C05C9AE0918502E150E0938502E091C1
:1003EC008502E03019F45C98E89441F82196089560
:1003FC0035FE89C0E89435F8A0918602AF5FA093D2
:10040C008602AD3398F1E0E0E093860236FC2DC015
:10041C00E0916002EF5FE0936002A0916002DA1657
:10042C00E9F437F8689436F8F398F598F798F79953
:10043C0002C02F9801C02F9AE89423F823FC02C025
:10044C005B9801C05B9AE89427F827FC02C02E98B1
:10045C0001C02E9AEEEFEA93A4DF07C0A0916002D0
:10046C00AF5FDA1611F4689437F826C037FE24C053
:10047C00E0918602E13011F0EA3009F402C0E43177
:10048C0009F402C0EE3109F402C0E83209F402C0EA
:10049C00ED3211F4E4E60EC0E23311F0E43309F46A
:1004AC0002C0E63309F402C0E83309F402C0EA33AF
:1004BC0019F4E8ECEA9375DF0E940B15A9F40E947D
:1004CC00101591F40E94151579F4A0E025FCA1E01B
:1004DC00A03051F4A0E021FCA1E0A03029F4A0E070
:1004EC0031FCA1E0A03009F00BC0E0918702EF5F76
:1004FC00E0938702A0918702EA1608F4289803C0BB
:10050C00E0E0E093870208951A930E941A150E9466
:10051C00EE171E2F0E941A150E940618EA83FB8301
:10052C00103029F00E941F150E94271504C00E944C
:10053C001F15A0E0A083AA81BB81EAE0F0E00E9435
:10054C00EE171E2FAA81BB81EAE0F0E00E9406188C
:10055C00EA83FB830E941F150E9427151A81A9812B
:10056C00B0E0AF5FBD4FE12F0E942F15EC931881C7
:10057C0024960895FF9222971A9345980E94341559
:10058C00E983FA83F09B0AC0F19B06C00E943415E4
:10059C00E095F095E983FA83E89401C06894F0F84B
:1005AC0010E0183188F4183030F4F0FC02C0439895
:1005BC0001C0439A05C0F0FE02C0439801C0439AA3
:1005CC000E9440151F5FEDCF449883E08A95F1F7A8
:1005DC00449A31FC44C0A0910002AA3060F0A09172
:1005EC000002AD3040F4A0E0F499A1E0A03019F481
:1005FC000E940B1509F002C0E0E4EB83A09100020D
:10060C00A630B8F0A0910002A93098F40E94101501
:10061C0081F40E94151569F40E94491551F4A0E06B
:10062C0024FCA1E0A03029F4A0E025FCA1E0A0303E
:10063C0009F002C0E0E4EB83A0910002A13060F06D
:10064C00A0910002A43040F40E944E1529F4A0E0C1
:10065C0021FCA1E0A03009F002C0E0E4EB8332FE03
:10066C000DC00E945315A491AF3F31F00E94531559
:10067C00E4910E942F1501C0E0E0EB83F09903C0D8
:10068C00EB81E095EB8310E0183138F5183070F4FD
:10069C00EB81E078EE1FE0E0EE1FE03011F44398C0
:1006AC0001C0439AEB81EE0FEB8313C0E981FA8111
:1006BC00E070F078DF01EFE00E94D217E03011F427
:1006CC00439801C0439AE981FA81EE0FFF1FE98339
:1006DC00FA830E9440151F5FD7CF449883E08A9518
:1006EC00F1F7449A18812496FF900895E091A002A6
:1006FC00E03011F00C94EE04E091A402F091A5020C
:10070C00309711F00C94E9040E94591529F4A0E0DB
:10071C0043FCA1E0A03009F002C0689443F843FE0A
:10072C0066C00E94591511F00C94EF03E091000281
:10073C00E13021F40E946115319647C0E23021F47A
:10074C000E946115329641C0E33021F40E9461157C
:10075C0034963BC0E43021F40E946115389635C0C4
:10076C00E53021F40E94611570962FC0E63021F41B
:10077C000E946115B09629C0E73029F40E946115DA
:10078C00E05CFF4F22C0E83029F40E946115E0586C
:10079C00FF4F1BC0E93029F40E946115E050FF4F58
:1007AC0014C0EA3029F40E946115E050FE4F0DC0D0
:1007BC00EB3029F40E946115E050FC4F06C0EC3080
:1007CC0041F40E946115E050F84FE093A602F093BB
:1007DC00A702A091A802AF5FA093A802AC3039F495
:1007EC00E0E0E093A8020E946615E89443F8A0911B
:1007FC00A802A03039F4A091A602B091A7020E94E1
:10080C004F1808F0BDC00E946115E830A0E0FA074F
:10081C0021F4E4E0E093A00279C0E230A0E0FA0712
:10082C0021F4E2E0E093A00271C0E130A0E0FA070D
:10083C0021F4E3E0E093A00269C0E030A8E0FA07FD
:10084C0021F4E1E0E093A00261C0E031A0E0FA07FE
:10085C0021F4E5E0E093A00259C0E430A0E0FA07EF
:10086C0021F4E6E0E093A00251C0E032A0E0FA07E8
:10087C0021F4E7E0E093A00249C0E034A0E0FA07DD
:10088C0021F4E8E0E093A00241C0E030A1E0FA07D7
:10089C0021F4ECE0E093A00239C0E030A4E0FA07C8
:1008AC0021F4EAE0E093A00231C0E030A2E0FA07C4
:1008BC0021F4EBE0E093A00229C0E038A0E0FA07B5
:1008CC0021F4E9E0E093A00221C0E330A6E0FA07AE
:1008DC0051F40E946D1531F4EEE0E093A002E0E0DB
:1008EC00E093A10213C0E130A2E0FA0779F40E9470
:1008FC006D1529F4A0E031FCA1E0A03009F006C090
:10090C00EDE0E093A002E0E0E093A10237FE06C028
:10091C00EFE0E093A002EEEFEA9343DDA091A0029A
:10092C00A13028F0E0E0E0936002E89437F842FC54
:10093C0010C0E091A202EF5FE093A2020E94661544
:10094C00A091A202A53029F4689442F8E0E0E0936B
:10095C00A20242FE10C0E0915F02F0E0E855FF4FAA
:10096C00E491F0E0E093A402F093A502E091A402DC
:10097C00EB5FE093A302E0E0E093A602E093A70212
:10098C00A0910002AC3059F4A091A202A13038F031
:10099C00A091A902AF5FA093A902AB3008F407C0E5
:1009AC00E0E0E093A902E093A202E093A10242FEF0
:1009BC0009C0E091A302E150E093A302E03011F4EE
:1009CC00E89442F805C0A4EAB2E00E94761531968C
:1009DC0008950E9458180E947C15AA85BB85AE1BF1
:1009EC00BF0BE885F985AE1BBF0BE4E6F0E00E9477
:1009FC00E9170F01AC85BD85E885F985EA1BFB0B72
:100A0C00D0010E9401188F01112342F00E9483151E
:100A1C00AE2FEE810E948815E02F08C00E9483152E
:100A2C00AE810E948F15E01BF10BF0E0EF5F5E2FA3
:100A3C000E947C15BF01F801AC85BD850E94E917A9
:100A4C00DF01E4E6F0E00E940118DB01AE1BBF0BF6
:100A5C009D01332342F00E948315AE2FEF810E943B
:100A6C008815422F08C00E948315AF810E948F15F4
:100A7C00E21BF30B4E2FE1E0E71519F0E2E0E7156E
:100A8C0049F4E42FA7E1B0E00E943E18E52FA6E15F
:100A9C00B0E02CC0E3E0E71519F0E4E0E71549F409
:100AAC00E42FA1E2B0E00E943E18E52FA0E2B0E0F6
:100ABC001DC0E5E0E71519F0E6E0E71549F4E42F71
:100ACC00A3E0B0E00E943E18E52FA2E0B0E00EC01B
:100ADC00E7E0E71519F0E8E0E71551F4E42FADE095
:100AEC00B0E00E943E18E52FACE0B0E00E943E184A
:100AFC000E945F1860960895A091A002A23041F464
:100B0C007394ECE0E71510F4E1E07E2EE89433F8F2
:100B1C00A091A002A33041F47A94E1E07E1610F487
:100B2C00ECE07E2EE89433F8A091A002AC3011F0EA
:100B3C000C94DF0533FE3DC0E1E0E71519F0E2E06F
:100B4C00E71529F40E9497150E94A01520C0E3E038
:100B5C00E71519F0E4E0E71529F40E9497150E94B7
:100B6C00A51515C0E5E0E71519F0E6E0E71529F441
:100B7C000E9497150E94AA150AC0E7E0E71519F024
:100B8C00E8E0E71531F40E9497150E94AF15A08399
:100B9C00B183E1E07E1618F0E8E0E71508F407C031
:100BAC00E72D0E940515EA0FFB1FB082C182E89465
:100BBC0033F8A091A002A430C9F5A0E033FCA1E069
:100BCC000E94B41533F8E1E0E71519F0E2E0E715FF
:100BDC0031F40E94B9150E948315EF7C23C0E3E029
:100BEC00E71519F0E4E0E71531F40E94C3150E94F3
:100BFC008315E37F17C0E5E0E71519F0E6E0E7158C
:100C0C0031F40E94CD150E948315EF730BC0E7E001
:100C1C00E71519F0E8E0E71549F40E94D7150E9492
:100C2C008315EC7FA2E3B0E00E943E18A091A002D5
:100C3C00A530F1F5E2E0E71589F4A0E0F799A1E021
:100C4C00E1E0EA2711F4F79801C0F79A689421F8CB
:100C5C00F79902C02F9801C02F9A2AC0E4E0E7153B
:100C6C0071F4A0E023FCA1E00E94B41523F8689471
:100C7C0025F823FC02C05B9801C05B9A19C0E6E022
:100C8C00E71551F4A0E0F399A1E0E1E0EA2711F4B3
:100C9C00F39801C0F39A0CC0E8E0E71549F4A0E022
:100CAC00F599A1E0E1E0EA2711F4F59801C0F59A75
:100CBC00A091A002A73011F00C94AB0633FE34C007
:100CCC0034FE2DC0E1E07E1618F0E8E0E71508F4DC
:100CDC000AC0E4EFF1E09E16AF0620F4EAE0F0E083
:100CEC009E0EAF1E1CC0EAE0E71529F4E3E6DE1603
:100CFC0008F4D39414C0EBE0E71529F4ECE3EE16FA
:100D0C0008F4E3940CC0ECE0E71549F4A0915F0201
:100D1C00A33028F4E0915F02EF5FE0935F026894E8
:100D2C0034F8EFE08E2E0CC00E94E1150E941718CB
:100D3C00E032A3E0FA0720F40E94E1150E94EA15C4
:100D4C00E9E0E71511F40E94AE14A091A002A630C0
:100D5C0011F00C94F90633FE34C034FE2DC0E1E0E2
:100D6C007E1618F0E8E0E71508F40BC0E2E3F0E0BB
:100D7C00E915FA0528F4E92DFA2D3A979E2EAF2E97
:100D8C001BC0EAE0E71521F4ED1508F4DA9414C061
:100D9C00EBE0E71529F4E5E0EE1508F4EA940CC055
:100DAC00ECE0E71549F4A0915F02A13028F0E09146
:100DBC005F02E150E0935F02689434F8EFE08E2E0E
:100DCC000AC00E94E1150E941718329720F00E9469
:100DDC00E1150E947615E9E0E71529F4A8E1B0E0E9
:100DEC00E0E00E943E18A091A002A13029F4A0E0FE
:100DFC0033FCA1E0A03009F08EC0A6DAE1E0E715E3
:100E0C0019F0E2E0E715E1F4E0917502F091760259
:100E1C00FA93EA93E0916302F0916402FA93EA93F5
:100E2C00E0917702F0917802FA93EA93E0916502EF
:100E3C00F0916602FA93EA93E0E2EA93E0E165C08E
:100E4C00E3E0E71519F0E4E0E715E1F4E09179024D
:100E5C00F0917A02FA93EA93E0916702F0916802BA
:100E6C00FA93EA93E0917B02F0917C02FA93EA9375
:100E7C00E0916902F0916A02FA93EA93E8E0EA934E
:100E8C00E4E043C0E5E0E71519F0E6E0E715E1F42E
:100E9C00E0917D02F0917E02FA93EA93E0916B026D
:100EAC00F0916C02FA93EA93E0917F02F091800248
:100EBC00FA93EA93E0916D02F0916E02FA93EA9341
:100ECC00E0E8EA93E0E421C0E7E0E71519F0E8E098
:100EDC00E715E9F4E0918102F0918202FA93EA932A
:100EEC00E0916F02F0917002FA93EA93E091830221
:100EFC00F0918402FA93EA93E0917102F0917202FC
:100F0C00FA93EA93E1E0EA93E2E0EA9362DDE89493
:100F1C0031F80E94F015E1E07E1618F0E8E0E715D4
:100F2C0008F43FC0A091A002AA30E1F433FE0AC03D
:100F3C00E4EFF1E0BE16CF0620F4E1E0F0E0BE0EE7
:100F4C00CF1E10C0E72D0E9405150E94F715E03248
:100F5C00A3E0FA0738F4E72D0E940515AE0FBF1F6A
:100F6C000E94EA15A091A002AB30D9F433FE0BC05D
:100F7C00EAE0F0E0EB15FC0528F4EB2DFC2D3197A5
:100F8C00BE2ECF2E0EC0E72D0E9405150E94F71520
:100F9C00329738F0E72D0E940515AE0FBF1F0E9447
:100FAC007615A091A002A13028F0A0E037FCA1E0BA
:100FBC00A03009F002C00E94FC1508951A93A0916C
:100FCC00A002A93049F4A0E0F399A1E0E1E0EA27FE
:100FDC0011F4F39801C0F39AA091A002AA3011F079
:100FEC00AB3011F4F39901C02DC0F49B22C0A09139
:100FFC00A002AA3031F40E940316A039E1E0BE072A
:10100C0008F006C00E9408160E940D160E94E914F2
:10101C00A091A002AB3031F40E940316A536E0E09B
:10102C00BE0708F406C00E9408160E9411160E9402
:10103C00E914F49AEFE08E2E0E941716A0E0B0E0AF
:10104C000E943618A091A002AC3041F40E941515F4
:10105C0029F4A0E024FCA1E0A03009F009C0A0E034
:10106C00F599A1E0E1E0EA2711F4F59801C0F59AB1
:10107C00A091A002A73011F0A63011F4F59901C08F
:10108C002DC0F69B22C0A091A002A73031F40E9483
:10109C001C16A039E1E0BE0708F006C00E9421161C
:1010AC000E940D160E94EE14A091A002A63031F4FD
:1010BC000E941C16A536E0E0BE0708F406C00E948C
:1010CC0021160E9411160E94EE14F69AEFE08E2E55
:1010DC000E942616AAE0B0E00E943618A0E03299D1
:1010EC00A1E0A03031F4F79B04C00E94A914E130B8
:1010FC0009F003C0E1E0E093A002A091A002A130AE
:10110C0019F5A0E0F799A1E0E1E0EA2711F4F798CE
:10111C0001C0F79A689421F80E94B414A0E03299A7
:10112C00A1E0A03021F40E94A914E13009F001C023
:10113C00F798F79B08C00E94A015A83AE2E0BE07FA
:10114C0008F42F9A01C02F98F79B61C0A091A002C0
:10115C00A23019F0A33009F04DC022FC2DC020FEA6
:10116C0020C0A091A002A23031F40E942B16A23C08
:10117C00E1E0BE0708F006C00E9430160E940D1672
:10118C000E94F314A091A002A33021F40E942B160C
:10119C00D39708F406C00E9430160E9411160E94C4
:1011AC00F314689420F8EFE08E2E0E943516A4E11B
:1011BC00B0E00E9436181EC0A091A002A23021F40B
:1011CC00A0912502A73008F005C0E0912502EF5F41
:1011DC000E943A16A091A002A33021F4A0912502FE
:1011EC00A23008F405C0E0912502E1500E943A16A5
:1011FC00EFE08E2EA091A002A43041F4A0E022FCDE
:10120C00A1E00E94B41522F8EFE08E2E19C0F799D8
:10121C0017C0A0911702B0911802999740F0A091B5
:10122C001702B0911802A935E2E0BE0710F0E8945D
:10123C0021F821FE05C0689420F8E7E0E093250230
:10124C00A091A002A53031F40E94151519F40E944A
:10125C00101509F015C0A0E023FCA1E00E94B41504
:10126C0023F8689425F823FE08C00E94A515A83A17
:10127C00E2E0BE0708F45B9A01C05B980E94BB14C5
:10128C0023FC2DC0A091A002A83069F4A0E027FC9B
:10129C00A1E00E94B41527F827FC02C02E9801C0CB
:1012AC002E9AE89424F8A0912A02B0912B029997D7
:1012BC0040F0A0912A02B0912B02A935E2E0BE07C2
:1012CC0010F0E89425F825FE03C00E94151509F0CE
:1012DC0005C0689424F8E7E0E093380262C023FE6E
:1012EC0060C0A091A002A73019F0A63009F04DC043
:1012FC0026FC2DC024FE20C0A091A002A73031F402
:10130C000E944316AC32E1E0BE0708F006C00E9412
:10131C0048160E940D160E94F814A091A002A63047
:10132C0021F40E944316D39708F406C00E94481675
:10133C000E9411160E94F814689424F8EFE08E2E87
:10134C000E944D16AEE1B0E00E9436181EC0A0916E
:10135C00A002A73021F4A0913802A73008F005C0F4
:10136C00E0913802EF5F0E945216A091A002A630C5
:10137C0021F4A0913802A23008F405C0E0913802A3
:10138C00E1500E945216EFE08E2EA091A002A830E0
:10139C0041F4A0E026FCA1E00E94B41526F8EFE091
:1013AC008E2E27FE20C0A091A002A73021F40E940F
:1013BC005B16E43608F007C00E945B16EB5FA8E2F0
:1013CC00B0E00E943E18A091A002A63021F40E9429
:1013DC005B16EB3008F407C00E945B16E550A8E2E0
:1013EC00B0E00E943E18A091A002AE3031F40E94F1
:1013FC004E1519F40E940B1509F08FC0689432F841
:10140C00E9E18E2EA0E0B0E0E6EEF0E00E943618A6
:10141C000E94E9140E94CD15A4E0B0E0E5E00E9422
:10142C003E18AAE0B0E0E1EEF0E00E9436180E940F
:10143C00EE140E94D715AEE0B0E0E5E00E943E1835
:10144C00A4E1B0E0E8E1F1E00E9436180E94F31448
:10145C000E94B915A9E1B0E0EAE00E943E18AEE1A5
:10146C00B0E0E8E7F0E00E9436180E94F8140E9401
:10147C00C315A2E2B0E0EAE00E943E18A8E2B0E098
:10148C00E2E30E943E18A2E3B0E0E0E00E943E18C6
:10149C00F8940E94AE14EFE0EE2EA4E3B0E00E94AC
:1014AC003E18EEE1DE2EA6E3B0E00E943E18E7E027
:1014BC00E0932502A0E7B0E00E943E18E0933802CA
:1014CC00A1E7B0E00E943E1810E01930E0F40E9451
:1014DC00C2140E946016ED93FC93E12F0E94CE146F
:1014EC000E9460160E9436180E94DC140E9460163E
:1014FC00ED93FC93E12F0E94E3140E9460160E946E
:10150C0036181F5FE2CFA0E3B0E0E0E00E943E1887
:10151C00E0935F0278940E94F015A091A002AD3088
:10152C0099F40E940B1549F40E94101531F40E9495
:10153C004E1519F40E94491509F006C0689431F84B
:10154C00EBE07E2E0E94F015A091A002A13010F0CD
:10155C000E94FC1519910895E091C000E072E1F32E
:10156C00E881E093C600219608951A930A930E948D
:10157C001A150E94EE178F010E9465160A93ECDF74
:10158C00A4E6A09FF001A19FF00DAA81BB81AE1B28
:10159C00BF0B8D010E94651610C01A930A93EA8145
:1015AC00FB81E0708F01012F112707FD10950A9325
:1015BC00D3DFEA81FB81F0708F010A93CDDF1981B3
:1015CC00088124960895EFE4EA93C6DFEBE4EA93EE
:1015DC00C3DFEBEFEA93C0DF08950E946C160E9404
:1015EC005A183FB7F8941091C6003FBF1C3F51F4F6
:1015FC00E0E0E093DD02E093AB02E093AC02E09319
:10160C00AA0272C3E091DD02ABEAB2E00E947A1644
:10161C00AE0FBF1FE12FF0E0ED93FC93E091DD02E4
:10162C00A091AB02B091AC02F0E0EA17FB0721F4F9
:10163C00A091DD02A13008F452C30E947E16E6355B
:10164C00A0E0FA0711F00C946C0BE6E5EA9384DF4A
:10165C00E6E5EA9381DFE0E3EA937EDF0E948316FE
:10166C000E9417160E948B160E948F160E949416C9
:10167C000E9499160E949E160E94A3160E9435166F
:10168C000E948B160E94A8160E94AD160E94B216DC
:10169C000E94B7160E94BC160E944D160E948B1613
:1016AC000E94C1160E94C6160E94CB160E94D0162C
:1016BC000E94D5160E9426160E948B160E94DA16DE
:1016CC000E94DF160E94E4160E94E9160E947E1604
:1016DC00E234A0E0FA0721F4E091AF02E093A0021B
:1016EC000E947E16E035A0E0FA0731F40E94EE1657
:1016FC00E337A0E0FA0709F01FC00E94F316E133AC
:10170C00A0E0FA0789F4F29AA091B302B091B40266
:10171C00E4E60E94E3175E2E6F2EE091B502F09185
:10172C00B6025E0E6F1E07C00E94F316E033A0E0F7
:10173C00FA0709F4F29847DF0E947E16ED34A0E018
:10174C00FA0709F440DF0E947E16EB34A0E0FA079A
:10175C0011F00C944E0C0E94EE16EF33A0E0FA0739
:10176C0011F00C94F80BEBE6EA93F6DEE6E6EA935E
:10177C00F3DEEEE0EA93F0DEA3E0B0E00E94F816B0
:10178C00A2E0B0E00E94F816A7E1B0E00E94F816C3
:10179C00A6E1B0E00E94F816A1E2B0E00E94F816B3
:1017AC00A0E2B0E00E94F816ADE0B0E00E94F8169E
:1017BC00ACE0B0E00E94F8160E948315F0E00E94A5
:1017CC00FD16A4E0B0E00E94F816A9E1B0E00E947A
:1017DC00F816A2E2B0E00E94F816AEE0B0E00E946B
:1017EC00F81656C00E94EE16E132A0E0FA0711F08E
:1017FC000C944E0CE091B102A3E0B0E00E943E18B4
:10180C00E091B302A2E0B0E00E943E18E091B50274
:10181C00A7E1B0E00E943E18E091B702A6E1B0E06B
:10182C000E943E18E091B902A1E2B0E00E943E187D
:10183C00E091BB02A0E2B0E00E943E18E091BD0234
:10184C00ADE0B0E00E943E18E091BF02ACE0B0E029
:10185C000E943E18E091C102A2E3B0E00E943E1843
:10186C00E091C302A4E0B0E00E943E18E091C502F2
:10187C00A9E1B0E00E943E18E091C702A2E2B0E0FC
:10188C000E943E18E091C902AEE0B0E00E943E1802
:10189C000E947E16EA35A0E0FA0731F40E94EE169B
:1018AC00E435A0E0FA0709F046C10E94F316EF33C5
:1018BC00A0E0FA0709F5EAE7EA934EDEE4E7EA93DB
:1018CC004BDE01E0093058F4E02FA1E6B2E00E94B3
:1018DC007A160E94F7150E94FD160F5FF3CF01E0F8
:1018EC00093048F4E02F0E9405150E94F7150E945C
:1018FC00FD160F5FF5CF1CC10E94F316E132A0E07C
:10190C00FA0711F00C94A10DE091B302F091B4021E
:10191C00E335A0E0FA0711F00C94140D0E940117A6
:10192C00E0936302F0936402A0916302B0916402AD
:10193C000E940917E0936302F09364020E9410174F
:10194C00E0936502F0936602A0916502B091660285
:10195C000E941817E0936502F09366020E941F170D
:10196C00E0936702F0936802A0916702B09168025D
:10197C000E942717E0936702F09368020E942E17CB
:10198C00E0936902F0936A02A0916902B0916A0235
:10199C000E943617E0936902F0936A020E943D1789
:1019AC00E0936B02F0936C02A0916B02B0916C020D
:1019BC000E944517E0936B02F0936C020E944C1747
:1019CC00E0936D02F0936E02A0916D02B0916E02E5
:1019DC000E945417E0936D02F0936E020E945B1705
:1019EC00E0936F02F0937002A0916F02B0917002BD
:1019FC000E946317E0936F02F09370020E946A17C3
:101A0C00E0937102F0937202A0917102B091720294
:101A1C000E947217E0937102F0937202E091B3028C
:101A2C00F091B402E235A0E0FA0711F00C949E0D8F
:101A3C000E940117E0937502F0937602A091750253
:101A4C00B09176020E940917E0937502F09376022A
:101A5C000E941017E0937702F0937802A09177021E
:101A6C00B09178020E941817E0937702F0937802F5
:101A7C000E941F17E0937902F0937A02A0917902E9
:101A8C00B0917A020E942717E0937902F0937A02C0
:101A9C000E942E17E0937B02F0937C02A0917B02B4
:101AAC00B0917C020E943617E0937B02F0937C028B
:101ABC000E943D17E0937D02F0937E02A0917D027F
:101ACC00B0917E020E944517E0937D02F0937E0256
:101ADC000E944C17E0937F02F0938002A0917F024A
:101AEC00B09180020E945417E0937F02F093800221
:101AFC000E945B17E0938102F0938202A091810215
:101B0C00B09182020E946317E0938102F0938202EB
:101B1C000E946A17E0938302F0938402A0918302DF
:101B2C00B09184020E947217E0938302F0938402B6
:101B3C00EBEFEA9311DD0E947E16E035A0E0FA0788
:101B4C0031F40E94EE16EF34A0E0FA0709F031C030
:101B5C000E94F316EF33A0E0FA0789F4E0E7EA936A
:101B6C00FBDCEFE6EA93F8DCE3E0EA93F5DCEA92DF
:101B7C00F3DCDA92F1DCE7D6EA93EEDC1AC00E94D1
:101B8C00F316E132A0E0FA07A1F4E090B302EE2DD7
:101B9C00A4E3B0E00E943E18D090B502ED2DA6E370
:101BAC00B0E00E943E18E091B702A8E1B0E00E94BC
:101BBC003E180E947E16E035A0E0FA0731F40E9430
:101BCC00EE16E434A0E0FA0709F089C0E0E7EA93E6
:101BDC00C3DCE4E6EA93C0DCE4E6EA93BDDCE0E1D6
:101BEC00EA93BADC0E94F316E634A0E0FA07C9F4D3
:101BFC000E94A8160E9435160E948B160E94A316EE
:101C0C000E94B7160E94AD160E94B216E0911F02F8
:101C1C00F09120020E948B16E0912102F091220299
:101C2C005BC00E94F316E035A0E0FA07C9F40E94ED
:101C3C00C1160E944D160E948B160E94BC160E9463
:101C4C00D0160E94C6160E94CB16E0913202F0917B
:101C5C0033020E948B16E0913402F09135023CC0A5
:101C6C000E94F316E335A0E0FA07C9F40E948F1620
:101C7C000E9417160E948B160E9483160E949E16B5
:101C8C000E9494160E949916E0914502F09146022A
:101C9C000E948B16E0914702F09148021DC00E94F1
:101CAC00F316E534A0E0FA07D1F40E94DA16C8D78F
:101CBC000E948B160E94D5160E94E9160E94DF1610
:101CCC000E94E416E0915802F09159020E948B1682
:101CDC00E0915A02F0915B02FA93EA935EDCE09198
:101CEC00DD02EF5FE093DD020E946118249668C369
:101CFC000E945A18EC81A885B985F0E00E94DB1788
:101D0C00DF01E4E6F0E00E94EE178F01F6D6AD811C
:101D1C00EA23AE2FED81EA1729F4E885F985E01B5B
:101D2C00F10B05C0F801A885B985EA0FFB1F9F01CF
:101D3C00E4D6AF81EA23AE2FEF81EA1721F4EE81CE
:101D4C00D90169D704C0EE81F0E0E20FF31F0E94C5
:101D5C0061182A9608950E94581831FE04C0A8896B
:101D6C00B9899D92AC92AC85BD850E941718AE8145
:101D7C00BF81ED93FC93A889B9890D901C900E94AA
:101D8C007917D001AE1BBF0B8D01F801A2E1B0E0B9
:101D9C000E94E917DF01EAE0F0E00E940118AC852F
:101DAC00BD85ED93FC93AC85BD850D901C90AE81EB
:101DBC00BF810E941718D001AE1BBF0BE2E0F0E010
:101DCC000E94E917A885B985ED93FC930436E0E0F1
:101DDC001E0724F40230E0E01E070CF407C0AA85AD
:101DEC00BB85ED91FD913196FE93EE93E6E0FFEF0E
:101DFC00E017F10724F40F3FEFEF1E070CF007C0BC
:101E0C00AA85BB85ED91FD913197FE93EE930E94CF
:101E1C007E17EC30AEEFFA0734F4AA85BB85ECE004
:101E2C00FEEFED93FC930E947E17E53CA9E0FA07C8
:101E3C0034F0AA85BB85E4ECF9E0ED93FC930E94A9
:101E4C007E17DF01E5E0F0E00E9401189F01AE81F2
:101E5C00BF810D901C90AC85BD850E941718E00DBC
:101E6C00F11DE20FF31F0F01A885B9850E94171809
:101E7C00E00DF11D8F010E947917E53FA1E0FA07F3
:101E8C0020F40130E0E01E0714F400E010E0A8019B
:101E9C000E947917F29718F444E650E006C04F3FC1
:101EAC00E1E05E0710F04EEF51E0FA010E945F187E
:101EBC0062960895F299E2C0F79B05C03BD6A83A0A
:101ECC00E2E0BE0708F019C0E5E1F2E0FA93EA930C
:101EDC00E7E1F2E0FA93EA93EBE1F2E0FA93EA93AA
:101EEC00EDE1F2E0FA93EA93EFE1F2E0FA93EA9390
:101EFC00E1E2F2E00E94831702C0E0E0F0E0E09340
:101F0C001902F0931A0221FE0AC0E0912502A2E800
:101F1C00B0E0EAD6EA0FFB1F0E941B1802C0E0E0FB
:101F2C00F0E0E0932302F093240279D539F423FEF8
:101F3C0005C005D6A83AE2E0BE0708F018C0E8E2F2
:101F4C00F2E0FA93EA93EAE2F2E0FA93EA93EEE231
:101F5C00F2E0FA93EA93E0E3F2E0FA93EA93E2E335
:101F6C00F2E0FA93EA93E4E3F2E0C7D702C0E0E0D0
:101F7C00F0E0E0932C02F0932D0225FE0AC0E091D4
:101F8C003802A2E8B0E0B0D6EA0FFB1F0E941B1883
:101F9C0002C0E0E0F0E0E0933602F0933702F39BEE
:101FAC0005C0D2D5A83AE2E0BE0708F018C0EBE3B2
:101FBC00F2E0FA93EA93EDE3F2E0FA93EA93E1E4C8
:101FCC00F2E0FA93EA93E3E4F2E0FA93EA93E5E4BD
:101FDC00F2E0FA93EA93E7E4F2E08FD702C0E0E094
:101FEC00F0E0E0933F02F0934002F59B05C0B1D5C1
:101FFC00A83AE2E0BE0708F018C0EEE4F2E0FA936B
:10200C00EA93E0E5F2E0FA93EA93E4E5F2E0FA937E
:10201C00EA93E6E5F2E0FA93EA93E8E5F2E0FA9364
:10202C00EA93EAE5F2E069D702C0E0E0F0E0E09381
:10203C005202F093530227FE02C025D509F018C0B6
:10204C0034D6F0E0E0930E02F0930F02E0910E0212
:10205C00F0910F02EE0FFF1FFE2FE0E0DF01E4E630
:10206C00F0E00E94EE17E0931002F093110205C00D
:10207C00E0E0E0931002E093110234C0F39B05C042
:10208C0050923F026092400206C0E0E0F0E0E09324
:10209C003F02F0934002F59B05C0509252026092B1
:1020AC00530206C0E0E0F0E0E0935202F0935302DA
:1020BC00F79B05C05092190260921A0206C0E0E02C
:1020CC00F0E0E0931902F0931A0223FE05C050923F
:1020DC002C0260922D0206C0E0E0F0E0E0932C02AE
:1020EC00F0932D020895AA93BA93EA93FA93EFB75B
:1020FC00EA93EBEFE6BDE0911202E23011F00C94A2
:10210C003011A0911902B0911A02129730F0A091DF
:10211C001902B0911A02F5D608F001C02A9AE09182
:10212C001902F0911A02F4D609F42A98A09123020C
:10213C00B0912402129730F0A0912302B0912402A6
:10214C00E0D608F001C05D9AE0912302F0912402E0
:10215C00DFD609F45D98A0913F02B091400212972E
:10216C0030F0A0913F02B0914002CBD608F001C0F4
:10217C00299AE0913F02F0914002CAD609F42998BD
:10218C00A0915202B0915302129730F0A0915202DA
:10219C00B0915302B6D608F001C05A9AE09152029F
:1021AC00F0915302B5D609F45A98A0911002B0914F
:1021BC001102129758F0E091DE02F091DF02A0912B
:1021CC001002B0911102EA17FB0708F001C02B9A1C
:1021DC00E0911002F09111029BD609F42B98A0917A
:1021EC002C02B0912D02129730F0A0912C02B091DC
:1021FC002D0287D608F001C02C9AE0912C02F091A8
:10220C002D0286D609F42C98A0913602B091370293
:10221C00129730F0A0913602B091370272D608F0C6
:10222C0001C05E9AE0913602F091370271D609F442
:10223C005E98AEEDB2E0C8D4EF3FA1E0FA0749F4E6
:10224C00E0E0E0931202689440F8E093DE02E09341
:10225C00DF020FC0E03069F4A091E002AF5FA09301
:10226C00E002A63530F0E1E0E0931202E0E0E0930A
:10227C00E002E991EFBFF991E991B991A991189513
:10228C0025D5E5EFE093B20031FC03C00E94E407D2
:10229C0002C00E948205A2EEB2E096D4ED3BA2E011
:1022AC00FA0738F0689435F8E0E0E093E202E09346
:1022BC00E302E0910002E150E0930002A0910002E1
:1022CC00A13018F4ECE0E09300020E947C03E0E003
:1022DC00EA930E94D70130FE02C0F49901C00AC0F3
:1022EC00A0910002AA3020F0A0910002AD3008F0BD
:1022FC0001C001C002C0E0E043C030FE04C0C3D343
:10230C0011F4F69901C00AC0A0910002A63020F089
:10231C00A0910002A93008F001C001C002C0E0E0A9
:10232C002FC030FE02C020FC01C00AC0A0910002E8
:10233C00A13020F0A0910002A43008F001C001C02F
:10234C0002C0E0E01DC030FE05C024FC02C034FE1B
:10235C0001C001C00CC05ED351F4A0910002A630A4
:10236C0020F0A0910002A93008F001C001C002C009
:10237C00E0E006C0E0910002F0E0EF5FFD4FE0818D
:10238C00EA930E94C002A091E102AF5FA093E10228
:10239C00A536B0F0E0E0E093E102A0E030FCA1E073
:1023AC00DDD330F8E0E0E81510F48A9409C0F49815
:1023BC00F698E89420F824F822F826F834F832F845
:1023CC00E991EFBFF991E991B991A991999189910D
:1023DC0079916991F99019900990189524970E9418
:1023EC00DF00289A0E94FE01A0911202A13019F57B
:1023FC00E7E0EA930E94C600E0933902F0933A02B8
:10240C00E1E0EA930E94C600E0934C02F0934D0287
:10241C00E6E0EA930E94C600E0931302F0931402E4
:10242C00E0E0EA930E94C600E0932602F0932702B4
:10243C00E2E0E0931202A0911202A03011F440FCF1
:10244C0001C05BC0E89440F8E0913902F0913A0287
:10245C00FA93EA93E0E8EA93A3E0B0E00E942A182A
:10246C00EA93E0E4EA93A2E0B0E059D5E0933D02B0
:10247C00F0933E02E0914C02F0914D02FA93EA93F4
:10248C00E2E0EA93ADE0B0E00E942A18EA93E1E0C2
:10249C00EA93ACE0B0E043D5E0935002F0935102E4
:1024AC00E0911302F0911402FA93EA93E0E2EA93BA
:1024BC00A7E1B0E00E942A18EA93E0E1EA93A6E1D2
:1024CC00B0E02DD5E0931702F0931802E0912602AC
:1024DC00F0912702FA93EA93E8E0EA93A1E2B0E0E4
:1024EC000E942A18EA93E4E0EA93A0E2B0E017D540
:1024FC00E0932A02F0932B02DDDC10E0F39B34C056
:10250C00F49B02C08ED304C0E0913D02F0913E02D8
:10251C00EA83FB8386D33397AA81BB81AE17BF07AF
:10252C0010F4106420C07DD33396AA81BB81EA17C6
:10253C00FB07C0F4A0E030FCA1E0EA2FE295E07FBD
:10254C00EE0FEE0F1E2BAA81BB81A139E1E0BE0775
:10255C0040F0A0E030FEA1E0EA2FE295E07FEE0F24
:10256C001E2B01C0106201C01060F59B20C0F69BB1
:10257C0005C040914E0250914F0204C04091500250
:10258C00509151025DD333974E175F0710F41460CE
:10259C000DC056D33396E417F50738F4C5D441393A
:1025AC00E1E05E0708F0C8D401C0126001C0106001
:1025BC00F79B2BC020FE05C020911502309116020E
:1025CC0004C0209117023091180249D333972E176B
:1025DC003F0710F4186018C042D33396E217F30784
:1025EC0090F4A0E030FCA1E0EA2FEE0FEE0FEE0F1E
:1025FC001E2B2D3BE2E03E0728F0A0E030FEA1E0D0
:10260C00EA2F1E2B01C0116007C021FE04C02091CF
:10261C00170230911802106023FE20C024FE05C062
:10262C00409128025091290204C040912A025091F5
:10263C002B022DD333974E175F0710F414600DC087
:10264C0026D33396E417F50738F46ED44D3BE2E00D
:10265C005E0708F071D401C012600AC024FE02C0EB
:10266C0025FC01C004C040912A0250912B0210603D
:10267C00A0910002A43011F00C94A7141093060240
:10268C0031FED0C060D4E491E4D1E09302025BD47B
:10269C003196E491DED1E093030255D43296E49165
:1026AC00D8D1E093040233FE48C0E1E0E71519F0FD
:1026BC00E2E0E71561F434FE03C09882A98206C0FB
:1026CC00E0911302F0911402E883F98335C0E3E042
:1026DC00E71519F0E4E0E71561F434FE03C09882C5
:1026EC00A98206C0E0912602F0912702E883F983C3
:1026FC0023C0E5E0E71519F0E6E0E71561F434FED8
:10270C0003C09882A98206C0E0913902F0913A0286
:10271C00E883F98311C0E7E0E71519F0E8E0E71565
:10272C0059F434FE03C09882A98206C0E0914C0291
:10273C00F0914D02E883F98305C03DD20E94171831
:10274C00E883F983EAE0E71511F4ED2D0AC0EBE01C
:10275C00E71511F4EE2D05C0ECE0E71529F4E09136
:10276C005F02F0E0E883F983E9E0E715B1F4E0916A
:10277C008802E0930702E7D0E13031F4E09199024E
:10278C00E0930802E0E006C0E0919202E0930802B8
:10279C00E0919202E093090215C0ECE0E71569F4B0
:1027AC00E0919C02E0930702E0E0E0930802E091E4
:1027BC005F024FD1E093090205C0E881F981FA93D9
:1027CC00EA93C8D333FC05C0A9E0B2E0EC91E06217
:1027DC00EC9333FE03C0B882C98205C0E72D0FD13C
:1027EC0000D2E883F983E9E0E71549F0EAE0E71560
:1027FC0031F0EBE0E71519F0ECE0E71541F4E0E01F
:10280C00E0930B02E0930C02E0930D020AC0E88106
:10281C00F981A4D333FC05C0ADE0B2E0EC91E062E9
:10282C00EC938FC087D1A93AE2E0BE0768F0E09143
:10283C009302E0930202E0919402E0930302E09190
:10284C009402E093040222C021FC02C0F79B06C054
:10285C00E091250289D30092050203C0E0E0E093E9
:10286C00050222FE0DC0E0919202E0930202E0E428
:10287C00E0930302E0912502ECD0E093040206C041
:10288C003A932A93E1E0EA930E948A0258D1A93A3A
:10289C00E2E0BE0710F023FC08C05BD1A93AE2E0ED
:1028AC00BE0710F0F59901C00DC0E0919302E093C2
:1028BC000702E0919402E0930802E0919402E09305
:1028CC00090228C023FC02C025FE06C0E091380294
:1028DC004BD300920A0203C0E0E0E0930A0223FC0F
:1028EC0002C024FE10C026FE0DC0E0919202E093BF
:1028FC000702E0E4E0930802E0913802AAD0E093EA
:10290C00090201C036D3F59934D327FE03C0CDD1CB
:10291C004E2F552727FC2DD317D1A93AE2E0BE073D
:10292C0068F0E0919302E0930B02E0919402E09343
:10293C000C02E0919402E0930D0203C0EA81FB814A
:10294C000DD350CDFFCFA8E1B0E00E942A18089516
:10295C00A8E1B0E0E1E00E943E180895A0E7B0E0E5
:10296C000E942A18E09325020895A1E7B0E00E9486
:10297C002A18E09338020895E12FA1E6B2E0F0E0C6
:10298C00EE0FFF1F0895EA0FFB1F0F01E12F0895B3
:10299C00ACE3B0E0F0E0EE0FFF1F0895AE0FBF1FE9
:1029AC000E942618D001ED93FC930895E12FA3E724
:1029BC00B2E0F0E0EE0FFF1F0895AAE5B0E0F0E002
:1029CC00EE0FFF1F0895E0933B02F0933C02089535
:1029DC00E0934E02F0934F020895E0931502F093AA
:1029EC0016020895E0932802F09329020895AE0F81
:1029FC00BF1F0E941718D0010E9436180895A3E734
:102A0C00B2E0F0E0EE0FFF1F0895A0E0F399A1E013
:102A1C00A0300895A0E0F599A1E0A0300895A0E0C1
:102A2C0027FCA1E0A0300895AA81BB81E4E6F0E088
:102A3C000895E981EF5FE983E150F0E0EF5FFD4F2E
:102A4C000895DF01E12FF0E0E857FD4FE081EC93B2
:102A5C000895F0E0E857FD4FE0810895E091000201
:102A6C00A8E6B0E0F0E0EE0FFF1FEA0FFB1F0E949C
:102A7C001B180895459A83E08A95F1F7459883E0F1
:102A8C008A95F1F70895A0E023FCA1E0A030089509
:102A9C00A0E0F799A1E0A0300895E0910002F0E0E9
:102AAC00E656FF4F0895A0E01D99A1E0E0E0F09BF1
:102ABC00E1E0EA170895E091A602F091A7020895CB
:102ACC00E6EEF0E0E093A402F093A5020895E09105
:102ADC00A102EF5FE093A102A091A102A53008959D
:102AEC00ED91FD913197FE93EE930895AC85BD85E4
:102AFC00EE85FF85EA1BFB0B0895A2E3B0E00E9474
:102B0C002A180895E095EA23A2E3B0E00E943E184B
:102B1C000895EA2BA2E3B0E00E943E18EFEFFFEF1E
:102B2C000895E72DA1E6B2E0F0E0EE0FFF1FEA0FEB
:102B3C00FB1F0895A0911302B09114020895A09167
:102B4C002602B09127020895A0913902B0913A0261
:102B5C000895A0914C02B0914D020895E1E0EA274E
:102B6C000E9453180895A6E1B0E0E0E00E943E18E0
:102B7C00A7E1B0E00E943E180895A0E2B0E0E0E0CA
:102B8C000E943E18A1E2B0E00E943E180895A2E017
:102B9C00B0E0E0E00E943E18A3E0B0E00E943E18D6
:102BAC000895ACE0B0E0E0E00E943E18ADE0B0E08B
:102BBC000E943E180895E72DA1E6B2E0F0E0EE0F7A
:102BCC00FF1FAE0FBF1F0895ED91FD913196FE933F
:102BDC00EE930895E0E0E093A002E8ECEA930C9405
:102BEC00D701AE0FBF1F0E9417180895E0E0E093C5
:102BFC00A002EEE1EA930C94D701A0913B02B091B4
:102C0C003C020895A4E0B0E00E942A18F6CFF0E050
:102C1C00EA0FFB1F0895F0E00E941F18EA1BFB0B44
:102C2C000895E0913B02F0913C020895A0914E0270
:102C3C00B0914F020895AEE0B0E00E942A18F6CF92
:102C4C00E0914E02F0914F020895A0911502B091BF
:102C5C0016020895A9E1B0E00E942A18F6CFE0917F
:102C6C001502F09116020895E0932502E0912502D9
:102C7C00A0E7B0E00E943E180895A0912802B09100
:102C8C0029020895A2E2B0E00E942A18F6CFE09142
:102C9C002802F09129020895E0933802E09138025D
:102CAC00A1E7B0E00E943E180895A8E2B0E00E94AF
:102CBC002A180895AE0FBF1FE0E0F0E00895E02F52
:102CCC00A091AA02EA0FE093AA0208950A921A921E
:102CDC00FA926A937A938A939A93AA93BA93EA9301
:102CEC00FA93EFB7EA930895F0E0EE0FFF1F089503
:102CFC00E091AD02F091AE020895E0913D02F091A9
:102D0C003E02FA93EA930C94D30AFA93EA930C9446
:102D1C00D30AE0913902F0913A02F7CFE0914102E7
:102D2C00F0914202F2CFE0914302F0914402EDCFD8
:102D3C00E0913F02F0914002E8CFE0911702F09150
:102D4C001802E3CFE0911302F0911402DECFE09170
:102D5C001B02F0911C02D9CFE0911D02F0911E02D2
:102D6C00D4CFE0911902F0911A02CFCFE0912A0250
:102D7C00F0912B02CACFE0912602F0912702C5CF29
:102D8C00E0912E02F0912F02C0CFE0913002F09131
:102D9C003102BBCFE0912C02F0912D02B6CFE09125
:102DAC005002F0915102B1CFE0914C02F0914D02E2
:102DBC00ACCFE0915402F0915502A7CFE0915602AE
:102DCC00F0915702A2CFE0915202F09153029DCFA5
:102DDC00E091AF02F091B0020895E091B102F09150
:102DEC00B20208950E942A18EA930C94B20AFA933C
:102DFC00EA930C94BB0AA091B502B091B602E4E63A
:102E0C000E94E3170895E091B702F091B802EA0F1F
:102E1C00FB1F0895A091B902B091BA02E4E60E949A
:102E2C00E3170895E091BB02F091BC02EA0FFB1F7F
:102E3C000895A091BD02B091BE02E4E60E94E31792
:102E4C000895E091BF02F091C002EA0FFB1F0895B4
:102E5C00A091C102B091C202E4E60E94E31708956A
:102E6C00E091C302F091C402EA0FFB1F0895A091F8
:102E7C00C502B091C602E4E60E94E3170895E09102
:102E8C00C702F091C802EA0FFB1F0895A091C90276
:102E9C00B091CA02E4E60E94E3170895E091CB02D8
:102EAC00F091CC02EA0FFB1F0895A091CD02B091D6
:102EBC00CE02E4E60E94E3170895E091CF02F09170
:102ECC00D002EA0FFB1F0895A091D102B091D2025B
:102EDC00E4E60E94E3170895E091D302F091D40246
:102EEC00EA0FFB1F0895AE85BF850E941718089541
:102EFC00AA85BB850E9417180895FA93EA930C943F
:102F0C00B10EE091DE02F091DF02EA17FB070895A3
:102F1C00A091DE02B091DF02EA17FB0708950E9430
:102F2C002A18EA930C947E0EA0E030FCA1E0EA2F64
:102F3C00EE0FEE0F1E2B0895A0E030FEA1E0EA2F5D
:102F4C00EE0F1E2B0895E72DA3E0EA9FF001E45548
:102F5C00FF4F0895E6E0EA930C948A02FA93EA9301
:102F6C00EAE0EA930C948A02F0E0EE56FF4F0490EC
:102F7C0008955A934A93EECFE991F991309639F02E
:102F8C0080ED97E00197F1F7A8953197C9F708956F
:102F9C00F195E195F0400895EE230E2EFD0121F000
:102FAC00F695E7950A94E1F70895FA9FF02DEB9FBB
:102FBC00F00DEA9FE02DF10D08956E2F6A9FF00140
:102FCC006B9FF00D08951FD0F0DF0EF4E1DF089534
:102FDC000024112490E1AA0FBB1F001C111C0E1A17
:102FEC001F0A18F40E0E1F1E01C0A1609A9599F7C6
:102FFC00FD01D001089507D0EBDF0EF4C9DF089571
:10300C00E7DFFD010895E894F7FF02C0C1DF689483
:10301C00B7FF06C0A095B095119600F8039400FA7E
:10302C000895ED91FC91119708950590F491E02D80
:10303C0008951B2EBF2FF12D1A2EAE2FE12D0895C2
:10304C00119602D0FE2F1197F999FECFFF93FFB77F
:10305C00F894A1BDB2BDF89AE0B5FFBFFF910895F9
:10306C0007D01196EF93EF2F03D0EF91119708959E
:10307C00F99B02C0A895FCCF9FB7F894A1BDB2BD37
:10308C00F89A80B5E81719F0E0BDFA9AF99A9FBF43
:10309C00089500240A160B060895E894EE2309F00F
:1030AC00689408955A934A933A932A931A930A93DD
:1030BC0008955D814C813B812A8119810881089595
:00000001FF
