:0A0000000C948E000C9400000C9488
:10000A0000000C9400000C9400000C9400000C9466
:10001A0000000C9400000C9400000C94F8100C944E
:10002A0000000C9400000C9400000C9400000C9446
:10003A0000000C9400000C9445100C9400000C94E1
:10004A00C30A0C9400000C9400000C9400000C9459
:10005A0000000C9400000C9400000C9400000000B6
:10006A00080010002000040080004000000400087E
:10007A0000400080001000200002C800050137017E
:10008A0069019B01CD0100020040C0E0F0F8FAFED0
:10009A00FF121216FFFF060F00FF161212000A3295
:1000AA0064960000000A120E0A120D0F120E0F12A9
:1000BA000D05120E05120D0B120E0B120D100B0C64
:1000CA00050E0F0F130A05170E00000000000C00A2
:1000DA009F815DD5C3D6DE85DFD74E5E48CB1A4FEA
:1000EA009EC840D85A581ED9E60000000C001801D4
:1000FA000A0003000200D40001000002D800180020
:10010A008702DA000100A302F20008000500F400E9
:10011A000000F894EE27EFBBF1E0F5BFE5BFF8E188
:10012A00A895A4B7A77FA4BFF0936000E0936000EE
:10013A008DE0A2E0BB27ED938A95E9F780E094E091
:10014A00A0E0B1E0ED930197E9F7ECEFF0E08591DB
:10015A009591009761F0A591B59105901590BF0111
:10016A00F00105900D920197E1F7FB01F0CFE0E075
:10017A00EEBBEFEFEDBFE4E0EEBFC0E0D2E00C94DF
:10018A00A611E881E0937C008BE18A95F1F7E09172
:10019A007A00E064E0937A00E0917A00E071E1F39A
:1001AA00E0917A00E061E0937A00E0917800F091C2
:1001BA0079000CC11A93E0E8E0936100E0E0E09373
:1001CA006100E0E2E5B9EFEDE4B9E4E4E8B9E8E3B7
:1001DA00E7B9E0E0EBB9ECEFEAB9E0E0E4BDE3E06F
:1001EA00E5BDE0E0E6BDE7BDE8BDE0938000E09351
:1001FA008100E0938500E0938400E0938700E09318
:10020A008600E0938900E0938800E0938B00E093F6
:10021A008A00E093B600E093B000E7E0E093B10013
:10022A00E0E0E093B200E093B300E093B400E0931F
:10023A006900EDBBE0936800E1E0E0936E00E0E066
:10024A00E0936F00E1E0E0937000E0E0E093C0002B
:10025A00E8E9E093C100E6E0E093C200E0E0E09361
:10026A00C500E9E1E093C400E0E8E0BFE0E0E09324
:10027A007B00E0937E00E0937C00E3E8E0937A0061
:10028A000E944C14E23010F00E945114A4E3B0E032
:10029A000E94A117EE2EA6E3B0E00E94A117DE2E5F
:1002AA000E9457140E945E1411E0193090F40E94C3
:1002BA0065140E946C140E9471140E9477140E94A3
:1002CA007F140E946C140E9486140E9477141F5F88
:1002DA00ECCFA0E0B0E00E949D170E948C14AAE027
:1002EA00B0E00E949D170E949114A4E1B0E00E9420
:1002FA009D170E949614AEE1B0E00E949D170E94DD
:10030A009B14A0E3B0E00E94A117E0935E02A091C3
:10031A005E02A53038F0E0E0E0935E02A0E3B0E0D0
:10032A000E94B51778942BC01A93F89411E01930EB
:10033A00A8F4E12F0E947114EA0FFB1F0F010E941B
:10034A0065140E94A014E12F0E9486140E946C1466
:10035A000E94A8140E94A0141F5FE9CFEE2DA4E307
:10036A00B0E00E94B517ED2DA6E3B0E00E94B517E4
:10037A00E0915E02A0E3B0E00E94B517789419916B
:10038A000895A881A13028F0A0E036FCA1E0A030B1
:10039A0009F005C0E881E0938402689436F8E881A0
:1003AA00E030A1F436FE04C0A0918402A13008F422
:1003BA0006C05C9AE0918402E150E0938402E091E5
:1003CA008402E03019F45C98E89436F8219608958E
:1003DA0033FE89C0E89433F8A0918502AF5FA093F9
:1003EA008502AD3398F1E0E0E093850234FC2DC03C
:1003FA00E0915F02EF5FE0935F02A0915F02DA167D
:10040A00E9F435F8689434F8F198F398F598F59981
:10041A0002C02F9801C02F9AE89421F821FC02C04B
:10042A005B9801C05B9AE89425F825FC02C02E98D7
:10043A0001C02E9AEEEFEA93A4DF07C0A0915F02F3
:10044A00AF5FDA1611F4689435F826C035FE24C079
:10045A00E0918502E13011F0EA3009F402C0E4319A
:10046A0009F402C0EE3109F402C0E83209F402C00C
:10047A00ED3211F4E4E60EC0E23311F0E43309F48C
:10048A0002C0E63309F402C0E83309F402C0EA33D1
:10049A0019F4E8ECEA9375DF0E94AE14A9F40E94FD
:1004AA00B31491F40E94B81479F4A0E023FCA1E0FB
:1004BA00A03051F4A0E0F799A1E0A03029F4A0E01F
:1004CA0027FCA1E0A03009F00BC0E0918602EF5FA3
:1004DA00E0938602A0918602EA1608F4289803C0DF
:1004EA00E0E0E093860208951A930E94BD140E94E8
:1004FA0065171E2F0E94BD140E947D17EA83FB8395
:10050A00103029F00E94C2140E94CA1404C00E942A
:10051A00C214A0E0A083AA81BB81EAE0F0E00E94B5
:10052A0065171E2FAA81BB81EAE0F0E00E947D17C1
:10053A00EA83FB830E94C2140E94CA141A81A98109
:10054A00B0E0AF5FBD4FE12F0E94D214EC93AEC072
:10055A0022971A934598E0910002A8E6B0E00E941B
:10056A00D7140E949217E983FA8310E0183178F4BD
:10057A00183010F4439801C0439A459A83E08A954B
:10058A00F1F7459883E08A95F1F71F5FEFCF44981A
:10059A0083E08A95F1F7449A27FC44C0A0910002AF
:1005AA00AA3060F0A0910002AD3040F4A0E0F299C8
:1005BA00A1E0A03019F40E94AE1409F002C0E0E4F0
:1005CA00EB83A0910002A630B8F0A0910002A930F6
:1005DA0098F40E94B31481F40E94B81469F40E943A
:1005EA00DD1451F4A0E022FCA1E0A03029F4A0E03F
:1005FA0023FCA1E0A03009F002C0E0E4EB83A09163
:10060A000002A13060F0A0910002A43040F40E94E0
:10061A00E21429F4A0E0F799A1E0A03009F002C0A1
:10062A00E0E4EB8330FE0DC00E94E714A491AF3FD3
:10063A0031F00E94E714E4910E94D21401C0E0E074
:10064A00EB8310E0183168F5183070F4EB81E0782C
:10065A00EE1FE0E0EE1FE03011F4439801C0439A28
:10066A00EB81EE0FEB8313C0E981FA81E070F07839
:10067A00DF01EFE00E944917E03011F4439801C00E
:10068A00439AE981FA81EE0FFF1FE983FA83459ABB
:10069A0085E08A95F1F7459885E08A95F1F71F5F1D
:1006AA00D1CF449885E08A95F1F7449A1881249627
:1006BA000895E0919F02E03011F00C94CF04E0918C
:1006CA00A302F091A402309711F00C94CA04A0E09E
:1006DA001D99A1E0A03029F4A0E040FCA1E0A030DF
:1006EA0009F002C0689440F840FE63C01D9953C0E7
:1006FA00E0910002E13021F40E94ED14319647C0E6
:10070A00E23021F40E94ED14329641C0E33021F424
:10071A000E94ED1434963BC0E43021F40E94ED149B
:10072A00389635C0E53021F40E94ED1470962FC03A
:10073A00E63021F40E94ED14B09629C0E73029F47E
:10074A000E94ED14E05CFF4F22C0E83029F40E94B9
:10075A00ED14E058FF4F1BC0E93029F40E94ED1454
:10076A00E050FF4F14C0EA3029F40E94ED14E05023
:10077A00FE4F0DC0EB3029F40E94ED14E050FC4FFF
:10078A0006C0EC3041F40E94ED14E050F84FE093BB
:10079A00A502F093A602A091A702AF5FA093A702B9
:1007AA00AC3039F4E0E0E093A7020E94F214E89436
:1007BA0040F8A091A702A03039F4A091A502B09107
:1007CA00A6020E94C61708F0BDC00E94ED14E830C8
:1007DA00A0E0FA0721F4E4E0E0939F0279C0E23056
:1007EA00A0E0FA0721F4E2E0E0939F0271C0E13051
:1007FA00A0E0FA0721F4E3E0E0939F0269C0E03049
:10080A00A8E0FA0721F4E1E0E0939F0261C0E03139
:10081A00A0E0FA0721F4E5E0E0939F0259C0E43032
:10082A00A0E0FA0721F4E6E0E0939F0251C0E0322B
:10083A00A0E0FA0721F4E7E0E0939F0249C0E03420
:10084A00A0E0FA0721F4E8E0E0939F0241C0E0301B
:10085A00A1E0FA0721F4ECE0E0939F0239C0E0300E
:10086A00A4E0FA0721F4EAE0E0939F0231C0E03005
:10087A00A2E0FA0721F4EBE0E0939F0229C0E038F6
:10088A00A0E0FA0721F4E9E0E0939F0221C0E330F7
:10089A00A6E0FA0751F40E94F91431F4EEE0E0936D
:1008AA009F02E0E0E093A00213C0E130A2E0FA0761
:1008BA0079F40E94F91429F4A0E027FCA1E0A03001
:1008CA0009F006C0EDE0E0939F02E0E0E093A002A9
:1008DA0035FE06C0EFE0E0939F02EEEFEA9351DDAA
:1008EA00A0919F02A13028F0E0E0E0935F02E89433
:1008FA0035F837FC10C0E091A102EF5FE093A10246
:10090A000E94F214A091A102A53029F4689437F844
:10091A00E0E0E093A10237FE10C0E0915E02F0E051
:10092A00E855FF4FE491F0E0E093A302F093A402AC
:10093A00E091A302EB5FE093A202E0E0E093A5025C
:10094A00E093A602A0910002AC3059F4A091A10252
:10095A00A13038F0A091A802AF5FA093A802AB30F3
:10096A0008F407C0E0E0E093A802E093A102E09354
:10097A00A00237FE09C0E091A202E150E093A20270
:10098A00E03011F4E89437F805C0A3EAB2E00E9417
:10099A000215319608950E94CF170E940815AA855C
:1009AA00BB85AE1BBF0BE885F985AE1BBF0BE4E622
:1009BA00F0E00E9460170F01AC85BD85E885F985D6
:1009CA00EA1BFB0BD0010E9478178F01112342F01A
:1009DA000E940F15AE2FEE810E941415E02F08C059
:1009EA000E940F15AE810E941B15E01BF10BF0E06F
:1009FA00EF5F5E2F0E940815BF01F801AC85BD8527
:100A0A000E946017DF01E4E6F0E00E947817DB013C
:100A1A00AE1BBF0B9D01332342F00E940F15AE2F70
:100A2A00EF810E941415422F08C00E940F15AF8152
:100A3A000E941B15E21BF30B4E2FE1E0E71519F09C
:100A4A00E2E0E71549F4E42FA7E1B0E00E94B51708
:100A5A00E52FA6E1B0E02CC0E3E0E71519F0E4E0E9
:100A6A00E71549F4E42FA1E2B0E00E94B517E52F9B
:100A7A00A0E2B0E01DC0E5E0E71519F0E6E0E715F1
:100A8A0049F4E42FA3E0B0E00E94B517E52FA2E0F5
:100A9A00B0E00EC0E7E0E71519F0E8E0E71551F419
:100AAA00E42FADE0B0E00E94B517E52FACE0B0E06E
:100ABA000E94B5170E94D61760960895A0919F02CA
:100ACA00A23041F47394ECE0E71510F4E1E07E2ED5
:100ADA00E89431F8A0919F02A33041F47A94E1E0BE
:100AEA007E1610F4ECE07E2EE89431F8A0919F0275
:100AFA00AC3011F00C94C00531FE3DC0E1E0E715C1
:100B0A0019F0E2E0E71529F40E9423150E9427153F
:100B1A0020C0E3E0E71519F0E4E0E71529F40E94A4
:100B2A0023150E942C1515C0E5E0E71519F0E6E03B
:100B3A00E71529F40E9423150E9431150AC0E7E03F
:100B4A00E71519F0E8E0E71531F40E9423150E9431
:100B5A003615A083B183E1E07E1618F0E8E0E715C8
:100B6A0008F407C0E72D0E94A814EA0FFB1FB08201
:100B7A00C182E89431F8A0919F02A430C9F5A0E09F
:100B8A0031FCA1E00E943B1531F8E1E0E71519F0CC
:100B9A00E2E0E71531F40E9440150E940F15EF7C40
:100BAA0023C0E3E0E71519F0E4E0E71531F40E9409
:100BBA004A150E940F15E37F17C0E5E0E71519F003
:100BCA00E6E0E71531F40E9454150E940F15EF7301
:100BDA000BC0E7E0E71519F0E8E0E71549F40E94D1
:100BEA005E150E940F15EC7FA2E3B0E00E94B517D4
:100BFA00A0919F02A530E9F5E2E0E71581F4A0E0B3
:100C0A00F599A1E0E1E0EA2711F4F59801C0F59A17
:100C1A00F79AF59902C02F9801C02F9A2AC0E4E0EA
:100C2A00E71571F4A0E021FCA1E00E943B1521F830
:100C3A00689423F821FC02C05B9801C05B9A19C032
:100C4A00E6E0E71551F4A0E0F199A1E0E1E0EA2736
:100C5A0011F4F19801C0F19A0CC0E8E0E71549F4E3
:100C6A00A0E0F399A1E0E1E0EA2711F4F39801C0CA
:100C7A00F39AA0919F02A73011F00C948B0631FED3
:100C8A0034C032FE2DC0E1E07E1618F0E8E0E71528
:100C9A0008F40AC0E4EFF1E09E16AF0620F4EAE099
:100CAA00F0E09E0EAF1E1CC0EAE0E71529F4E3E669
:100CBA00DE1608F4D39414C0EBE0E71529F4ECE34C
:100CCA00EE1608F4E3940CC0ECE0E71549F4A091A1
:100CDA005E02A33028F4E0915E02EF5FE0935E02C9
:100CEA00689432F8EFE08E2E0CC00E9468150E94BC
:100CFA008E17E032A3E0FA0720F40E9468150E94DA
:100D0A007115E9E0E71511F40E945114A0919F02B0
:100D1A00A63011F00C94D90631FE34C032FE2DC033
:100D2A00E1E07E1618F0E8E0E71508F40BC0E2E30C
:100D3A00F0E0E915FA0528F4E92DFA2D3A979E2EE6
:100D4A00AF2E1BC0EAE0E71521F4ED1508F4DA949A
:100D5A0014C0EBE0E71529F4E5E0EE1508F4EA948F
:100D6A000CC0ECE0E71549F4A0915E02A13028F02E
:100D7A00E0915E02E150E0935E02689432F8EFE09F
:100D8A008E2E0AC00E9468150E948E17329720F094
:100D9A000E9468150E940215E9E0E71529F4A8E106
:100DAA00B0E0E0E00E94B517A0919F02A13029F4BB
:100DBA00A0E031FCA1E0A03009F08EC0B5DAE1E094
:100DCA00E71519F0E2E0E715E1F4E0917402F09119
:100DDA007502FA93EA93E0916202F0916302FA9340
:100DEA00EA93E0917602F0917702FA93EA93E0911E
:100DFA006402F0916502FA93EA93E0E2EA93E0E191
:100E0A0065C0E3E0E71519F0E4E0E715E1F4E091E5
:100E1A007802F0917902FA93EA93E0916602F091EE
:100E2A006702FA93EA93E0917A02F0917B02FA93CD
:100E3A00EA93E0916802F0916902FA93EA93E8E092
:100E4A00EA93E4E043C0E5E0E71519F0E6E0E715C8
:100E5A00E1F4E0917C02F0917D02FA93EA93E09149
:100E6A006A02F0916B02FA93EA93E0917E02F091A2
:100E7A007F02FA93EA93E0916C02F0916D02FA9381
:100E8A00EA93E0E8EA93E0E421C0E7E0E71519F025
:100E9A00E8E0E715E9F4E0918002F0918102FA9323
:100EAA00EA93E0916E02F0916F02FA93EA93E0916D
:100EBA008202F0918302FA93EA93E0917002F09130
:100ECA007102FA93EA93E1E0EA93E2E0EA9363DDDE
:100EDA00E89427F80E947715E1E07E1618F0E8E01A
:100EEA00E71508F43FC0A0919F02AA30E1F431FE51
:100EFA000AC0E4EFF1E0BE16CF0620F4E1E0F0E02C
:100F0A00BE0ECF1E10C0E72D0E94A8140E947E15A7
:100F1A00E032A3E0FA0738F4E72D0E94A814AE0FD6
:100F2A00BF1F0E947115A0919F02AB30D9F431FE08
:100F3A000BC0EAE0F0E0EB15FC0528F4EB2DFC2DE4
:100F4A003197BE2ECF2E0EC0E72D0E94A8140E9404
:100F5A007E15329738F0E72D0E94A814AE0FBF1FF6
:100F6A000E940215A0919F02A13028F0A0E035FC52
:100F7A00A1E0A03009F002C00E94831508951A93D7
:100F8A00A0919F02A93049F4A0E0F199A1E0E1E023
:100F9A00EA2711F4F19801C0F19AA0919F02AA30B0
:100FAA0011F0AB3011F4F19901C02DC0F29B22C0AF
:100FBA00A0919F02AA3031F40E948A15A039E1E07B
:100FCA00BE0708F006C00E948F150E9494150E9461
:100FDA008C14A0919F02AB3031F40E948A15A53679
:100FEA00E0E0BE0708F406C00E948F150E9498151B
:100FFA000E948C14F29AEFE08E2E0E949E15A0E0B9
:10100A00B0E00E94AD17A0919F02AC3041F40E945B
:10101A00B81429F4A0E022FCA1E0A03009F009C02C
:10102A00A0E0F399A1E0E1E0EA2711F4F39801C006
:10103A00F39AA0919F02A73011F0A63011F4F39908
:10104A0001C02DC0F49B22C0A0919F02A73031F4A9
:10105A000E94A315A039E1E0BE0708F006C00E946D
:10106A00A8150E9494150E949114A0919F02A6307F
:10107A0031F40E94A315A536E0E0BE0708F406C0C5
:10108A000E94A8150E9498150E949114F49AEFE004
:10109A008E2E0E94AD15AAE0B0E00E94AD17A0E026
:1010AA003299A1E0A03031F4F59B04C00E944C149F
:1010BA00E13009F003C0E1E0E0939F02A0919F02B2
:1010CA00A130E1F4A0E0F599A1E0E1E0EA2711F40A
:1010DA00F59801C0F59AF79A0E945714A0E0329940
:1010EA00A1E0A03021F40E944C14E13009F001C0C3
:1010FA00F598F59902C02F9801C02F9AF59B60C008
:10110A00A0919F02A23019F0A33009F04CC020FC34
:10111A002CC0F69B20C0A0919F02A23031F40E94FD
:10112A00B215A23CE1E0BE0708F006C00E94B7155E
:10113A000E9494150E949614A0919F02A33021F454
:10114A000E94B215D39708F406C00E94B7150E94F0
:10115A0098150E949614F69AEFE08E2E0E94BC15FE
:10116A00A4E1B0E00E94AD171EC0A0919F02A23078
:10117A0021F4A0912402A73008F005C0E0912402CE
:10118A00EF5F0E94C115A0919F02A33021F4A091A4
:10119A002402A23008F405C0E0912402E1500E9422
:1011AA00C115EFE08E2EA0919F02A43041F4A0E079
:1011BA0020FCA1E00E943B1520F8EFE08E2E17C01C
:1011CA00F59915C0A0911602B0911702999740F0AF
:1011DA00A0911602B0911702A935E2E0BE0708F005
:1011EA00F798F79B04C0F69AE7E0E0932402A091EF
:1011FA009F02A53031F40E94B81419F40E94B31466
:10120A0009F00FC0A0E021FCA1E00E943B1521F8E3
:10121A00689423F821FC02C05B9801C05B9A0E9483
:10122A005E1421FC2DC0A0919F02A83069F4A0E0B1
:10123A0025FCA1E00E943B1525F825FC02C02E984A
:10124A0001C02E9AE89422F8A0912902B0912A02AC
:10125A00999740F0A0912902B0912A02A935E2E0BB
:10126A00BE0710F0E89423F823FE03C00E94B814C6
:10127A0009F005C0689422F8E7E0E093370262C0FB
:10128A0021FE60C0A0919F02A73019F0A63009F094
:10129A004DC024FC2DC022FE20C0A0919F02A73081
:1012AA0031F40E94CA15AC32E1E0BE0708F006C06C
:1012BA000E94CF150E9494150E949B14A0919F0230
:1012CA00A63021F40E94CA15D39708F406C00E94DA
:1012DA00CF150E9498150E949B14689422F8EFE09B
:1012EA008E2E0E94D415AEE1B0E00E94AD171EC04A
:1012FA00A0919F02A73021F4A0913702A73008F0ED
:10130A0005C0E0913702EF5F0E94D915A0919F02B4
:10131A00A63021F4A0913702A23008F405C0E0916A
:10132A003702E1500E94D915EFE08E2EA0919F025C
:10133A00A83041F4A0E024FCA1E00E943B1524F867
:10134A00EFE08E2E25FE20C0A0919F02A73021F447
:10135A000E94E215E43608F007C00E94E215EB5F2E
:10136A00A8E2B0E00E94B517A0919F02A63021F42E
:10137A000E94E215EB3008F407C00E94E215E5501E
:10138A00A8E2B0E00E94B517A0919F02AE3031F4F6
:10139A000E94E21419F40E94AE1409F08FC06894F6
:1013AA0030F8E9E18E2EA0E0B0E0E6EEF0E00E942F
:1013BA00AD170E948C140E945415A4E0B0E0E5E039
:1013CA000E94B517AAE0B0E0E1EEF0E00E94AD1786
:1013DA000E9491140E945E15AEE0B0E0E5E00E9422
:1013EA00B517A4E1B0E0E8E1F1E00E94AD170E9470
:1013FA0096140E944015A9E1B0E0EAE00E94B517F0
:10140A00AEE1B0E0E8E7F0E00E94AD170E949B145D
:10141A000E944A15A2E2B0E0EAE00E94B517A8E2EB
:10142A00B0E0E2E30E94B517A2E3B0E0E0E00E9478
:10143A00B517F8940E945114EFE0EE2EA4E3B0E041
:10144A000E94B517EEE1DE2EA6E3B0E00E94B517C2
:10145A00E7E0E0932402A0E7B0E00E94B517E0932A
:10146A003702A1E7B0E00E94B51710E01930E0F4A6
:10147A000E9465140E94E715ED93FC93E12F0E94E8
:10148A0071140E94E7150E94AD170E947F140E94F2
:10149A00E715ED93FC93E12F0E9486140E94E7154D
:1014AA000E94AD171F5FE2CFA0E3B0E0E0E00E9428
:1014BA00B517E0935E0278940E947715A0919F0277
:1014CA00AD3099F40E94AE1449F40E94B31431F479
:1014DA000E94E21419F40E94DD1409F006C068940F
:1014EA0027F8EBE07E2E0E947715A0919F02A1308B
:1014FA0010F00E94831519910895E091C000E072DE
:10150A00E1F3E881E093C600219608951A930A93BD
:10151A000E94BD140E9465178F010E94EC150A9360
:10152A00ECDFA4E6A09FF001A19FF00DAA81BB8188
:10153A00AE1BBF0B8D010E94EC1510C01A930A93C3
:10154A00EA81FB81E0708F01012F112707FD1095B9
:10155A000A93D3DFEA81FB81F0708F010A93CDDF12
:10156A001981088124960895EFE4EA93C6DFEBE433
:10157A00EA93C3DFEBEFEA93C0DF08950E94F31505
:10158A000E94D1173FB7F8941091C6003FBF1C3F85
:10159A0051F4E0E0E093DC02E093AA02E093AB02AC
:1015AA00E093A90273C3E091DC02AAEAB2E0F0E098
:1015BA00EE0FFF1FAE0FBF1FE12FF0E0ED93FC937C
:1015CA00E091DC02A091AA02B091AB02F0E0EA1726
:1015DA00FB0721F4A091DC02A13008F452C30E9457
:1015EA000116E635A0E0FA0711F00C943D0BE6E58A
:1015FA00EA9383DFE6E5EA9380DFE0E3EA937DDFBF
:10160A000E9406160E949E150E940E160E9412162D
:10161A000E9417160E941C160E9421160E94261666
:10162A000E94BC150E940E160E942B160E943016AC
:10163A000E9435160E943A160E943F160E94D4153F
:10164A000E940E160E9444160E9449160E944E16C7
:10165A000E9453160E9458160E94AD150E940E163B
:10166A000E945D160E9462160E9467160E946C16FE
:10167A000E940116E234A0E0FA0721F4E091AE02DA
:10168A00E0939F020E940116E035A0E0FA0731F4C8
:10169A000E947116E337A0E0FA0709F01FC00E9402
:1016AA007616E133A0E0FA0789F4F09AA091B20223
:1016BA00B091B302E4E60E945A175E2E6F2EE091B3
:1016CA00B402F091B5025E0E6F1E07C00E94761634
:1016DA00E033A0E0FA0709F4F09846DF0E94011609
:1016EA00ED34A0E0FA0709F43FDF0E940116EB345B
:1016FA00A0E0FA0711F00C941F0C0E947116EF3348
:10170A00A0E0FA0711F00C94C90BEBE6EA93F5DEB8
:10171A00E6E6EA93F2DEEEE0EA93EFDEA3E0B0E07B
:10172A000E947B16A2E0B0E00E947B16A7E1B0E01F
:10173A000E947B16A6E1B0E00E947B16A1E2B0E00F
:10174A000E947B16A0E2B0E00E947B16ADE0B0E0FA
:10175A000E947B16ACE0B0E00E947B160E940F1537
:10176A00F0E00E948016A4E0B0E00E947B16A9E196
:10177A00B0E00E947B16A2E2B0E00E947B16AEE0C7
:10178A00B0E00E947B1656C00E947116E132A0E0BA
:10179A00FA0711F00C941F0CE091B002A3E0B0E03C
:1017AA000E94B517E091B202A2E0B0E00E94B5171C
:1017BA00E091B402A7E1B0E00E94B517E091B60249
:1017CA00A6E1B0E00E94B517E091B802A1E2B0E04C
:1017DA000E94B517E091BA02A0E2B0E00E94B517E4
:1017EA00E091BC02ADE0B0E00E94B517E091BE0204
:1017FA00ACE0B0E00E94B517E091C002A2E3B0E00D
:10180A000E94B517E091C202A4E0B0E00E94B517A9
:10181A00E091C402A9E1B0E00E94B517E091C602C6
:10182A00A2E2B0E00E94B517E091C802AEE0B0E0D3
:10183A000E94B5170E940116EA35A0E0FA0731F4B2
:10184A000E947116E435A0E0FA0709F047C10E9428
:10185A007616EF33A0E0FA0711F5EAE7EA934DDED0
:10186A00E4E7EA934ADE01E0093060F4E02FA0E6FB
:10187A00B2E0F0E0EE0FFF1F0E947E150E94801674
:10188A000F5FF2CF01E0093048F4E02F0E94A8145C
:10189A000E947E150E9480160F5FF5CF1CC10E9420
:1018AA007616E132A0E0FA0711F00C94730DE0917C
:1018BA00B202F091B302E335A0E0FA0711F00C94FA
:1018CA00E60C0E948416E0936202F0936302A091F0
:1018DA006202B09163020E948C16E0936202F09356
:1018EA0063020E949316E0936402F0936502A0914A
:1018FA006402B09165020E949B16E0936402F09321
:10190A0065020E94A216E0936602F0936702A09114
:10191A006602B09167020E94AA16E0936602F093EB
:10192A0067020E94B116E0936802F0936902A091DF
:10193A006802B09169020E94B916E0936802F093B6
:10194A0069020E94C016E0936A02F0936B02A091AA
:10195A006A02B0916B020E94C816E0936A02F09381
:10196A006B020E94CF16E0936C02F0936D02A09175
:10197A006C02B0916D020E94D716E0936C02F0934C
:10198A006D020E94DE16E0936E02F0936F02A09140
:10199A006E02B0916F020E94E616E0936E02F09317
:1019AA006F020E94ED16E0937002F0937102A0910B
:1019BA007002B09171020E94F516E0937002F093E2
:1019CA007102E091B202F091B302E235A0E0FA07A7
:1019DA0011F00C94700D0E948416E0937402F09337
:1019EA007502A0917402B09175020E948C16E09360
:1019FA007402F09375020E949316E0937602F093B4
:101A0A007702A0917602B09177020E949B16E0932A
:101A1A007602F09377020E94A216E0937802F0937E
:101A2A007902A0917802B09179020E94AA16E093F5
:101A3A007802F09379020E94B116E0937A02F09349
:101A4A007B02A0917A02B0917B020E94B916E093C0
:101A5A007A02F0937B020E94C016E0937C02F09314
:101A6A007D02A0917C02B0917D020E94C816E0938B
:101A7A007C02F0937D020E94CF16E0937E02F093DF
:101A8A007F02A0917E02B0917F020E94D716E09356
:101A9A007E02F0937F020E94DE16E0938002F093AA
:101AAA008102A0918002B09181020E94E616E09321
:101ABA008002F09381020E94ED16E0938202F09375
:101ACA008302A0918202B09183020E94F516E093EC
:101ADA008202F0938302EBEFEA930FDD0E94011674
:101AEA00E035A0E0FA0731F40E947116EF34A0E065
:101AFA00FA0709F031C00E947616EF33A0E0FA0720
:101B0A0089F4E0E7EA93F9DCEFE6EA93F6DCE3E04E
:101B1A00EA93F3DCEA92F1DCDA92EFDCB8D6EA93E4
:101B2A00ECDC1AC00E947616E132A0E0FA07A1F4B2
:101B3A00E090B202EE2DA4E3B0E00E94B517D09077
:101B4A00B402ED2DA6E3B0E00E94B517E091B6020B
:101B5A00A8E1B0E00E94B5170E940116E035A0E0A6
:101B6A00FA0731F40E947116E434A0E0FA0709F08A
:101B7A0088C0E0E7EA93C1DCE4E6EA93BEDCE4E687
:101B8A00EA93BBDCE0E1EA93B8DC0E947616E6341D
:101B9A00A0E0FA07C9F40E942B160E94BC150E9405
:101BAA000E160E9426160E943A160E9430160E94AD
:101BBA003516E0911E02F0911F020E940E16E09166
:101BCA002002F09121025AC00E947616E035A0E068
:101BDA00FA07C9F40E9444160E94D4150E940E16F0
:101BEA000E943F160E9453160E9449160E944E16E2
:101BFA00E0913102F09132020E940E16E091330216
:101C0A00F09134023BC00E947616E335A0E0FA0751
:101C1A00C1F40E9412168DD70E940E160E94061653
:101C2A000E9421160E9417160E941C16E091440277
:101C3A00F09145020E940E16E0914602F091470289
:101C4A001DC00E947616E534A0E0FA07D1F40E947E
:101C5A005D167ED70E940E160E9458160E946C16B8
:101C6A000E9462160E946716E0915702F09158028C
:101C7A000E940E16E0915902F0915A02FA93EA93E1
:101C8A005DDCE091DC02EF5FE093DC020E94D81792
:101C9A00249649C30E94D117EC81A885B985F0E042
:101CAA000E945217DF01E4E6F0E00E9465178F01F7
:101CBA00B1D6AD81EA23AE2FED81EA1729F4E88582
:101CCA00F985E01BF10B05C0F801A885B985EA0F73
:101CDA00FB1F9F019FD6AF81EA23AE2FEF81EA1740
:101CEA0021F4EE81D9011FD704C0EE81F0E0E20FA2
:101CFA00F31F0E94D8172A9608950E94CF1727FE2D
:101D0A0004C0A889B9899D92AC92AC85BD850E9410
:101D1A008E17AE81BF81ED93FC93A889B9890D9086
:101D2A001C900E94FC16D001AE1BBF0B8D01F8015E
:101D3A00A2E1B0E00E946017DF01EAE0F0E00E9451
:101D4A007817AC85BD85ED93FC93AC85BD850D9068
:101D5A001C90AE81BF810E948E17D001AE1BBF0BB3
:101D6A00E2E0F0E00E946017A885B985ED93FC9344
:101D7A000733E0E01E0724F40230E0E01E070CF40B
:101D8A0007C0AA85BB85ED91FD913196FE93EE932E
:101D9A00E9ECFFEFE017F10724F40F3FEFEF1E071E
:101DAA000CF007C0AA85BB85ED91FD913197FE9392
:101DBA00EE930E940117EC30AEEFFA0734F4AA85CD
:101DCA00BB85ECE0FEEFED93FC930E940117E53C26
:101DDA00A9E0FA0734F0AA85BB85E4ECF9E0ED93B3
:101DEA00FC930E940117DF01E5E0F0E00E947817FA
:101DFA009F01AE81BF810D901C90AC85BD850E946C
:101E0A008E17E00DF11DE20FF31F0F01A885B985AA
:101E1A000E948E17E00DF11D8F010E94FC16E53F0E
:101E2A00A1E0FA0720F40130E0E01E0714F400E014
:101E3A0010E0A8010E94FC16F29718F444E650E05C
:101E4A0006C04F3FE1E05E0710F04EEF51E0FA01A5
:101E5A000E94D61762960895F099DDC0F59B05C0D9
:101E6A00F1D5AC3BE2E0BE0708F018C0E4E1F2E0CD
:101E7A00FA93EA93E6E1F2E0FA93EA93EAE1F2E00E
:101E8A00FA93EA93ECE1F2E0FA93EA93EEE1F2E0F4
:101E9A00FA93EA93E0E2F2E0B4D702C0E0E0F0E0BD
:101EAA00E0931802F0931902F79B08C0E09124020C
:101EBA00A2E8B0E077D50E94921702C0E0E0F0E015
:101ECA00E0932202F09323024ED539F421FE05C095
:101EDA00BED5AC3BE2E0BE0708F018C0E7E2F2E08C
:101EEA00FA93EA93E9E2F2E0FA93EA93EDE2F2E096
:101EFA00FA93EA93EFE2F2E0FA93EA93E1E3F2E08B
:101F0A00FA93EA93E3E3F2E07CD702C0E0E0F0E080
:101F1A00E0932B02F0932C0223FE08C0E0913702D3
:101F2A00A2E8B0E03FD50E94921702C0E0E0F0E0DC
:101F3A00E0933502F0933602F19B05C08DD5AC3B98
:101F4A00E2E0BE0708F018C0EAE3F2E0FA93EA9387
:101F5A00ECE3F2E0FA93EA93E0E4F2E0FA93EA932C
:101F6A00E2E4F2E0FA93EA93E4E4F2E0FA93EA9321
:101F7A00E6E4F2E046D702C0E0E0F0E0E0933E0299
:101F8A00F0933F02F39B05C06CD5AC3BE2E0BE0781
:101F9A0008F018C0EDE4F2E0FA93EA93EFE4F2E015
:101FAA00FA93EA93E3E5F2E0FA93EA93E5E5F2E0DD
:101FBA00FA93EA93E7E5F2E0FA93EA93E9E5F2E0C5
:101FCA0020D702C0E0E0F0E0E0935102F093520221
:101FDA0025FE02C0EDD409F018C0EFD5F0E0E09379
:101FEA000E02F0930F02E0910E02F0910F02EE0F33
:101FFA00FF1FFE2FE0E0DF01E4E6F0E00E94651734
:10200A00E0931002F093110205C0E0E0E0931002A1
:10201A00E093110234C0F19B05C050923E026092D7
:10202A003F0206C0E0E0F0E0E0933E02F0933F0298
:10203A00F39B05C0509251026092520206C0E0E042
:10204A00F0E0E0935102F0935202F59B05C05092E2
:10205A0018026092190206C0E0E0F0E0E09318026C
:10206A00F093190221FE05C050922B0260922C02B5
:10207A0006C0E0E0F0E0E0932B02F0932C02089512
:10208A00AA93BA93EA93FA93EFB7EA93EAEFE6BD13
:10209A00ADEDB2E021D5EF3FA1E0FA0729F4E0E087
:1020AA00E093DD02E093DE02A0911802B0911902DA
:1020BA00129730F0A0911802B0911902A6D608F032
:1020CA0001C02A9AE0911802F0911902A5D609F4E2
:1020DA002A98A0912202B0912302129730F0A0917F
:1020EA002202B091230291D608F001C05D9AE091D4
:1020FA002202F091230290D609F45D98A0913E0243
:10210A00B0913F02129730F0A0913E02B0913F0287
:10211A007CD608F001C0299AE0913E02F0913F0274
:10212A007BD609F42998A0915102B09152021297D4
:10213A0030F0A0915102B091520267D608F001C066
:10214A005A9AE0915102F091520266D609F45A98CD
:10215A00A0911002B0911102129758F0E091DD029D
:10216A00F091DE02A0911002B0911102EA17FB076A
:10217A0008F001C02B9AE0911002F09111024CD69E
:10218A0009F42B98A0912B02B0912C02129730F0EF
:10219A00A0912B02B0912C0238D608F001C02C9ADB
:1021AA00E0912B02F0912C0237D609F42C98A091D9
:1021BA003502B0913602129730F0A0913502B091F3
:1021CA00360223D608F001C05E9AE0913502F091FA
:1021DA00360222D609F45E98E991EFBFF991E991A6
:1021EA00B991A9911895FAD4E5EFE093B20027FCCA
:1021FA0003C00E94C40702C00E946305A0EEB2E0B9
:10220A006BD4ED3BA2E0FA0738F0689433F8E0E0CB
:10221A00E093E002E093E102E0910002E150E093F2
:10222A000002A0910002A13018F4ECE0E093000251
:10223A000E945E03E0E0EA930E94C60126FE02C005
:10224A00F29901C00AC0A0910002AA3020F0A09120
:10225A000002AD3008F001C001C002C0E0E043C096
:10226A0026FE04C0A5D311F4F49901C00AC0A091B6
:10227A000002A63020F0A0910002A93008F001C0A7
:10228A0001C002C0E0E02FC026FE02C0F69901C0DC
:10229A000AC0A0910002A13020F0A0910002A4304F
:1022AA0008F001C001C002C0E0E01DC026FE05C062
:1022BA0022FC02C032FE01C001C00CC04FD351F44F
:1022CA00A0910002A63020F0A0910002A93008F0E7
:1022DA0001C001C002C0E0E006C0E0910002F0E0E7
:1022EA00EF5FFD4FE081EA930E94AD02A091DF0209
:1022FA00AF5FA093DF02A536B0F0E0E0E093DF0223
:10230A00A0E026FCA1E0B2D326F8E0E0E81510F43C
:10231A008A9409C0F298F498F698E89422F820F87A
:10232A0024F832F830F8E991EFBFF991E991B991BF
:10233A00A9919991899179916991F9901990099046
:10234A0018952697E0E0EA83EB830E94DF00289A3B
:10235A000E94ED01AA81BB811196AA83BB83A03991
:10236A00E1E0BE0710F40C942612E7E0EA930E941B
:10237A00C600E0933802F0933902FA93EA93E0E850
:10238A00EA93A3E0B0E00E94A117EA93E0E4EA939B
:10239A00A2E0B0E048D5E0933C02F0933D02E1E0D0
:1023AA00EA930E94C600E0934B02F0934C02FA9320
:1023BA00EA93E2E0EA93ADE0B0E00E94A117EA9363
:1023CA00E1E0EA93ACE0B0E02ED5E0934F02F0935F
:1023DA005002E6E0EA930E94C600E0931202F093EC
:1023EA001302FA93EA93E0E2EA93A7E1B0E00E94CB
:1023FA00A117EA93E0E1EA93A6E1B0E014D5E093ED
:10240A001602F0931702E0E0EA930E94C600E093F6
:10241A002502F0932602FA93EA93E8E0EA93A1E20E
:10242A00B0E00E94A117EA93E4E0EA93A0E2B0E0E8
:10243A00FAD4E0932902F0932A02E0E0EA83EB83DC
:10244A000BDD10E0F19B34C0F29B02C072D304C0D2
:10245A00E0913C02F0913D02EC83FD836AD333970D
:10246A00AC81BD81AE17BF0710F4106420C061D3E0
:10247A003396AC81BD81EA17FB07C0F4A0E026FCC5
:10248A00A1E0EA2FE295E07FEE0FEE0F1E2BAC8162
:10249A00BD81A139E1E0BE0740F0A0E026FEA1E03F
:1024AA00EA2FE295E07FEE0F1E2B01C0106201C0F9
:1024BA001060F39B20C0F49B05C040914D025091DF
:1024CA004E0204C040914F025091500241D33397BB
:1024DA004E175F0710F414600DC03AD33396E41711
:1024EA00F50738F4A5D44139E1E05E0708F0A8D42D
:1024FA0001C0126001C01060F59B2BC0F69B05C09D
:10250A00209114023091150204C0209116023091D4
:10251A0017022DD333972E173F0710F4186018C0EF
:10252A0026D33396E217F30790F4A0E026FCA1E045
:10253A00EA2FEE0FEE0FEE0F1E2B2D3BE2E03E07C9
:10254A0028F0A0E026FEA1E0EA2F1E2B01C01160B0
:10255A0007C0F79B04C02091160230911702106041
:10256A0021FE20C022FE05C0409127025091280278
:10257A0004C04091290250912A0211D333974E1771
:10258A005F0710F414600DC00AD33396E417F507F9
:10259A0038F44ED44D3BE2E05E0708F051D401C056
:1025AA0012600AC022FE02C023FC01C004C040918E
:1025BA00290250912A021060A0910002A43011F061
:1025CA000C944A141093060227FED0C040D4E4911A
:1025DA00E4D1E09302023BD43196E491DED1E09358
:1025EA00030235D43296E491D8D1E093040231FE45
:1025FA0048C0E1E0E71519F0E2E0E71561F432FEC0
:10260A0003C09882A98206C0E0911202F0911302D7
:10261A00E883F98335C0E3E0E71519F0E4E0E7154C
:10262A0061F432FE03C09882A98206C0E0912502B5
:10263A00F0912602E883F98323C0E5E0E71519F053
:10264A00E6E0E71561F432FE03C09882A98206C06B
:10265A00E0913802F0913902E883F98311C0E7E08A
:10266A00E71519F0E8E0E71559F432FE03C098823D
:10267A00A98206C0E0914B02F0914C02E883F983EB
:10268A0005C021D20E948E17E883F983EAE0E71594
:10269A0011F4ED2D0AC0EBE0E71511F4EE2D05C09B
:1026AA00ECE0E71529F4E0915E02F0E0E883F983B3
:1026BA00E9E0E715B1F4E0918702E0930702E7D079
:1026CA00E13031F4E0919802E0930802E0E006C0BC
:1026DA00E0919102E0930802E0919102E0930902ED
:1026EA0015C0ECE0E71569F4E0919B02E09307025C
:1026FA00E0E0E0930802E0915E024FD1E093090224
:10270A0005C0E881F981FA93EA93A8D331FC05C0A0
:10271A00A9E0B2E0EC91E062EC9331FE03C0B8822A
:10272A00C98205C0E72D0FD1E4D1E883F983E9E036
:10273A00E71549F0EAE0E71531F0EBE0E71519F0A3
:10274A00ECE0E71541F4E0E0E0930B02E0930C02C1
:10275A00E0930D020AC0E881F98184D331FC05C0F7
:10276A00ADE0B2E0EC91E062EC938FC06BD1A93A94
:10277A00E2E0BE0768F0E0919202E0930202E09183
:10278A009302E0930302E0919302E093040222C0D1
:10279A00F79902C0F59B06C0E091240269D3009222
:1027AA00050203C0E0E0E093050220FE0DC0E091BF
:1027BA009102E0930202E0E4E0930302E091240232
:1027CA00ECD0E093040206C03A932A93E1E0EA933C
:1027DA000E9479023CD1A93AE2E0BE0710F021FC3E
:1027EA0008C03FD1A93AE2E0BE0710F0F39901C050
:1027FA000DC0E0919202E0930702E0919302E09308
:10280A000802E0919302E093090228C021FC02C069
:10281A0023FE06C0E09137022BD300920A0203C0BE
:10282A00E0E0E0930A0221FC02C022FE10C024FE6E
:10283A000DC0E0919102E0930702E0E4E093080200
:10284A00E0913702AAD0E093090201C016D3F399A6
:10285A0014D325FE03C0B1D14E2F552725FC0DD325
:10286A00FBD0A93AE2E0BE0768F0E0919202E09359
:10287A000B02E0919302E0930C02E0919302E09341
:10288A000D0203C0EC81FD81EDD262CDFFCFA8E13C
:10289A00B0E00E94A1170895A8E1B0E0E1E00E942B
:1028AA00B5170895A0E7B0E00E94A117E0932402AB
:1028BA000895A1E7B0E00E94A117E09337020895B6
:1028CA00E12FA0E6B2E0F0E0EE0FFF1F0895EA0F55
:1028DA00FB1F0F01E12F0895ACE3B0E0F0E0EE0F2B
:1028EA00FF1F0895AE0FBF1F0E949D17D001ED93E1
:1028FA00FC930895E12FA2E7B2E0F0E0EE0FFF1F8C
:10290A000895AAE5B0E0F0E0EE0FFF1F0895E09306
:10291A003A02F0933B020895E0934D02F0934E027F
:10292A000895E0931402F09315020895E0932702A4
:10293A00F09328020895AE0FBF1F0E948E17D00190
:10294A000E94AD170895A2E7B2E0F0E0EE0FFF1F74
:10295A000895A0E0F199A1E0A0300895A0E0F399CC
:10296A00A1E0A0300895A0E025FCA1E0A0300895E0
:10297A00AA81BB81E4E6F0E00895E981EF5FE9838B
:10298A00E150F0E0EF5FFD4F0895DF01E12FF0E045
:10299A00E957FD4FE081EC930895F0E0E957FD4FC8
:1029AA00E0810895F0E0EE0FFF1FEA0FFB1F089584
:1029BA00A0E021FCA1E0A0300895A0E0F599A1E0F3
:1029CA00A0300895E0910002F0E0E656FF4F089526
:1029DA00E091A502F091A6020895E6EEF0E0E093F8
:1029EA00A302F093A4020895E091A002EF5FE0939E
:1029FA00A002A091A002A5300895ED91FD91319712
:102A0A00FE93EE930895AC85BD85EE85FF85EA1B9E
:102A1A00FB0B0895A2E3B0E00E94A1170895E09588
:102A2A00EA23A2E3B0E00E94B5170895EA2BA2E3D5
:102A3A00B0E00E94B517EFEFFFEF0895E72DA0E68B
:102A4A00B2E0B0CFA0911202B09113020895A09102
:102A5A002502B09126020895A0913802B091390258
:102A6A000895A0914B02B0914C020895E1E0EA2743
:102A7A000E94CA170895A6E1B0E0E0E00E94B517E7
:102A8A00A7E1B0E00E94B5170895A0E2B0E0E0E047
:102A9A000E94B517A1E2B0E00E94B5170895A2E01E
:102AAA00B0E0E0E00E94B517A3E0B0E00E94B517DD
:102ABA000895ACE0B0E0E0E00E94B517ADE0B0E008
:102ACA000E94B5170895E72DA0E6B2E0F0E0EE0FF8
:102ADA00FF1FAE0FBF1F0895ED91FD913196FE9332
:102AEA00EE930895E0E0E0939F02E8ECEA930C94F9
:102AFA00C601AE0FBF1F0E948E170895E0E0E09353
:102B0A009F02EEE1EA930C94C601A0913A02B091B9
:102B1A003B020895A4E0B0E00E94A117F6CFF0E0CE
:102B2A00EA0FFB1F0895F0E00E949617EA1BFB0BC1
:102B3A000895E0913A02F0913B020895A0914D0266
:102B4A00B0914E020895AEE0B0E00E94A117F6CF10
:102B5A00E0914D02F0914E020895A0911402B091B5
:102B6A0015020895A9E1B0E00E94A117F6CFE091FD
:102B7A001402F09115020895E0932402E0912402D0
:102B8A00A0E7B0E00E94B5170895A0912702B0917E
:102B9A0028020895A2E2B0E00E94A117F6CFE091C0
:102BAA002702F09128020895E0933702E091370254
:102BBA00A1E7B0E00E94B5170895A8E2B0E00E942C
:102BCA00A1170895AE0FBF1FE0E0F0E00895E02FCF
:102BDA00A091A902EA0FE093A90208950A921A9213
:102BEA00FA926A937A938A939A93AA93BA93EA93F4
:102BFA00FA93EFB7EA930895E091AC02F091AD022F
:102C0A000895E0913C02F0913D02FA93EA930C9404
:102C1A00A30AFA93EA930C94A30AE0913802F0917A
:102C2A003902F7CFE0914002F0914102F2CFE091F0
:102C3A004202F0914302EDCFE0913E02F0913F0251
:102C4A00E8CFE0911602F0911702E3CFE091120269
:102C5A00F0911302DECFE0911A02F0911B02D9CF54
:102C6A00E0911C02F0911D02D4CFE0911802F0917C
:102C7A001902CFCFE0912902F0912A02CACFE0913E
:102C8A002502F0912602C5CFE0912D02F0912E0285
:102C9A00C0CFE0912F02F0913002BBCFE0912B021E
:102CAA00F0912C02B6CFE0914F02F0915002B1CFD1
:102CBA00E0914B02F0914C02ACCFE0915302F091BB
:102CCA005402A7CFE0915502F0915602A2CFE091AB
:102CDA005102F09152029DCFE091AE02F091AF0203
:102CEA000895E091B002F091B10208950E94A117EF
:102CFA00EA930C94820AFA93EA930C948B0AA091B1
:102D0A00B402B091B502E4E60E945A170895E09120
:102D1A00B602F091B702EA0FFB1F0895A091B8021C
:102D2A00B091B902E4E60E945A170895E091BA02F6
:102D3A00F091BB02EA0FFB1F0895A091BC02B0916B
:102D4A00BD02E4E60E945A170895E091BE02F0918E
:102D5A00BF02EA0FFB1F0895A091C002B091C10201
:102D6A00E4E60E945A170895E091C202F091C30264
:102D7A00EA0FFB1F0895A091C402B091C502E4E6D0
:102D8A000E945A170895E091C602F091C702EA0F0D
:102D9A00FB1F0895A091C802B091C902E4E60E94FF
:102DAA005A170895E091CA02F091CB02EA0FFB1F6D
:102DBA000895A091CC02B091CD02E4E60E945A1780
:102DCA000895E091CE02F091CF02EA0FFB1F089519
:102DDA00A091D002B091D102E4E60E945A17089558
:102DEA00E091D202F091D302EA0FFB1F0895AE855B
:102DFA00BF850E948E170895AA85BB850E948E17EB
:102E0A000895FA93EA930C94820EE091DD02F09110
:102E1A00DE02EA17FB070895A091DD02B091DE02F7
:102E2A00EA17FB0708950E94A117EA930C944F0E24
:102E3A00A0E026FCA1E0EA2FEE0FEE0F1E2B08956C
:102E4A00A0E026FEA1E0EA2FEE0F1E2B0895E72D43
:102E5A00A3E0EA9FF001E455FF4F0895E6E0EA9304
:102E6A000C947902FA93EA93EAE0EA930C947902D1
:102E7A00F0E0EE56FF4F049008955A934A93EECF2E
:102E8A00F195E195F0400895EE230E2EFD0121F013
:102E9A00F695E7950A94E1F70895FA9FF02DEB9FCE
:102EAA00F00DEA9FE02DF10D08956E2F6A9FF00153
:102EBA006B9FF00D08951FD0F0DF0EF4E1DF089547
:102ECA000024112490E1AA0FBB1F001C111C0E1A2A
:102EDA001F0A18F40E0E1F1E01C0A1609A9599F7D9
:102EEA00FD01D001089507D0EBDF0EF4C9DF089584
:102EFA00E7DFFD010895E894F7FF02C0C1DF689497
:102F0A00B7FF06C0A095B095119600F8039400FA91
:102F1A000895ED91FC91119708950590F491E02D93
:102F2A0008951B2EBF2FF12D1A2EAE2FE12D0895D5
:102F3A00119602D0FE2F1197F999FECFFF93FFB792
:102F4A00F894A1BDB2BDF89AE0B5FFBFFF9108950C
:102F5A0007D01196EF93EF2F03D0EF9111970895B1
:102F6A00F99B02C0A895FCCF9FB7F894A1BDB2BD4A
:102F7A00F89A80B5E81719F0E0BDFA9AF99A9FBF56
:102F8A00089500240A160B060895E894EE2309F022
:102F9A00689408955A934A933A932A931A930A93F0
:102FAA0008955D814C813B812A81198108810895A8
:00000001FF
