:060000000C9470000C944A
:1000060000000C9400000C9400000C9400000C946A
:1000160000000C9400000C9400000C9400000C945A
:10002600AD0C0C9400000C9400000C9400000C9491
:1000360000000C9400000C9400000C94390C0C94F5
:1000460000000C947B080C9400000C9400000C94A7
:1000560000000C9400000C9400000C9400000C941A
:10006600000000000800100020000400800040008E
:10007600000400080040008000100020FF64829BFE
:10008600B4CDE6FF0040C0E0F0F8FAFE000A0A0F21
:100096000F05050B0B1000000C00070007009F81E1
:1000A6005DD5C3D6DE85DFD74E5E48CB1A4F9EC8D8
:1000B60000000001020002009C00010000029E00F8
:1000C60001002E02A00001003902A2001200420225
:1000D600A40004000A00B6000000F894EE27EFBB67
:1000E600F1E0F5BFE5BFF8E1A895A4B7A77FA4BFE7
:1000F600F0936000E09360008DE0A2E0BB27ED93F3
:100106008A95E9F780E094E0A0E0B1E0ED930197ED
:10011600E9F7EAEBF0E085919591009761F0A591FA
:10012600B59105901590BF01F00105900D920197CC
:10013600E1F7FB01F0CFE0E0EEBBEFEFEDBFE4E06F
:10014600EEBFC0E0D2E00C94CC0DE881E0937C00D9
:100156008BE18A95F1F7E0917A00E064E0937A000A
:10016600E0917A00E071E1F3E0917A00E061E093DA
:100176007A00E0917800F0917900A4C0E0E8E0937D
:100186006100E0E0E0936100E0E2E5B9EFEDE4B99B
:10019600E4E4E8B9E8E3E7B9E0E0EBB9ECEFEAB9A3
:1001A600E0E0E4BDE3E0E5BDE0E0E6BDE7BDE8BDD7
:1001B600E3EAE0938000E3E0E0938100E0E0E0938F
:1001C6008500E0938400E0938700E0938600E09347
:1001D6008900E0938800E0938B00E0938A00E09327
:1001E600B600E093B000E4E0E093B100E3E8E0930A
:1001F600B200E0E0E093B300E093B400E09369005E
:10020600EDBBE0936800E1E0E0936E00E0E0E09390
:100216006F00E1E0E0937000E0E0E093C000E8E901
:10022600E093C100E6E0E093C200E0E0E093C500A1
:10023600E9E1E093C400E0E8E0BFE0E0E0937B00A2
:10024600E0937E00E0937C00E3E8E0937A00789404
:100256000E944911E23028F0A8E1B0E0E1E00E94F6
:100266007313A4E3B0E00E945F13CE2EA6E3B0E0C2
:100276000E945F13E09340020895A881A13028F000
:10028600A0E032FCA1E0A03009F005C0E881E093CF
:100296004102689432F8E881E030A1F432FE04C0ED
:1002A600A0914102A13008F406C05C9AE091410297
:1002B600E150E0934102E0914102E03019F45C988C
:1002C600E89432F82196089522971A93459827FCC8
:1002D60044C0A0910002AA3060F0A0910002AD30A7
:1002E60040F4A0E0F299A1E0A03019F40E944E116A
:1002F60009F002C0E0E4EB83A0910002A630B8F05A
:10030600A0910002A93098F40E94531181F40E9432
:10031600581169F40E945D1151F4A0E022FCA1E09D
:10032600A03029F4A0E023FCA1E0A03009F002C02F
:10033600E0E4EB83A0910002A13060F0A0910002FE
:10034600A43040F40E94621129F4A0E0F799A1E0DC
:10035600A03009F002C0E0E4EB83E0910002A8E6D9
:10036600B0E00E946711EA0FFB1F0E945013E98359
:10037600FA8310E0183168F5183070F4EB81E078F4
:10038600EE1FE0E0EE1FE03011F4439801C0439AFF
:10039600EB81EE0FEB8313C0E981FA81E070F07810
:1003A600DF01EFE00E941213E03011F4439801C020
:1003B600439AE981FA81EE0FFF1FE983FA83459A92
:1003C60085E08A95F1F7459885E08A95F1F71F5FF4
:1003D600D1CF449885E08A95F1F7449A18812496FE
:1003E6000895E0915402E03011F00C941703E09167
:1003F6005502E03011F00C9407031D9953C0E091AB
:100406000002E13021F40E946B11319647C0E230C0
:1004160021F40E946B11329641C0E33021F40E9410
:100426006B1134963BC0E43021F40E946B11389670
:1004360035C0E53021F40E946B1170962FC0E6306E
:1004460021F40E946B11B09629C0E73029F40E946E
:100456006B11E05CFF4F22C0E83029F40E946B115B
:10046600E058FF4F1BC0E93029F40E946B11E050A1
:10047600FF4F14C0EA3029F40E946B11E050FE4F82
:100486000DC0EB3029F40E946B11E050FC4F06C002
:10049600EC3041F40E946B11E050F84FE0935602A5
:1004A600F0935702A0910002A43039F4A0915602AD
:1004B600B09157020E94841308F0A5C00E946B11E8
:1004C600E830A0E0FA0711F4E1E076C0E230A0E0FF
:1004D600FA0711F4E3E070C0E130A0E0FA0711F486
:1004E600E2E06AC0E030A8E0FA0711F4E5E064C093
:1004F600E031A0E0FA0711F4E6E05EC0E430A0E0E7
:10050600FA0711F4E7E058C0E032A0E0FA0711F468
:10051600E4E052C0E034A0E0FA0711F4E8E04CC091
:10052600E030A1E0FA0711F4E9E046C0E030A4E0CB
:10053600FA0711F4ECE040C0E030A2E0FA0711F44B
:10054600EBE03AC0E038A0E0FA0711F4EAE034C084
:10055600E330A0E0FA0739F40E94701119F4E9E1DA
:10056600E09354022BC0E432A0E0FA0739F40E946B
:10057600701119F4E3EDE093540220C0E030A6E0D8
:10058600FA0739F40E94701119F4EFEDE093540262
:1005960015C0E330A6E0FA0739F40E94701119F489
:1005A600E4EEE09354020AC0E130A2E0FA0731F427
:1005B6000E94701119F4E5EDE093540233FC12C069
:1005C600E0915902EF5FE0935902EAEFE09355029A
:1005D600A0915902A53029F4689433F8E0E0E0933D
:1005E600590206C0EFE0E0935A02E1E0E0935502BB
:1005F600E0E0E0935602E0935702A0915802A5313D
:1006060010F0E093580205C0E0915502E150E093E6
:10061600550233FE09C0E0915A02E150E0935A02B6
:10062600E03011F4E89433F808950E948D130E9487
:100636007911AA85BB85AE1BBF0BE885F985AE1B74
:10064600BF0BE4E6F0E00E941B130F01AC85BD85ED
:10065600E885F985EA1BFB0BD0010E9437138F0151
:10066600112342F00E948011AE2FEE810E94851167
:10067600502F08C00E948011AE810E948C11E01B91
:10068600F10B5E2F0E947911BF01F801AC85BD8583
:100696000E949411DB01AE1BBF0B9D01332342F078
:1006A6000E948011AE2FEF810E948511422F08C053
:1006B6000E948011AF810E948C11E21BF30B4E2F1A
:1006C600E1E0ED1519F0E2E0ED1549F4E42FA7E1BC
:1006D600B0E00E947313E52FA6E1B0E02CC0E3E082
:1006E600ED1519F0E4E0ED1549F4E42FA1E2B0E0D0
:1006F6000E947313E52FA0E2B0E01DC0E5E0ED1502
:1007060019F0E6E0ED1549F4E42FA3E0B0E00E940D
:100716007313E52FA2E0B0E00EC0E7E0ED1519F087
:10072600E8E0ED1551F4E42FADE0B0E00E9473135C
:10073600E52FACE0B0E00E9473130E94941360961C
:100746000895A0915402A33041F4D394E9E0ED1545
:1007560010F4E1E0DE2EE89430F8A0915402A230C5
:1007660041F4DA94E1E0DE1610F4E9E0DE2EE894D6
:1007760030F8A0915402A93011F00C94020430FE16
:100786003EC0E1E0ED1519F0E2E0ED1539F40E9406
:100796009C11AE0FBF1F0E94A01126C0E3E0ED150D
:1007A60019F0E4E0ED1539F40E949C11AE0FBF1F5D
:1007B6000E94A51119C0E5E0ED1519F0E6E0ED156A
:1007C60039F40E949C11AE0FBF1F0E94AA110CC0E3
:1007D600E7E0ED1519F0E8E0ED1541F40E949C11F3
:1007E600AE0FBF1F0E94AF110E946B130E94B4117F
:1007F600AE0FBF1FF5010E946B13E89430F8A0916D
:100806005402A13031F4A0E030FCA1E00E94B811FE
:1008160030F8A0915402A630C9F5E1E0ED1519F0C3
:10082600E2E0ED1559F4A0E0F599A1E0E1E0EA2750
:1008360011F4F59801C0F59AF79A28C0E3E0ED1592
:1008460019F0E4E0ED1549F4A0E021FCA1E00E94D6
:10085600B81121F8689423F819C0E5E0ED1519F0F0
:10086600E6E0ED1539F40E94BD1111F4F19801C0CE
:10087600F19A0CC0E7E0ED1519F0E8E0ED1531F45A
:100886000E94BD1111F4F19801C0F19AA091540291
:10089600A83019F4E9E0ED1509F008C00E944911E5
:1008A600A1E0EA27A8E1B0E00E947313A0915402E8
:1008B600A43011F00C94AA0430FE42C031FE3BC0B5
:1008C600E1E0ED1519F0E2E0ED1561F40E94C311C7
:1008D600E23CA1E0FA0728F40E94C3113A960E946E
:1008E600C81129C0E3E0ED1519F0E4E0ED1561F457
:1008F6000E94CD11EC32A1E0FA0728F40E94CD1136
:100906003A960E94D21117C0E5E0ED1549F0E6E0EF
:10091600ED1531F0E7E0ED1519F0E8E0ED1559F4C5
:100926000E94D711E039A1E0FA0728F40E94D711F6
:1009360035960E94DC11689431F8EFE08E2E07C0E0
:100946000E949C110E94E11131960E946B13A091A6
:100956005402A73011F00C94F70430FE3EC031FE6D
:1009660037C0E1E0ED1519F0E2E0ED1551F40E9413
:10097600C311F39728F00E94C3113A970E94C81139
:1009860027C0E3E0ED1519F0E4E0ED1551F40E94FF
:10099600CD11F39728F00E94CD113A970E94D211FB
:1009A60017C0E5E0ED1549F0E6E0ED1531F0E7E0BA
:1009B600ED1519F0E8E0ED1559F40E94D711E5366A
:1009C600A0E0FA0728F00E94D71135970E94DC11A3
:1009D600689431F8EFE08E2E07C00E949C110E94A9
:1009E600E11131970E946B13A0915402A53029F4AE
:1009F600A0E030FCA1E0A03009F06DC0E1E0ED150B
:100A060019F0E2E0ED15A1F4ACE5B0E00E94E611C4
:100A1600AEE3B0E00E94E611AEE5B0E00E94E6115A
:100A2600A0E4B0E00E94E611E0E2EA93E0E14DC006
:100A3600E3E0ED1519F0E4E0ED15A1F4A0E6B0E071
:100A46000E94E611A2E4B0E00E94E611A2E6B0E040
:100A56000E94E611A4E4B0E00E94E611E8E0EA9301
:100A6600E4E033C0E5E0ED1519F0E6E0ED15A1F49C
:100A7600A4E6B0E00E94E611A6E4B0E00E94E6110A
:100A8600A6E6B0E00E94E611A8E4B0E00E94E611F6
:100A9600E0E8EA93E0E419C0E7E0ED1519F0E8E0D4
:100AA600ED15A9F4A8E6B0E00E94E611AAE4B0E0CC
:100AB6000E94E611AAE6B0E00E94E611ACE4B0E0BE
:100AC6000E94E611E1E0EA93E2E0EA93AEDDE89403
:100AD60027F80E94EB11A0915402AC3091F430FE3D
:100AE60009C0E4EFF1E0AE16BF0618F4F501319641
:100AF6005F0107C00E94B4110E94E11131960E9465
:100B06006B13A0915402AB3091F430FE09C0E1E0C2
:100B1600F0E0EA15FB0518F4F50131975F0107C00F
:100B26000E94B4110E94E11131970E946B13A091AB
:100B36005402AA3011F430FC01C004C0A0903E0259
:100B4600B0903F02A0915402A13010F00E94F21121
:100B560008951A93A0915402AA3031F40E94BD114F
:100B660011F4F19801C0F19AA0915402AC3011F041
:100B7600AB3011F4F19901C02DC0F29B28C0A091B1
:100B86005402AC3031F40E94D711E039A1E0FA07E3
:100B960008F009C00E94D7110F010E94F9110E94A6
:100BA600FE110E94DC11A0915402AB3031F40E9478
:100BB600D711E536A0E0FA0708F409C00E94D7115C
:100BC6000F010E94F9110E9402120E94DC11F29A92
:100BD600EFE08E2EA0915402A93031F40E945811F4
:100BE60019F40E945D1109F009C0A0E0F399A1E093
:100BF600E1E0EA2711F4F39801C0F39AA0915402B8
:100C0600A43011F0A73011F4F39901C031C0F49B60
:100C16002CC0A0915402A43031F40E940912E0398C
:100C2600A1E0FA0708F00BC00E9409120F010E940A
:100C36000E120E94FE11AAE0B0E00E946B13A09172
:100C46005402A73031F40E940912E536A0E0FA07F3
:100C560008F40BC00E9409120F010E940E120E9496
:100C66000212AAE0B0E00E946B13F49AEFE08E2E17
:100C7600A0E03299A1E0A03011F4F59901C003C0BB
:100C8600E5E0E0935402A0915402A530D1F4A0E02F
:100C9600F599A1E0E1E0EA2711F4F59801C0F59A8B
:100CA600F79AF59902C02F9801C02F9AA0E03299C1
:100CB600A1E0A03021F40E944911E13009F001C001
:100CC600F598F59B5EC0A0915402A33019F0A230AE
:100CD60009F04AC020FC2AC0F69B26C0A091540207
:100CE600A33031F40E94C311E23CA1E0FA0708F0F8
:100CF60009C00E94C3110F010E9413120E94FE1127
:100D06000E94C811A0915402A23021F40E94C3117E
:100D1600F39708F409C00E94C3110F010E94131231
:100D26000E9402120E94C811F69A1CC0A091540299
:100D3600A33021F4A0912E02A73008F005C0E0915F
:100D46002E02EF5FE0932E02A0915402A23021F40E
:100D5600A0912E02A23008F405C0E0912E02E150C7
:100D6600E0932E02EFE08E2EA0915402A13041F4C2
:100D7600A0E020FCA1E00E94B81120F8EFE08E2E42
:100D860017C0F59915C0A0912502B0912602999732
:100D960040F0A0912502B0912602AD3BE2E0BE07ED
:100DA60008F0F798F79B04C0F69AE7E0E0932E0266
:100DB600A0915402A63031F40E94581119F40E94F1
:100DC600531109F00DC0A0E021FCA1E00E94B8116A
:100DD60021F8689423F821FC02C05B9801C05B9A55
:100DE60021FC29C0A0915402A83069F4A0E025FC9A
:100DF600A1E00E94B81125F825FC02C02E9801C07A
:100E06002E9AE89422F80E941812999730F00E94C0
:100E16001812AD3BE2E0BE0710F0E89423F823FE7B
:100E260003C00E94581109F005C0689422F8E7E053
:100E3600E093390260C021FE5EC0A0915402A43046
:100E460019F0A73009F04BC024FC2BC022FE26C0A7
:100E5600A0915402A43031F40E94CD11EC32A1E0ED
:100E6600FA0708F009C00E94CD110F010E941D1259
:100E76000E94FE110E94D211A0915402A73021F4C3
:100E86000E94CD11F39708F409C00E94CD110F01FD
:100E96000E941D120E9402120E94D211689422F82A
:100EA6001CC0A0915402A43021F4A0913902A730AD
:100EB60008F005C0E0913902EF5FE0933902A09196
:100EC6005402A73021F4A0913902A23008F405C0DB
:100ED600E0913902E150E0933902EFE08E2EA091C5
:100EE6005402A83041F4A0E024FCA1E00E94B8110D
:100EF60024F8EFE08E2E25FE20C0A0915402A430E7
:100F060021F40E942212E43608F007C00E94221241
:100F1600EB5FA8E2B0E00E947313A0915402A730E1
:100F260021F40E942212EB3008F407C00E9422121C
:100F3600E550A8E2B0E00E947313A0915402A43ECB
:100F460031F40E94621119F40E944E1109F081C019
:100F5600A0E0B0E0E6EEF0E00E946B13A2E0B0E0A5
:100F6600E0E00E947313A3E0B0E00E947313A4E0D4
:100F7600B0E0E5E00E947313AAE0B0E0E1EEF0E035
:100F86000E946B13ACE0B0E0E0E00E947313ADE0AA
:100F9600B0E00E947313AEE0B0E0E5E00E94731388
:100FA600A4E1B0E0E8E1F1E00E946B13A6E1B0E055
:100FB600E0E00E947313A7E1B0E00E947313A9E179
:100FC600B0E0EAE00E947313AEE1B0E0E8E7F0E0DB
:100FD6000E946B13A0E2B0E0E0E00E947313A1E26E
:100FE600B0E00E947313A2E2B0E0EAE00E9473133D
:100FF600A8E2B0E0E2E30E947313A2E3B0E0E0E00F
:101006000E947313A8E1B0E0E1E00E947313EFE0E1
:10101600CE2EA4E3B0E00E947313EEE1E09340020B
:10102600A6E3B0E00E94731310E01A3080F4E12FBB
:10103600ACE3B0E00E9467110E942712E12FAAE5F7
:10104600B0E00E9467110E9427121F5FEECF0E9438
:10105600EB11A0915402A53D79F40E944E1149F47A
:101066000E94531131F40E94621119F40E945D111D
:1010760009F002C00E94EB11F19906C0F39904C071
:10108600F59902C021FE02C05F9A01C05F98A09147
:101096005402A13010F00E94F21119910895E091C6
:1010A600C000E072E1F3E881E093C600219608955E
:1010B6001A930A93AA81BB810E942E128F010E9465
:1010C6003312A4E6A09FF001A19FF00DAA81BB8177
:1010D600AE1BBF0B8D010E94331219810881249625
:1010E6000895EFE4EA93DBDFEBE40E943C120895F7
:1010F6000E9443120E948F133FB7F8941091C600C6
:101106003FBF1C3F51F4E0E0E0937C02E0935C02B9
:10111600E0935D02E0935B02D6C1E0917C02ACE510
:10112600B2E00E946711AE0FBF1FE12FF0E0ED9312
:10113600FC93E0917C02A0915C02B0915D02F0E02C
:10114600EA17FB0721F4A0917C02A13008F4B6C18E
:101156000E945112E635A0E0FA0711F00C94160928
:10116600E6E5EA939CDF0E945612A2DF0E94D711A1
:101176000E945D12E0911602F09117020E945D1224
:10118600E0911402F09115020E945D120E94AA11CC
:101196000E945D120E9461120E945D120E94C3119C
:1011A6000E945D12E0912902F0912A020E945D12CE
:1011B600E0912702F09128020E945D120E94A01180
:1011C6000E945D120E9466120E945D120E94CD115D
:1011D6000E945D12E0913402F09135020E945D1288
:1011E600E0913302F0E00E945D120E94A5110E9478
:1011F6005D120E946B120E945D120E94701258DFEF
:10120600E0911F02F09120020E945D12E0911E0201
:10121600F0E00E945D120E94AF110E945D12E09103
:101226005B020E943C120E945112E234A0E0FA07CF
:1012360021F4E0916002E09354020E945112E035DD
:10124600A0E0FA0731F40E947312E337A0E0FA0730
:1012560009F029C00E947812E133A0E0FA07D9F418
:10126600F09AA0916402B0916502E4E60E9423130D
:10127600E0930E02F0930F02E0916602F09167028E
:10128600A0910E02B0910F02EA0FFB1FE0930E022F
:10129600F0930F0207C00E947812E033A0E0FA072D
:1012A60009F4F0981EDF0E945112ED34A0E0FA070F
:1012B60009F417DF0E945112EB34A0E0FA0711F08F
:1012C6000C94FF090E947312EF33A0E0FA07D9F5D8
:1012D600EBE6EA93E4DEE6E6EA93E1DEA3E0B0E0DD
:1012E6000E947D12A2E0B0E00E947D12A7E1B0E06C
:1012F6000E947D12A6E1B0E00E947D12A1E2B0E05C
:101306000E947D12A0E2B0E00E947D12ADE0B0E046
:101316000E947D12ACE0B0E00E947D120E94801116
:10132600EA93BDDE0E94F911EA93B9DE0E940E121D
:10133600EA93B5DE0E941312EA93B1DE0E941D12F3
:10134600EA93ADDE56C00E947312E132A0E0FA07BE
:1013560011F00C94FC09E0916202A3E0B0E00E9457
:101366007313E0916402A2E0B0E00E947313E0916F
:101376006602A7E1B0E00E947313E0916802A6E15D
:10138600B0E00E947313E0916A02A1E2B0E00E940D
:101396007313E0916C02A0E2B0E00E947313E09137
:1013A6006E02ADE0B0E00E947313E0917002ACE013
:1013B600B0E00E947313E0917202A2E3B0E00E94D3
:1013C6007313E0917402A4E0B0E00E947313E091FD
:1013D6007602AEE0B0E00E947313E0917802A9E1D4
:1013E600B0E00E947313E0917A02A2E2B0E00E949C
:1013F6007313E1E50E943C120E945112EA35A0E007
:10140600FA0731F40E947312E435A0E0FA0709F0F6
:1014160014C00E947812EF33A0E0FA0771F4EAE7ED
:10142600EA933DDEE4E7EA933ADE01E0093010F4A0
:101436000F5FFCCFEBEFEA9332DE0E945112E035EC
:10144600A0E0FA0731F40E947312EF34A0E0FA0725
:1014560009F034C00E947812EF33A0E0FA0781F455
:10146600E0E7EA931CDEEFE6EA9319DECA9217DE9E
:10147600E0914002EA9313DE09D7EA9310DE1BC01F
:101486000E947812E132A0E0FA07A9F4C090640243
:10149600EC2DA4E3B0E00E947313E0916602E093A2
:1014A6004002A6E3B0E00E947313E0916802A8E14F
:1014B600B0E00E947313EBEFEA93F1DDE0917C025A
:1014C600EF5FE0937C020E949613249654C31A930E
:1014D6000A93AC81BD81EE81FF81EA1BFB0B8F0174
:1014E6000230E0E01E0764F0AA81BB81A43FE1E080
:1014F600BE0728F4EA81FB813196EA83FB830EC09E
:101506000F3FEFEF1E0754F4AA81BB810E9484139C
:1015160028F4EA81FB813197EA83FB83EA81FB8128
:101526001981088128960895F19B0EC03DD7FA933C
:10153600EA93B9D7E0911602F0911702E0D7E0934B
:101546001602F093170205C0E0E0E0931602E0935E
:101556001702F39B0EC0C1D7BBD7FA93EA93E0916B
:101566001F02F0912002CBD7E0931F02F0932002D6
:1015760005C0E0E0E0931F02E0932002F59B0CC05B
:10158600FFD6C1D7E0912902F0912A02B8D7E0939D
:101596002902F0932A0205C0E0E0E0932902E093D5
:1015A6002A0221FE0CC0F6D6B4D7E0913402F0919F
:1015B6003502A5D7E0933402F093350205C0E0E08A
:1015C600E0933402E093350208951A930A93ED816D
:1015D600FE81AB81BC81EA17FB0788F0EA81F0E067
:1015E600EA0FFB1FAD81BE81EA17FB0740F4AB8112
:1015F600BC81ED81FE81EA1BFB0B8F0102C000E07E
:1016060010E0F80119810881279608950E948F132A
:10161600EC81A885B985F0E084D68F016ED6AD81C0
:10162600EA23AE2FED81EA1729F4E885F985E01B58
:10163600F10B05C0F801A885B985EA0FFB1F9F01CC
:101646005CD6AF81EA23AE2FEF81EA1741F4EE8133
:10165600D901F0E00E945413EA1BFB0B04C0EE8193
:10166600F0E0E20FF31F0E9496132A960895F09970
:1016760072C09AD6FA93EA9316D7E2E0EA93A5DF08
:10168600EE0FFF1FA0911602B0911702EA0FFB1F83
:1016960046D7F39B08C0A0912102B0912202AE3E2C
:1016A600E2E0BE0708F00CC018D712D7FA93EA9307
:1016B600E2E0EA938ADFEE0FA0911F02EA0F01C073
:1016C600E0E0E0931E02A0911E02AB3F18F0EAEFA5
:1016D600E0931E0255D617D7E5E0EA9376DFEE0FC4
:1016E600FF1FA0912902B0912A02EA0FFB1F1CD707
:1016F600DCD551F421FE08C0A0913602B091370224
:10170600AE3EE2E0BE0708F022C044D602D7E5E0CE
:10171600EA935BDFEE0FA0913402EA0FE093330207
:10172600A0913302AB3F18F0EAEFE0933302A091A9
:101736003302A13018F4E0E0E09333022BD675D6DD
:10174600EA17FB0718F4E0E0E093330203C0E0E099
:10175600E093330216C0E0910E02F0910F02DFD63D
:10176600F39B04C0E0910E02E0931E02E0910E028C
:10177600F0910F02D9D621FE04C0E0910E02E0934B
:101786003302A0911402B0911502A538E3E0BE071A
:1017960018F0E4E8F3E0C3D6F19B08C0A091180264
:1017A600B0911902AE3EE2E0BE0708F007C0E09134
:1017B6001502E0938900E091140203C0E0E0E09393
:1017C6008900E0938800A0912702B0912802A538ED
:1017D600E3E0BE0718F0E4E8F3E0A6D6F59B08C000
:1017E600A0912B02B0912C02AE3EE2E0BE0708F0BB
:1017F60007C0E0912802E0938B00E091270203C026
:10180600E0E0E0938B00E0938A00F79B07C091D657
:10181600EE57FF4F049000922D0203C0E0E0E093E4
:101826002D0225FE02C046D509F010C008D6F0E00C
:10183600E0933B02F0933C02A0913B02B0913C0244
:10184600EFEF0E942313DF0106D601C0E0E0E0932C
:101856003D0223FE07C071D6EE57FF4F049000925B
:10186600380203C0E0E0E09338020895AA93EA93B1
:10187600EFB7EA93EDEFE6BDA0917D02AF5FA093CF
:101886007D02AF3F18F0E0E0E0937D02A0911E02DA
:10189600A23030F0E0917D02A0911E02EA1708F016
:1018A60001C05A9AE0911E02A0917D02EA1709F43E
:1018B6005A98A0912D02A23030F0E0917D02A091BD
:1018C6002D02EA1708F001C05D9AE0912D02A09161
:1018D6007D02EA1709F45D98A0913802A23030F033
:1018E600E0917D02A0913802EA1708F001C05E9AE5
:1018F600E0913802A0917D02EA1709F45E98A09162
:101906003D02A23030F0E0917D02A0913D02EA173F
:1019160008F001C02B9AE0913D02A0917D02EA17E2
:1019260009F42B98A0913302A23030F0E0917D02A9
:10193600A0913302EA1708F001C02C9AE091330215
:10194600A0917D02EA1709F42C98E991EFBFE9917D
:10195600A991189595D5EEE4E093B200A0917F0287
:10196600AF5FA0937F02A53648F027FC02C0F1D8EE
:1019760002C00E94A403E0E0E0937F02A0E8B2E088
:10198600ED91FD913196FE93EE93ED3BA2E0FA07C1
:1019960048F181D499F484D489F487D479F4A0E009
:1019A60023FCA1E0A03051F4A0E0F799A1E0A0301B
:1019B60029F4A0E027FCA1E0A03009F00BC0E091DB
:1019C6008202EF5FE0938202A0918202CA1608F4B7
:1019D600289803C0E0E0E0938202E0E0E093800212
:1019E600E0938102E0910002E150E0930002A091B1
:1019F6000002A13018F4ECE0E09300020E94F4012A
:101A0600E0E0EA930E94400126FE02C0F29901C07E
:101A16000AC0A0910002AA3020F0A0910002AD30C9
:101A260008F001C001C002C0E0E047C026FE04C0C5
:101A360041D411F4F49901C00AC0A0910002A63065
:101A460020F0A0910002A93008F001C001C002C038
:101A5600E0E033C026FE02C0F69901C00AC0A0919C
:101A66000002A13020F0A0910002A43008F001C0CD
:101A760001C002C0E0E021C026FE05C022FC02C073
:101A860031FE01C001C00CC00BD451F4A09100027C
:101A9600A63020F0A0910002A93008F001C001C0D4
:101AA60002C0E0E00AC0E0E0EA930E946701E0912C
:101AB6000002F0E0EF5FFD4FE081EA930E946701CC
:101AC600A0917E02AF5FA0937E02A53610F40C941F
:101AD600BE0DE1E0E0937E02A0E026FCA1E045D445
:101AE60026F8E0E0E81510F4F29901C001C08A94E6
:101AF600882009F4F298E0E0E81510F4F49901C0A2
:101B060001C08A94882009F4F498E0E0E81510F4FE
:101B1600F69901C001C08A94882009F4F698E0E09D
:101B2600E81510F422FC01C001C08A94882011F443
:101B3600E89422F8E0E0E81510F420FC01C001C0AA
:101B46008A94882011F4E89420F8E0E0E81510F46F
:101B560024FC01C001C08A94882011F4E89424F87A
:101B6600E0E0E81510F431FC01C001C08A94882039
:101B760011F4E89431F8E991EFBFF991E991B9913F
:101B8600A9919991899179916991F9901990099002
:101B960018950E94C100289AA3E8B2E0ED91FD9144
:101BA6003196FE93EE93E032A3E0FA0710F40C941C
:101BB6004E0EE7E0EA930E94A800E0931802F09325
:101BC6001902C5D3FA93EA93E0E8EA93A3E0B0E0FA
:101BD6000E945F13EA93E0E4EA93A2E0B0E0B1D496
:101BE600E0931202F0931302E1E0EA930E94A80048
:101BF600E0932102F0932202AFD3FA93EA93E2E054
:101C0600EA93ADE0B0E00E945F13EA93E1E0EA9365
:101C1600ACE0B0E096D4E0931C02F0931D02E6E03F
:101C2600EA930E94A800E0932B02F0932C0285D33E
:101C3600FA93EA93E0E2EA93A7E1B0E00E945F1329
:101C4600EA93E0E1EA93A6E1B0E07BD4E0932502D3
:101C5600F0932602E0E0EA930E94A800E0933602A1
:101C6600F09337026FD3FA93EA93E8E0EA93A1E29E
:101C7600B0E00E945F13EA93E4E0EA93A0E2B0E0EA
:101C860060D4E0933102F0933202E0E0E093830205
:101C9600E093840249DCEBDC9924F19B34C0F29B8F
:101CA60002C082D304C0E0911202F0911302E093C5
:101CB6001002F093110278D3339748D4AE17BF07BA
:101CC60010F4E0E41EC070D3339640D4EA17FB0745
:101CD600B8F4A0E026FCA1E0EA2FE295E07FEE0F43
:101CE600EE0F9E2A33D4A139E1E0BE0740F0A0E012
:101CF60026FEA1E0EA2FE295E07FEE0F9E2A02C0C3
:101D0600E0E29E2A02C0E0E09E2AF39B22C0F49BFA
:101D160002C07CD301C0DCD3E0931A02F0931B020D
:101D260075D3339718D4AE17BF0710F4E4E00FC08D
:101D36006DD3339610D4EA17FB0740F411D40BD4B5
:101D4600A139E1E0BE0708F013D402C0E2E09E2A02
:101D560002C0E0E09E2AF59B2DC0F69B02C010D380
:101D660001C0ACD3E0932302F093240209D3339746
:101D760006D4AE17BF0710F4E8E01AC001D33396B5
:101D8600FED3EA17FB0798F4A0E026FCA1E0EA2FB1
:101D9600EE0FEE0FEE0F9E2AF2D3AD3BE2E0BE074A
:101DA60028F0A0E026FEA1E0EA2F9E2A02C0E1E08C
:101DB6009E2A09C0F69B02C0F79901C002C07ED3D5
:101DC600E3D3E0E09E2A21FE22C022FE02C0E2D238
:101DD60001C079D3E0932F02F0933002DBD2339720
:101DE600D8D3AE17BF0710F4E4E00FC0D3D23396B2
:101DF600D0D3EA17FB0740F4B3D3CBD3AD3BE2E035
:101E0600BE0708F0B5D302C0E2E09E2A09C022FE52
:101E160002C023FC01C002C056D3C0D3E0E09E2A14
:101E26000ED3E0933A02A0910002A43011F00C9474
:101E360047119092060227FED1C0ED2DF0E0EE5636
:101E4600FF4FE491F0E0EE5BFD4FE081E09302028C
:101E5600E9E0ED1519F4E0914D0201C0E0E4E093EC
:101E66000302E1E0ED1549F0E3E0ED1531F0E5E0C0
:101E7600ED1519F0E7E0ED1519F4E091500211C0E7
:101E8600E2E0ED1549F0E4E0ED1531F0E6E0ED15A0
:101E960019F0E8E0ED1519F4E0914F0202C0E09167
:101EA6004E02E093040230FE44C0E1E0ED1519F065
:101EB600E2E0ED1551F431FE03C062D28F0104C099
:101EC60000912B0210912C022FC0E3E0ED1519F0C2
:101ED600E4E0ED1551F431FE03C05CD28F0104C07D
:101EE60000913602109137021FC0E5E0ED1519F09A
:101EF600E6E0ED1551F431FE03C056D28F0104C061
:101F060000911802109119020FC0E7E0ED1519F0C3
:101F1600E8E0ED1549F431FE03C046D28F0104C056
:101F2600009121021091220200933E0210933F027B
:101F360003C0FFD143D28F01E9E0ED15B1F4E09182
:101F46004202E0930702A2D1E13031F4E09153025C
:101F5600E0930802E0E006C0E0914C02E09308023C
:101F6600E0914C02E093090214C0D80174D21BD34D
:101F7600E093070225D3E09308023801D80100E078
:101F860010E030FC03C02ED3E06201C02BD3E093F7
:101F9600090230FE02C0850103C0E3D10FD28F01D2
:101FA600E9E0ED1531F4E0E0E0930B02E0930C027A
:101FB60012C0D80150D2F7D2E0930B0201D3E093BE
:101FC6000C023801D80100E010E030FC03C00AD34F
:101FD600E06201C007D3E0930D0256C1A0912B0227
:101FE600B0912C02AD3BE2E0BE0758F0E0914D0205
:101FF600E0930202E0914E02E0930302E0914E026A
:102006004FC0F79902C0F59B07C093D2E657FF4F22
:1020160004900092050203C0E0E0E093050220FE72
:102026000CC0E0914C02E0930202E0E4E09303026C
:1020360080D2EE5BFD4FE08133C0A1D20E948413B3
:1020460020F44090230250902402E0912302F09164
:102056002402309721F440922302509224028FD218
:10206600FAD13F018CD2C4D28FD2062C072811F0A8
:10207600B9D201C0E0E0E093020281D2BED27FD2A3
:10208600C2D282D2AFD2E093030260902302709054
:10209600240275D2E0E0E0932302E0932402A2D268
:1020A600E0930402A0913602B0913702AD3BE2E024
:1020B600BE0758F4A0912102B0912202A935E2E0B0
:1020C600BE0710F0F39901C00BC0E0914D02E093FA
:1020D6000702E0914E02E0930802E0914E026CC0C6
:1020E60021FC02C023FE07C028D2E657FF4F04900A
:1020F60000920A0203C0E0E0E0930A0221FC02C05B
:1021060022FE31C024FE0CC0E0914C02E09307028F
:10211600E0E4E093080211D2EE5BFD4FE08121C0BE
:1021260038D299D13F0135D263D238D2062C07284E
:1021360011F058D201C0E0E0E09307022AD25DD246
:1021460028D261D22BD24ED2E093080260902F02A1
:10215600709030021ED2E0E0E0932F02E09330024E
:1021660041D2E0930902F39B29C0F5D174D13F0116
:10217600F2D13ED2E0931A02F0931B02062C0728F6
:1021860011F030D201C0E0E0E0930702E4D135D28D
:10219600E2D139D2E0931A02F0931B0223D2E093E4
:1021A600080260901A0270901B02D5D1E0E0E0931D
:1021B6001A02E0931B0216D2E093090225FE28C0FC
:1021C600A0913A02E4E624D2E4E60E944A13E093A0
:1021D6003A02062C072811F005D201C0E0E0E09390
:1021E6000702A0913A02EAE013D2EAE00E944A13FB
:1021F600E0933A02F7D1E093080260903A0277241E
:10220600A0913A02E0E0E0933A02ECD1E0930902B1
:10221600A0911802B0911902A935E2E0BE0758F064
:10222600E0914D02E0930B02E0914E02E0930C0226
:10223600E0914E0227C08AD10ED13F0187D1D8D175
:10224600E0931002F0931102062C072811F0CAD170
:1022560001C0E0E0E0930B0279D1CFD177D1D3D1A1
:10226600E0931002F0931102BDD1E0930C0260904E
:102276001002709011026AD1E0E0E0931002E09340
:102286001102B0D1E0930D0287CCFFCFA8E1B0E0F8
:102296000E945F130895A0E0F199A1E0A03008958F
:1022A600A0E0F399A1E0A0300895A0E025FCA1E00C
:1022B600A0300895A0E021FCA1E0A0300895A0E0A0
:1022C600F599A1E0A0300895F0E0EE0FFF1F089504
:1022D600E0915602F09157020895E0915802EF5F9F
:1022E600E0935802A0915802A5300895AC85BD85AB
:1022F600EE85FF85EA1BFB0B0895A2E3B0E00E9482
:102306005F130895E095EA23A2E3B0E00E947313F9
:102316000895EA2BA2E3B0E00E947313EFEFFFEFFC
:1023260008950E941B13DF01E4E6F0E00E943713D4
:102336000895ED2DACE3B0E0C7CFE0912B02F0910C
:102346002C020895E0913602F09137020895E0914B
:102356001802F09119020895E0912102F0912202EB
:102366000895ED2DAAE5B0E0AFCFE1E0EA270E949F
:1023760088130895A0E0F199A1E0E1E0EA27089525
:10238600A4E1B0E00E945B130895A4E1B0E00E94CE
:102396006B130895AEE1B0E00E945B130895AEE1C1
:1023A600B0E00E946B130895A0E0B0E00E945B13BA
:1023B6000895A0E0B0E00E946B130895AE0FBF1F12
:1023C6000E945B1308950E945B13FA93EA930895A3
:1023D600E0E0E0935402E8ECEA930C944001E0E07C
:1023E600E0935402EEE1EA930C944001A4E0B0E0DD
:1023F6000E945F130895F0E0E00DF11D0895D001ED
:10240600F0E00E945413EA1BFB0B0895AAE0B0E02B
:102416000E945B130895AEE0B0E00E945F1308953A
:10242600A9E1B0E00E945F130895A0913102B09136
:1024360032020895A2E2B0E00E945F130895A8E276
:10244600B0E00E945F130895AE0FBF1FE0E0F0E01A
:102456000E946B130895E4E6F0E00E943713089596
:10246600E02FA0915B02EA0FE0935B020A930C94C3
:102476005208EA930E945208EBEFEA930C94520832
:102486000A921A92FA926A937A938A939A93AA93E1
:10249600BA93EA93FA93EFB7EA930895E0915E024E
:1024A600F0915F020895E0911202F0911302FA93FF
:1024B600EA930895FA93EA930C945B08E091250257
:1024C600F09126020895E0913102F09132020895CA
:1024D600E0911C02F0911D020895AAE0B0E073CFCE
:1024E600E0916002F09161020895E0916202F0913C
:1024F600630208950E945F13EA930C945208FA93BC
:10250600EA930C946A0AFA93EA93D8DFFA93EA9369
:102516000895FA93EA93D7DFFA93EA930895E0933E
:102526001402F09315020895E0932702F09328020F
:102536000895E0912E02F0E00895E0913902F0E06E
:1025460008950E945F13EA930C94090BA091100260
:10255600B09111020895A0911A02B0911B0208953C
:10256600A0E026FCA1E0EA2FEE0FEE0F9E2A0895CA
:10257600A0E026FEA1E0EA2FEE0F9E2A0895A09184
:102586002302B09124020895E0932302F0932402DB
:102596000895A0912F02B09130020895E0932F0282
:1025A600F093300208953F01D801E4E6F0E00E947E
:1025B6004D138F01A2E4B2E0A60DB71DEC9108956C
:1025C600D801EAE0F0E00E9437133F01D801EAE0C3
:1025D600F0E00E944D138F01A2E4B2E0A60DB71DF4
:1025E600EC910895A2E4B2E0A60DB71DEC91089512
:1025F600E4E6F0E00E944D130895EAE0F0E00E9460
:1026060037133F010895EAE0F0E00E944D13089564
:102616000E9429136E2E7724A0913A020895EE2384
:102626000E2EFD0121F0F695E7950A94E1F708953F
:10263600FA9FF02DEB9FF00DEA9FE02DF10D089526
:102646006E2F6A9FF0016B9FF00D0895002498E0AD
:10265600AA0F001C0E1A10F40E0E01C0A1609A9566
:10266600B9F7EA2FA02D08950024112490E1AA0FAE
:10267600BB1F001C111C0E1A1F0A18F40E0E1F1E7B
:1026860001C0A1609A9599F7FD01D0010895DEDF9A
:10269600EA2F0895E9DFFD0108950590F491E02DF4
:1026A60008951B2EBF2FF12D1A2EAE2FE12D089562
:1026B600119602D0FE2F1197F999FECFFF93FFB71F
:1026C600F894A1BDB2BDF89AE0B5FFBFFF91089599
:1026D60007D01196EF93EF2F03D0EF91119708953E
:1026E600F99B02C0A895FCCF9FB7F894A1BDB2BDD7
:1026F600F89A80B5E81719F0E0BDFA9AF99A9FBFE3
:10270600089500240A160B060895E894EE2309F0AE
:10271600689408955A934A933A932A931A930A937C
:1027260008955D814C813B812A8119810881089534
:00000001FF
