:0A0000000C9491000C9400000C9485
:10000A0000000C9400000C9400000C9400000C9466
:10001A0000000C9400000C9400000C9479110C94CC
:10002A0000000C9400000C9400000C9400000C9446
:10003A0000000C9400000C94AC100C9400000C947A
:10004A00210B0C9400000C9400000C9400000C94FA
:10005A0000000C9400000C9400000C9400000000B6
:10006A00080010002000040080004000000400087E
:10007A00004000800010002000029A00CD00050117
:10008A00370169019B01CD010002004040C0E0F048
:10009A00F8FAFE00FF121216FFFF060F00FF1612F3
:1000AA0012000A3264960000000A120E0A120D0F9C
:1000BA00120E0F120D05120E05120D0B120E0B1257
:1000CA000D100B0C050E0F0F130A05170E0000007A
:1000DA0000000C009F815DD5C3D6DE85DFD74E5E5A
:1000EA0048CB1A4F9EC840D85A581ED9E60000007D
:1000FA00000018010A00000C03000200D8000100E9
:10010A000002DC0018009202DE000100AE02F600D6
:10011A000A000500F8000000F894EE27EFBBF1E0B2
:10012A00F5BFE5BFF8E1A895A4B7A77FA4BFF093F0
:10013A006000E09360008DE0A2E0BB27ED938A9512
:10014A00E9F780E094E0A0E0B1E0ED930197E9F7E8
:10015A00E2E0F1E085919591009761F0A591B59162
:10016A0005901590BF01F00105900D920197E1F7F6
:10017A00FB01F0CFE0E0EEBBEFEFEDBFE4E0EEBF56
:10018A00C0E0D2E00C942712E881E0937C008BE176
:10019A008A95F1F7E0917A00E064E0937A00E091C1
:1001AA007A00E071E1F3E0917A00E061E0937A008D
:1001BA00E0917800F09179001BC11A93E0E8E0938E
:1001CA006100E0E0E0936100E5B9EFEDE4B9E4E451
:1001DA00E8B9E8E3E7B9E0E0EBB9ECEFEAB9E0E067
:1001EA00E4BDE3E0E5BDE0E0E6BDE7BDE8BDE093E0
:1001FA008000E0938100E0938500E0938400E0931F
:10020A008700E0938600E0938900E0938800E093FA
:10021A008B00E0938A00E093B600E093B000E7E039
:10022A00E093B100E0E0E093B200E093B300E09322
:10023A00B400E0936900EDBBE0936800E1E0E0936D
:10024A006E00E0E0E0936F00E1E0E0937000E0E030
:10025A00E093C000E8E9E093C100E6E0E093C20061
:10026A00E0E0E093C500E9E1E093C400E0E8E0BF24
:10027A00E0E0E0937B00E0937E00E0937C00E6E818
:10028A00E0937A000E945715E23010F00E945C1544
:10029A00A4E3B0E00E94E118DE2EA6E3B0E00E94DB
:1002AA00E118E09368020E9462150E94691511E044
:1002BA00193090F40E9470150E9477150E947C15DF
:1002CA000E9482150E948A150E9477150E94911534
:1002DA000E9482151F5FECCFA0E0B0E00E94DD18FB
:1002EA000E949715AAE0B0E00E94DD180E949C15B2
:1002FA00A4E1B0E00E94DD180E94A115AEE1B0E0D1
:10030A000E94DD180E94A615A0E3B0E00E94E11841
:10031A00E0936702A0916702A53038F0E0E0E0932D
:10032A006702A0E3B0E00E94F51878941D9B0FC005
:10033A00F09A3B98E1E0F0E0FA93EA930E9472188F
:10034A00339902C0F19801C0F19A3B9A01C0F09822
:10035A0028C01A93F89411E01930A8F4E12F0E94EA
:10036A007C15EA0FFB1F0F010E9470150E94AB1546
:10037A00E12F0E9491150E9477150E94B3150E94E1
:10038A00AB151F5FE9CFED2DA4E3B0E00E94F5188D
:10039A000E94B915E0916702A0E3B0E00E94F51847
:1003AA00789419910895A881A13028F0A0E041FC21
:1003BA00A1E0A03009F005C0E881E0938E026894BC
:1003CA0041F8E881E030A1F441FE04C0A0918E0218
:1003DA00A13008F406C05C9AE0918E02E150E093E5
:1003EA008E02E0918E02E03019F45C98E89441F8AC
:1003FA002196089535FE9BC0E89435F8772059F088
:10040A00A0919102AF5FA0939102A33020F0E0E0A7
:10041A00E09391027724A0918F02AF5FA0938F029D
:10042A00AD33C0F1E0E0E0938F0236FC32C0E091D8
:10043A006902EF5FE0936902E0916802A0916902A4
:10044A00EA17F1F4E89437F8689436F8F398F598CF
:10045A00F798F79902C02F9801C02F9AE89423F8C9
:10046A0023FC02C05B9801C05B9AE89427F827FC3A
:10047A0002C02E9801C02E9AEEEFEA9394DF09C0CB
:10048A00A0916902AF5FE0916802EA1711F46894DB
:10049A0037F826C037FE24C0E0918F02E13011F010
:1004AA00EA3009F402C0E43109F402C0EE3109F479
:1004BA0002C0E83209F402C0ED3211F4E4E60EC0DB
:1004CA00E23311F0E43309F402C0E63309F402C05E
:1004DA00E83309F402C0EA3319F4E8ECEA9363DF7B
:1004EA000E94C015A9F40E94C51591F40E94CA156C
:1004FA0079F4A0E025FCA1E0A03051F4A0E021FCB1
:10050A00A1E0A03029F4A0E031FCA1E0A03009F07C
:10051A000BC0E0919002EF5FE0939002A0919002ED
:10052A00DA1608F4289803C0E0E0E09390020895F0
:10053A001A930E94CF150E94A5181E2F0E94CF154C
:10054A000E94BD18EA83FB83103029F00E94D4155B
:10055A000E94DC1504C00E94D415A0E0A083AA81E1
:10056A00BB81EAE0F0E00E94A5181E2FAA81BB8198
:10057A00EAE0F0E00E94BD18EA83FB830E94D415EA
:10058A000E94DC151A81A981B0E0AF5FBD4FE12F4F
:10059A000E94E415EC93188124960895FF922297FD
:1005AA001A9345980E94E915E983FA83F09B0AC0D9
:1005BA00F19B06C00E94E915E095F095E983FA835C
:1005CA00E89401C06894F0F810E0183198F41830F3
:1005DA0030F4F0FC02C0439801C0439A05C0F0FE13
:1005EA0002C0439801C0439A459A0000459800000A
:1005FA001F5FEBCF449883E08A95F1F7449A31FC68
:10060A0044C0A0910002AA3060F0A0910002AD306F
:10061A0040F4A0E0F499A1E0A03019F40E94C015BA
:10062A0009F002C0E0E4EB83A0910002A630B8F022
:10063A00A0910002A93098F40E94C51581F40E9485
:10064A00CA1569F40E94F51551F4A0E024FCA1E052
:10065A00A03029F4A0E025FCA1E0A03009F002C0F6
:10066A00E0E4EB83A0910002A13060F0A0910002C7
:10067A00A43040F40E94FA1529F4A0E021FCA1E07C
:10068A00A03009F002C0E0E4EB8332FE0DC00E9404
:10069A00FF15A491AF3F31F00E94FF15E4910E942B
:1006AA00E41501C0E0E0EB83F09903C0EB81E0952B
:1006BA00EB8310E0183148F5183070F4EB81E078DC
:1006CA00EE1FE0E0EE1FE03011F4439801C0439AB8
:1006DA00EB81EE0FEB8313C0E981FA81E070F078C9
:1006EA00DF01EFE00E948218E03011F4439801C064
:1006FA00439AE981FA81EE0FFF1FE983FA83459A4B
:10070A000000459800001F5FD5CF44980000449A26
:10071A0018812496FF900895E091AA02E03011F022
:10072A000C940305E091AE02F091AF02309711F0FC
:10073A000C94FE040E94051629F4A0E043FCA1E0F3
:10074A00A03009F002C0689443F843FE66C00E94D4
:10075A00051611F00C940404E0910002E13021F432
:10076A000E940D16319647C0E23021F40E940D1600
:10077A00329641C0E33021F40E940D1634963BC0F4
:10078A00E43021F40E940D16389635C0E53021F484
:10079A000E940D1670962FC0E63021F40E940D16A5
:1007AA00B09629C0E73029F40E940D16E05CFF4F8D
:1007BA0022C0E83029F40E940D16E058FF4F1BC0F2
:1007CA00E93029F40E940D16E050FF4F14C0EA30B8
:1007DA0029F40E940D16E050FE4F0DC0EB3029F4AB
:1007EA000E940D16E050FC4F06C0EC3041F40E9406
:1007FA000D16E050F84FE093B002F093B102A091C9
:10080A00B202AF5FA093B202AC3039F4E0E0E093F9
:10081A00B2020E941216E89443F8A091B202A030E4
:10082A0039F4A091B002B091B1020E94061908F001
:10083A00BDC00E940D16E830A0E0FA0721F4E4E0FA
:10084A00E093AA0279C0E230A0E0FA0721F4E2E0DC
:10085A00E093AA0271C0E130A0E0FA0721F4E3E0D4
:10086A00E093AA0269C0E030A8E0FA0721F4E1E0C7
:10087A00E093AA0261C0E031A0E0FA0721F4E5E0C2
:10088A00E093AA0259C0E430A0E0FA0721F4E6E0B6
:10089A00E093AA0251C0E032A0E0FA0721F4E7E0AF
:1008AA00E093AA0249C0E034A0E0FA0721F4E8E0A4
:1008BA00E093AA0241C0E030A1E0FA0721F4ECE09B
:1008CA00E093AA0239C0E030A4E0FA0721F4EAE092
:1008DA00E093AA0231C0E030A2E0FA0721F4EBE08B
:1008EA00E093AA0229C0E038A0E0FA0721F4E9E07F
:1008FA00E093AA0221C0E330A6E0FA0751F40E946D
:10090A00191631F4EEE0E093AA02E0E0E093AB02BC
:10091A0013C0E130A2E0FA0779F40E94191629F40B
:10092A00A0E031FCA1E0A03009F006C0EDE0E093C0
:10093A00AA02E0E0E093AB0237FE06C0EFE0E093E4
:10094A00AA02EEEFEA932FDDA091AA02A13028F0C5
:10095A00E0E0E0936902E89437F842FC10C0E091C5
:10096A00AC02EF5FE093AC020E941216A091AC02B7
:10097A00A53029F4689442F8E0E0E093AC0242FE24
:10098A0010C0E0916702F0E0E455FF4FE491F0E017
:10099A00E093AE02F093AF02E091AE02EB5FE09318
:1009AA00AD02E0E0E093B002E093B102A091000250
:1009BA00AC3059F4A091AC02A13038F0A091B30246
:1009CA00AF5FA093B302AB3008F407C0E0E0E09356
:1009DA00B302E093AC02E093AB0242FE09C0E0919D
:1009EA00AD02E150E093AD02E03011F4E89442F830
:1009FA0005C0AEEAB2E00E942216319608950E941E
:100A0A000F190E942816AA85BB85AE1BBF0BE88565
:100A1A00F985AE1BBF0BE4E6F0E00E94A0180F01B7
:100A2A00AC85BD85E885F985EA1BFB0BD0010E94E0
:100A3A00B8188F01112342F00E942F16AE2FEE81B3
:100A4A000E943416E02F08C00E942F16AE810E9421
:100A5A003B16E01BF10BF0E0EF5F5E2F0E942816B9
:100A6A00BF01F801AC85BD850E94A018DF01E4E64C
:100A7A00F0E00E94B818DB01AE1BBF0B9D013323C7
:100A8A0042F00E942F16AE2FEF810E943416422F99
:100A9A0008C00E942F16AF810E943B16E21BF30B7F
:100AAA004E2FE1E0EE1519F0E2E0EE1549F4E42FDD
:100ABA00A7E1B0E00E94F518E52FA6E1B0E02CC04E
:100ACA00E3E0EE1519F0E4E0EE1549F4E42FA1E2B3
:100ADA00B0E00E94F518E52FA0E2B0E01DC0E5E005
:100AEA00EE1519F0E6E0EE1549F4E42FA3E0B0E0C4
:100AFA000E94F518E52FA2E0B0E00EC0E7E0EE157F
:100B0A0019F0E8E0EE1551F4E42FADE0B0E00E94F0
:100B1A00F518E52FACE0B0E00E94F5180E9416190E
:100B2A0060960895A091AA02A23041F4E394ECE001
:100B3A00EE1510F4E1E0EE2EE89433F8A091AA0243
:100B4A00A33041F4EA94E1E0EE1610F4ECE0EE2E64
:100B5A00E89433F8A091AA02AC3011F00C94F40591
:100B6A0033FE3DC0E1E0EE1519F0E2E0EE1529F49E
:100B7A000E9443160E944C1620C0E3E0EE1519F0BD
:100B8A00E4E0EE1529F40E9443160E94511615C09E
:100B9A00E5E0EE1519F0E6E0EE1529F40E94431699
:100BAA000E9456160AC0E7E0EE1519F0E8E0EE15C5
:100BBA0031F40E9443160E945B16A083B183E1E0E0
:100BCA00EE1618F0E8E0EE1508F407C0EE2D0E94C4
:100BDA00B315EA0FFB1FB082C182E89433F8A091E3
:100BEA00AA02A430C9F5A0E033FCA1E00E94601675
:100BFA0033F8E1E0EE1519F0E2E0EE1531F40E9467
:100C0A0065160E942F16EF7C23C0E3E0EE1519F05B
:100C1A00E4E0EE1531F40E946F160E942F16E37F6E
:100C2A0017C0E5E0EE1519F0E6E0EE1531F40E9482
:100C3A0079160E942F16EF730BC0E7E0EE1519F034
:100C4A00E8E0EE1549F40E9483160E942F16EC7F05
:100C5A00A2E3B0E00E94F518A091AA02A530F1F52E
:100C6A00E2E0EE1589F4A0E0F799A1E0E1E0EA27D5
:100C7A0011F4F79801C0F79A689421F8F79902C01D
:100C8A002F9801C02F9A2AC0E4E0EE1571F4A0E073
:100C9A0023FCA1E00E94601623F8689425F823FC3F
:100CAA0002C05B9801C05B9A19C0E6E0EE1551F4E8
:100CBA00A0E0F399A1E0E1E0EA2711F4F39801C07A
:100CCA00F39A0CC0E8E0EE1549F4A0E0F599A1E02A
:100CDA00E1E0EA2711F4F59801C0F59AA091AA0279
:100CEA00A73011F00C94C50633FE39C034FE32C069
:100CFA00E1E0EE1618F0E8E0EE1508F40AC0E4EFB9
:100D0A00F1E09E16AF0620F4EAE0F0E09E0EAF1E78
:100D1A0021C0EAE0EE1551F4A0916802A33628F446
:100D2A00E0916802EF5FE093680214C0EBE0EE1511
:100D3A0029F4ECE3DE1608F4D3940CC0ECE0EE15CB
:100D4A0049F4A0916702A33028F4E0916702EF5FAB
:100D5A00E0936702689434F8EFE08E2E0CC00E948C
:100D6A008D160E94CE18E032A3E0FA0720F40E9402
:100D7A008D160E949616E9E0EE1511F40E945C1594
:100D8A00A091AA02A63011F00C94190733FE3AC0BA
:100D9A0034FE33C0E1E0EE1618F0E8E0EE1508F490
:100DAA000BC0E2E3F0E0E915FA0528F4E92DFA2D83
:100DBA003A979E2EAF2E21C0EAE0EE1551F4A0918B
:100DCA006802AB3028F0E0916802E150E0936802D3
:100DDA0014C0EBE0EE1529F4E5E0ED1508F4DA9419
:100DEA000CC0ECE0EE1549F4A0916702A13028F09E
:100DFA00E0916702E150E0936702689434F8EFE00B
:100E0A008E2E0AC00E948D160E94CE18329720F0AC
:100E1A000E948D160E942216E9E0EE1529F4A8E137
:100E2A00B0E0E0E00E94F518A091AA02A13029F4EE
:100E3A00A0E033FCA1E0A03009F08FC00E94AE010F
:100E4A00E1E0EE1519F0E2E0EE15E1F4E0917E0240
:100E5A00F0917F02FA93EA93E0916C02F0916D02AD
:100E6A00FA93EA93E0918002F0918102FA93EA936D
:100E7A00E0916E02F0916F02FA93EA93E0E2EA934C
:100E8A00E0E165C0E3E0EE1519F0E4E0EE15E1F407
:100E9A00E0918202F0918302FA93EA93E091700260
:100EAA00F0917102FA93EA93E0918402F09185023B
:100EBA00FA93EA93E0917202F0917302FA93EA9339
:100ECA00E8E0EA93E4E043C0E5E0EE1519F0E6E075
:100EDA00EE15E1F4E0918602F0918702FA93EA9323
:100EEA00E0917402F0917502FA93EA93E091880214
:100EFA00F0918902FA93EA93E0917602F0917702EF
:100F0A00FA93EA93E0E8EA93E0E421C0E7E0EE1519
:100F1A0019F0E8E0EE15E9F4E0918A02F0918B020B
:100F2A00FA93EA93E0917802F0917902FA93EA93BC
:100F3A00E0918C02F0918D02FA93EA93E0917A02A1
:100F4A00F0917B02FA93EA93E1E0EA93E2E0EA9312
:100F5A0056DDE89431F80E949C16E1E0EE1618F08E
:100F6A00E8E0EE1508F43FC0A091AA02AA30E1F425
:100F7A0033FE0AC0E4EFF1E0BE16CF0620F4E1E04A
:100F8A00F0E0BE0ECF1E10C0EE2D0E94B3150E94D7
:100F9A00A316E032A3E0FA0738F4EE2D0E94B31547
:100FAA00AE0FBF1F0E949616A091AA02AB30D9F4C9
:100FBA0033FE0BC0EAE0F0E0EB15FC0528F4EB2D5C
:100FCA00FC2D3197BE2ECF2E0EC0EE2D0E94B315EA
:100FDA000E94A316329738F0EE2D0E94B315AE0F79
:100FEA00BF1F0E942216A091AA02A13028F0A0E0F9
:100FFA0037FCA1E0A03009F002C00E94A8160895AB
:10100A001A93A091AA02A93069F4A0E0F399A1E089
:10101A00E1E0EA2711F4F39801C0F39AF39B02C0C6
:10102A00E4E07E2EA091AA02AA3011F0AB3011F4AE
:10103A00F39901C02DC0F49B22C0A091AA02AA3044
:10104A0031F40E94AF16A039E1E0BE0708F006C0ED
:10105A000E94B4160E94B9160E949715A091AA027E
:10106A00AB3031F40E94AF16A536E0E0BE0708F4B3
:10107A0006C00E94B4160E94BD160E949715F49AE3
:10108A00EFE08E2E0E94C316A0E0B0E00E94ED1899
:10109A00A091AA02AC3041F40E94CA1529F4A0E03A
:1010AA0024FCA1E0A03009F00DC0A0E0F599A1E070
:1010BA00E1E0EA2711F4F59801C0F59AF59B02C020
:1010CA00E8E07E2EA091AA02A73011F0A63011F412
:1010DA00F59901C02DC0F69B22C0A091AA02A730A3
:1010EA0031F40E94C816A039E1E0BE0708F006C034
:1010FA000E94CD160E94B9160E949C15A091AA02C0
:10110A00A63031F40E94C816A536E0E0BE0708F4FE
:10111A0006C00E94CD160E94BD160E949C15F69A22
:10112A00EFE08E2E0E94D216AAE0B0E00E94ED18DF
:10113A00A0E03299A1E0A03031F4F79B04C00E94EC
:10114A005715E13009F003C0E1E0E093AA02A0914B
:10115A00AA02A13029F5A0E0F799A1E0E1E0EA2787
:10116A0011F4F79801C0F79A689421F80E94621561
:10117A00A0E03299A1E0A03021F40E945715E13095
:10118A0009F001C0F798F79B0AC00E944C16A83ACA
:10119A00E2E0BE0708F42F9AE1E07E2E01C02F9804
:1011AA00F79B61C0A091AA02A23019F0A33009F0FE
:1011BA004DC022FC2DC020FE20C0A091AA02A23060
:1011CA0031F40E94D716A23CE1E0BE0708F006C03F
:1011DA000E94DC160E94B9160E94A115A091AA02CB
:1011EA00A33021F40E94D716D39708F406C00E94B0
:1011FA00DC160E94BD160E94A115689420F8EFE043
:10120A008E2E0E94E116A4E1B0E00E94ED181EC0E5
:10121A00A091AA02A23021F4A0912502A83008F0D8
:10122A0005C0E0912502EF5F0E94E616A091AA028E
:10123A00A33021F4A0912502A23008F405C0E09160
:10124A002502E1500E94E616EFE08E2EA091AA0236
:10125A00A43041F4A0E022FCA1E00E94601622F82A
:10126A00EFE08E2E19C0F79917C0A0911702B0911E
:10127A001802999740F0A0911702B0911802A93567
:10128A00E2E0BE0710F0E89421F821FE05C0689458
:10129A0020F8E8E0E0932502A091AA02A53031F4F3
:1012AA000E94CA1519F40E94C51509F017C0A0E0DA
:1012BA0023FCA1E00E94601623F8689425F823FE17
:1012CA000AC00E945116A83AE2E0BE0708F45B9AE7
:1012DA00E2E07E2E01C05B980E94691523FC2DC0B6
:1012EA00A091AA02A83069F4A0E027FCA1E00E941C
:1012FA00601627F827FC02C02E9801C02E9AE8949F
:10130A0024F8A0912C02B0912D02999740F0A09157
:10131A002C02B0912D02A935E2E0BE0710F0E89444
:10132A0025F825FE03C00E94CA1509F005C0689475
:10133A0024F8E8E0E0933A0262C023FE60C0A0917C
:10134A00AA02A73019F0A63009F04DC026FC2DC01C
:10135A0024FE20C0A091AA02A73031F40E94EF1601
:10136A00AC32E1E0BE0708F006C00E94F4160E9403
:10137A00B9160E94A615A091AA02A63021F40E94CD
:10138A00EF16D39708F406C00E94F4160E94BD1601
:10139A000E94A615689424F8EFE08E2E0E94F91692
:1013AA00AEE1B0E00E94ED181EC0A091AA02A730DB
:1013BA0021F4A0913A02A83008F005C0E0913A025F
:1013CA00EF5F0E94FE16A091AA02A63021F4A09116
:1013DA003A02A23008F405C0E0913A02E1500E94B4
:1013EA00FE16EFE08E2EA091AA02A83041F4A0E0EA
:1013FA0026FCA1E00E94601626F8EFE08E2E27FE5A
:10140A0020C0A091AA02A73021F40E940717E4364F
:10141A0008F007C00E940717EB5FA8E2B0E00E943D
:10142A00F518A091AA02A63021F40E940717EB3002
:10143A0008F407C00E940717E550A8E2B0E00E942E
:10144A00F518A091AA02AE3031F40E94FA1519F4E7
:10145A000E94C01509F090C0689432F8E9E18E2E16
:10146A00A0E0B0E0E6EEF0E00E94ED180E949715C9
:10147A000E947916A4E0B0E0E5E00E94F518AAE01F
:10148A00B0E0E1EEF0E00E94ED180E949C150E9487
:10149A008316AEE0B0E0E5E00E94F518A4E1B0E002
:1014AA00E8E1F1E00E94ED180E94A1150E9465167C
:1014BA00A9E1B0E0EAE00E94F518AEE1B0E0E8E7A1
:1014CA00F0E00E94ED180E94A6150E946F16A2E293
:1014DA00B0E0EAE00E94F518A8E2B0E0E2E30E9478
:1014EA00F518A2E3B0E0E0E00E94F518F8940E9433
:1014FA005C15EFE0DE2EA4E3B0E00E94F518EEE101
:10150A00E0936802A6E3B0E00E94F518E8E0E093F1
:10151A002502A0E7B0E00E94F518E0933A02A1E79D
:10152A00B0E00E94F51810E01930E0F40E9470153E
:10153A000E940C17ED93FC93E12F0E947C150E94E8
:10154A000C170E94ED180E948A150E940C17ED9341
:10155A00FC93E12F0E9491150E940C170E94ED182E
:10156A001F5FE2CFA0E3B0E0E0E00E94F518E0934D
:10157A00670278940E949C16A091AA02AD3099F451
:10158A000E94C01549F40E94C51531F40E94FA154B
:10159A0019F40E94F51509F006C0689431F8EBE0D9
:1015AA00EE2E0E949C16A091AA02A13010F00E9471
:1015BA00A81619910895E091C000E072E1F3E8815C
:1015CA00E093C600219608951A930A930E94CF15B4
:1015DA000E94A5188F010E9411170A93ECDFA4E656
:1015EA00A09FF001A19FF00DAA81BB81AE1BBF0B8A
:1015FA008D010E94111710C01A930A93EA81FB8188
:10160A00E0708F01012F112707FD10950A93D3DF90
:10161A00EA81FB81F0708F010A93CDDF198108817D
:10162A0024960895EFE4EA93C6DFEBE4EA93C3DF76
:10163A00EBEFEA93C0DF08950E9418170E94111970
:10164A003FB7F8941091C6003FBF1C3F51F4E0E049
:10165A00E093E702E093B502E093B602E093B402A6
:10166A0073C3E091E702A5EBB2E00E942617AE0F22
:10167A00BF1FE12FF0E0ED93FC93E091E702A09108
:10168A00B502B091B602F0E0EA17FB0721F4A09187
:10169A00E702A13008F453C30E942A17E635A0E0F6
:1016AA00FA0711F00C949A0BE6E5EA9384DFE6E573
:1016BA00EA9381DFE0E3EA937EDF0E942F170E941C
:1016CA00C3160E9437170E943B170E9440170E94B8
:1016DA0045170E944A170E944F170E94E1160E945E
:1016EA0037170E9454170E9459170E945E170E94CA
:1016FA0063170E9468170E94F9160E9437170E9402
:10170A006D170E9472170E9477170E947C170E9419
:10171A0081170E94D2160E9437170E9486170E94CC
:10172A008B170E9490170E9495170E942A17E2347D
:10173A00A0E0FA0721F4E091B902E093AA020E941C
:10174A002A17E035A0E0FA0731F40E949A17E33726
:10175A00A0E0FA0709F01FC00E949F17E133A0E03A
:10176A00FA0789F4F29AA091BD02B091BE02E4E6AA
:10177A000E949A185E2E6F2EE091BF02F091C0026D
:10178A005E0E6F1E07C00E949F17E033A0E0FA07A3
:10179A0009F4F29847DF0E942A17ED34A0E0FA070D
:1017AA0009F440DF0E942A17EB34A0E0FA0711F08F
:1017BA000C947C0C0E949A17EF33A0E0FA0711F000
:1017CA000C94260CEBE6EA93F6DEE6E6EA93F3DE01
:1017DA00EEE0EA93F0DEA3E0B0E00E94A417A2E0F4
:1017EA00B0E00E94A417A7E1B0E00E94A417A6E106
:1017FA00B0E00E94A417A1E2B0E00E94A417A0E200
:10180A00B0E00E94A417ADE0B0E00E94A417ACE0DB
:10181A00B0E00E94A4170E942F16F0E00E94A917B8
:10182A00A4E0B0E00E94A417A9E1B0E00E94A417C6
:10183A00A2E2B0E00E94A417AEE0B0E00E94A417B2
:10184A0056C00E949A17E132A0E0FA0711F00C94F0
:10185A007C0CE091BB02A3E0B0E00E94F518E09195
:10186A00BD02A2E0B0E00E94F518E091BF02A7E134
:10187A00B0E00E94F518E091C102A6E1B0E00E9432
:10188A00F518E091C302A1E2B0E00E94F518E091D8
:10189A00C502A0E2B0E00E94F518E091C702ADE0EF
:1018AA00B0E00E94F518E091C902ACE0B0E00E94F5
:1018BA00F518E091CB02A2E3B0E00E94F518E0919E
:1018CA00CD02A4E0B0E00E94F518E091CF02A9E1B0
:1018DA00B0E00E94F518E091D102A2E2B0E00E94C5
:1018EA00F518E091D302AEE0B0E00E94F5180E942C
:1018FA002A17EA35A0E0FA0731F40E949A17E4356C
:10190A00A0E0FA0709F046C10E949F17EF33A0E052
:10191A00FA0709F5EAE7EA934EDEE4E7EA934BDED3
:10192A0001E0093058F4E02FAAE6B2E00E94261737
:10193A000E94A3160E94A9170F5FF3CF01E0093096
:10194A0048F4E02F0E94B3150E94A3160E94A9171B
:10195A000F5FF5CF1CC10E949F17E132A0E0FA0782
:10196A0011F00C94CF0DE091BD02F091BE02E33567
:10197A00A0E0FA0711F00C94420D0E94AD17E09313
:10198A006C02F0936D02A0916C02B0916D020E94FC
:10199A00B517E0936C02F0936D020E94BC17E093B6
:1019AA006E02F0936F02A0916E02B0916F020E94D4
:1019BA00C417E0936E02F0936F020E94CB17E09374
:1019CA007002F0937102A0917002B09171020E94AC
:1019DA00D317E0937002F09371020E94DA17E09332
:1019EA007202F0937302A0917202B09173020E9484
:1019FA00E217E0937202F09373020E94E917E093F0
:101A0A007402F0937502A0917402B09175020E945B
:101A1A00F117E0937402F09375020E94F817E093AD
:101A2A007602F0937702A0917602B09177020E9433
:101A3A000018E0937602F09377020E940718E09369
:101A4A007802F0937902A0917802B09179020E940B
:101A5A000F18E0937802F09379020E941618E09327
:101A6A007A02F0937B02A0917A02B0917B020E94E3
:101A7A001E18E0937A02F0937B02E091BD02F09186
:101A8A00BE02E235A0E0FA0711F00C94CC0D0E94D8
:101A9A00AD17E0937E02F0937F02A0917E02B0918F
:101AAA007F020E94B517E0937E02F0937F020E94A4
:101ABA00BC17E0938002F0938102A0918002B0915A
:101ACA0081020E94C417E0938002F09381020E946F
:101ADA00CB17E0938202F0938302A0918202B09125
:101AEA0083020E94D317E0938202F09383020E943A
:101AFA00DA17E0938402F0938502A0918402B091F0
:101B0A0085020E94E217E0938402F09385020E9404
:101B1A00E917E0938602F0938702A0918602B091BA
:101B2A0087020E94F117E0938602F09387020E94CF
:101B3A00F817E0938802F0938902A0918802B09185
:101B4A0089020E940018E0938802F09389020E9499
:101B5A000718E0938A02F0938B02A0918A02B0914F
:101B6A008B020E940F18E0938A02F0938B020E9464
:101B7A001618E0938C02F0938D02A0918C02B0911A
:101B8A008D020E941E18E0938C02F0938D02EBEFF7
:101B9A00EA9311DD0E942A17E035A0E0FA0731F432
:101BAA000E949A17EF34A0E0FA0709F031C00E94A8
:101BBA009F17EF33A0E0FA0799F4E0E7EA93FBDC1A
:101BCA00EFE6EA93F8DCE3E0EA93F5DCDA92F3DC99
:101BDA00E0916802EA93EFDC65D7EA93ECDC18C07F
:101BEA000E949F17E132A0E0FA0791F4D090BD025B
:101BFA00ED2DA4E3B0E00E94F518E091BF02E09356
:101C0A006802B2D7E091C102A8E1B0E00E94F518DB
:101C1A000E942A17E035A0E0FA0731F40E949A17C9
:101C2A00E434A0E0FA0709F08AC0E0E7EA93C3DCEB
:101C3A00E4E6EA93C0DCE4E6EA93BDDCE0E1EA9399
:101C4A00BADC0E949F17E634A0E0FA07C9F40E94A2
:101C5A0054170E94E1160E9437170E944F170E94DC
:101C6A0063170E9459170E945E17E0911F02F091B4
:101C7A0020020E943717E0912102F09122025CC0F3
:101C8A000E949F17E035A0E0FA07C9F40E946D1779
:101C9A000E94F9160E9437170E9468170E947C1743
:101CAA000E9472170E947717E0913402F091350270
:101CBA000E943717E0913602F09137023DC00E9428
:101CCA009F17E335A0E0FA07C9F40E943B170E9468
:101CDA00C3160E9437170E942F170E944A170E94A4
:101CEA0040170E944517E0914902F0914A020E946A
:101CFA003717E0914B02F0914C021EC00E949F17C9
:101D0A00E534A0E0FA07D9F40E9486170E94D21699
:101D1A000E9437170E9481170E9495170E948B17FD
:101D2A000E949017E0915E02F0915F020E943717BD
:101D3A00E0916002F0916102FA93EA935DDCE0912E
:101D4A00E702EF5FE093E7020E94181924966CC33A
:101D5A000E941119EC81A885B985F0E00E949218B9
:101D6A00DF01E4E6F0E00E94A5188F0173D7AD8188
:101D7A00EA23AE2FED81EA1729F4E885F985E01BFD
:101D8A00F10B05C0F801A885B985EA0FFB1F9F0171
:101D9A0061D7AF81EA23AE2FEF81EA1729F4EE81EA
:101DAA00D9010E94BD1604C0EE81F0E0E20FF31FD4
:101DBA000E9418192A9608950E940F1931FE04C02C
:101DCA00A889B9899D92AC92AC85BD850E94CE182E
:101DDA00AE81BF81ED93FC93A889B9890D901C90BF
:101DEA000E942518D001AE1BBF0B8D01F801A2E19C
:101DFA00B0E00E94A018DF01EAE0F0E00E94B81803
:101E0A00AC85BD85ED93FC93AC85BD850D901C908A
:101E1A00AE81BF810E94CE18D001AE1BBF0BE2E09B
:101E2A00F0E00E94A018A885B985ED93FC930436CA
:101E3A00E0E01E0724F40230E0E01E070CF407C0BD
:101E4A00AA85BB85ED91FD913196FE93EE93E6E06E
:101E5A00FFEFE017F10724F40F3FEFEF1E070CF036
:101E6A0007C0AA85BB85ED91FD913197FE93EE934C
:101E7A000E942A18EC30AEEFFA0734F4AA85BB8523
:101E8A00ECE0FEEFED93FC930E942A18E53CA9E0F2
:101E9A00FA0734F0AA85BB85E4ECF9E0ED93FC93EC
:101EAA000E942A18DF01E5E0F0E00E94B8189F01BD
:101EBA00AE81BF810D901C90AC85BD850E94CE1865
:101ECA00E00DF11DE20FF31F0F01A885B9850E94ED
:101EDA00CE18E00DF11D8F010E942518E53FA1E003
:101EEA00FA0720F40130E0E01E0714F400E010E0E5
:101EFA00A8010E942518F29718F444E650E006C09B
:101F0A004F3FE1E05E0710F04EEF51E0FA010E9408
:101F1A00161962960895F299E5C0F79B05C0B7D6DF
:101F2A00A83AE2E0BE0708F019C0E5E1F2E0FA9348
:101F3A00EA93E7E1F2E0FA93EA93EBE1F2E0FA934B
:101F4A00EA93EDE1F2E0FA93EA93EFE1F2E0FA9331
:101F5A00EA93E1E2F2E00E942F1802C0E0E0F0E02A
:101F6A00E0931902F0931A0221FE0AC0E0912502B9
:101F7A00A2E8B0E066D7EA0FFB1F0E94D21802C09F
:101F8A00E0E0F0E0E0932302F0932402FED539F476
:101F9A0023FE05C081D6A83AE2E0BE0708F019C0C0
:101FAA00EAE2F2E0FA93EA93ECE2F2E0FA93EA93D5
:101FBA00E0E3F2E0FA93EA93E2E3F2E0FA93EA93D7
:101FCA00E4E3F2E0FA93EA93E6E3F2E00E942F18E0
:101FDA0002C0E0E0F0E0E0932E02F0932F0225FE2B
:101FEA000AC0E0913A02A2E8B0E02BD7EA0FFB1F41
:101FFA000E94D21802C0E0E0F0E0E0933802F093C9
:10200A003902F39B05C04DD6A83AE2E0BE0708F0B4
:10201A0019C0EFE3F2E0FA93EA93E1E4F2E0FA930B
:10202A00EA93E5E4F2E0FA93EA93E7E4F2E0FA935A
:10203A00EA93E9E4F2E0FA93EA93EBE4F2E00E942D
:10204A002F1802C0E0E0F0E0E0934302F09344026C
:10205A00F59B05C02BD6A83AE2E0BE0708F019C0E6
:10206A00E4E5F2E0FA93EA93E6E5F2E0FA93EA931A
:10207A00EAE5F2E0FA93EA93ECE5F2E0FA93EA93FE
:10208A00EEE5F2E0FA93EA93E0E6F2E00E942F1816
:10209A0002C0E0E0F0E0E0935802F093590227FE14
:1020AA0002C09ED509F018C0ADD6F0E0E0930E024A
:1020BA00F0930F02E0910E02F0910F02EE0FFF1F54
:1020CA00FE2FE0E0DF01E4E6F0E00E94A518E093CD
:1020DA001002F093110205C0E0E0E0931002E093D1
:1020EA00110234C0F39B05C050924302609244022D
:1020FA0006C0E0E0F0E0E0934302F0934402F59B6F
:10210A0005C0509258026092590206C0E0E0F0E021
:10211A00E0935802F0935902F79B05C050921902B6
:10212A0060921A0206C0E0E0F0E0E0931902F09330
:10213A001A0223FE05C050922E0260922F0206C098
:10214A00E0E0F0E0E0932E02F0932F020895AA93C4
:10215A00BA93EA93FA93EFB7EA93EBEFE6BDE0910D
:10216A001202E23011F00C946311A0911902B0919D
:10217A001A02129730F0A0911902B0911A026ED782
:10218A0008F001C02A9AE0911902F0911A026DD75B
:10219A0009F42A98A0912302B0912402129730F0F0
:1021AA00A0912302B091240259D708F001C05D9A88
:1021BA00E0912302F091240258D709F45D98A09186
:1021CA004302B0914402129730F0A0914302B091B9
:1021DA00440244D708F001C0299AE0914302F091E1
:1021EA00440243D709F42998A0915802B0915902A0
:1021FA00129730F0A0915802B09159022FD708F0E7
:10220A0001C05A9AE0915802F09159022ED709F466
:10221A005A98A0911002B0911102129758F0E091C9
:10222A00E802F091E902A0911002B0911102EA17B6
:10223A00FB0708F001C02B9AE0911002F0911102FD
:10224A0014D709F42B98A0912E02B0912F0212975D
:10225A0030F0A0912E02B0912F0200D708F001C0F1
:10226A002C9AE0912E02F0912F02FFD609F42C98B5
:10227A00A0913802B0913902129730F0A091380239
:10228A00B0913902EBD608F001C05E9AE0913802AB
:10229A00F0913902EAD609F45E98A8EEB2E041D587
:1022AA00EF3FA1E0FA0749F4E0E0E09312026894F4
:1022BA0040F8E093E802E093E9020FC0E03069F4E5
:1022CA00A091EA02AF5FA093EA02A63530F0E1E0FE
:1022DA00E0931202E0E0E093EA02E991EFBFF9919C
:1022EA00E991B991A99118959ED5E5EFE093B200CD
:1022FA0031FC03C00E94050802C00E949705ACEE9B
:10230A00B2E00FD5ED3BA2E0FA0738F0689435F851
:10231A00E0E0E093EC02E093ED02E0910002E1508C
:10232A00E0930002A0910002A13018F4ECE0E093DF
:10233A0000020E949103E0E0EA930E94D80130FE75
:10234A0002C0F49901C00AC0A0910002AA3020F08C
:10235A00A0910002AD3008F001C001C002C0E0E067
:10236A0043C030FE04C03CD411F4F69901C00AC03F
:10237A00A0910002A63020F0A0910002A93008F036
:10238A0001C001C002C0E0E02FC030FE02C020FC44
:10239A0001C00AC0A0910002A13020F0A091000261
:1023AA00A43008F001C001C002C0E0E01DC030FE48
:1023BA0005C024FC02C034FE01C001C00CC0E0D339
:1023CA0051F4A0910002A63020F0A0910002A93099
:1023DA0008F001C001C002C0E0E006C0E0910002BE
:1023EA00F0E0EF5FFD4FE081EA930E94D302A091F3
:1023FA00EB02AF5FA093EB02A536B0F0E0E0E0930A
:10240A00EB02A0E030FCA1E056D430F8E0E0E81599
:10241A0010F48A9409C0F498F698E89420F824F8FD
:10242A0022F826F834F832F8E991EFBFF991E991E8
:10243A00B991A9919991899179916991F990199094
:10244A0009901895269730E00E94E200289A0E9487
:10245A00FF01A0911202A13011F00C94AE1201E01A
:10246A000830D0F5E7E0EA930E94C900A091500233
:10247A00B0915102EA0FFB1FE0935002F093510210
:10248A00E1E0EA930E94C900A0916502B091660258
:10249A00EA0FFB1FE0936502F0936602E6E0EA9317
:1024AA000E94C900A0912602B0912702EA0FFB1FE1
:1024BA00E0932602F0932702E0E0EA930E94C90023
:1024CA00A0913B02B0913C02EA0FFB1FE0933B0252
:1024DA00F0933C020F5FC4CFE0915002F091510299
:1024EA000E948B18E0933D02F0933E02E091650250
:1024FA00F09166020E948B18E0935202F093530205
:10250A00E0912602F09127020E948B18E0931302B1
:10251A00F0931402E0913B02F0913C020E948B1866
:10252A00E0932802F0932902E0E0F0E0E093500201
:10253A00F0935102E0936502F0936602E09326025B
:10254A00F0932702E0933B02F0933C02E2E0E0932F
:10255A001202A0911202A03011F440FC01C05BC02B
:10256A00E89440F8E0913D02F0913E02FA93EA9332
:10257A00E0E8EA93A3E0B0E00E94E118EA93E0E41D
:10258A00EA93A2E0B0E078D5E0934102F0934202E8
:10259A00E0915202F0915302FA93EA93E2E0EA934D
:1025AA00ADE0B0E00E94E118EA93E1E0EA93ACE022
:1025BA00B0E062D5E0935602F0935702E09113021D
:1025CA00F0911402FA93EA93E0E2EA93A7E1B0E009
:1025DA000E94E118EA93E0E1EA93A6E1B0E04CD563
:1025EA00E0931702F0931802E0912802F091290271
:1025FA00FA93EA93E8E0EA93A1E2B0E00E94E118D4
:10260A00EA93E4E0EA93A0E2B0E036D5E0932C0244
:10261A00F0932D0280DC10E0F39B37C0F49903C0DD
:10262A00E4E0E71511F4AAD304C0E0914102F09165
:10263A004202EA83FB83A2D33397AA81BB81AE17F6
:10264A00BF0710F4106420C099D33396AA81BB81C6
:10265A00EA17FB07C0F4A0E030FCA1E0EA2FE295FC
:10266A00E07FEE0FEE0F1E2BAA81BB81A139E1E0BC
:10267A00BE0740F0A0E030FEA1E0EA2FE295E07F3D
:10268A00EE0F1E2B01C0106201C01060F59B26C020
:10269A00F69903C0E8E0E71511F47FD304C0E0918E
:1026AA005602F0915702EC83FD8377D33397AC81BE
:1026BA00BD81AE17BF0710F414600FC06ED33396F6
:1026CA00AC81BD81EA17FB0738F4DBD4A139E1E01C
:1026DA00BE0708F0E0D401C0126001C01060F79B89
:1026EA002EC020FC03C0E1E0E71529F44091150251
:1026FA005091160204C040911702509118025CD3FF
:10270A0033974E175F0710F4186018C055D33396E5
:10271A00E417F50790F4A0E030FCA1E0EA2FEE0FF1
:10272A00EE0FEE0F1E2B4D3BE2E05E0728F0A0E015
:10273A0030FEA1E0EA2F1E2B01C0116007C021FE66
:10274A0004C04091170250911802106023FE26C05F
:10275A0024FC03C0E2E0E71511F446D304C0E0917B
:10276A002C02F0912D02EC83FD833ED33397AC818A
:10277A00BD81AE17BF0710F414600FC035D333966E
:10278A00AC81BD81EA17FB0738F47BD4AD3BE2E0AC
:10279A00BE0708F080D401C012600CC024FE02C03B
:1027AA0025FC01C006C0E0912C02F0912D02EC83B9
:1027BA00FD83106010930602A0910002A43019F460
:1027CA003F5F353108F46CC130E031FECFC06AD4C6
:1027DA00E491F5D1E093020265D43196E491EFD108
:1027EA00E09303025FD43296E491E9D1E0930402C4
:1027FA0033FE48C0E1E0EE1519F0E2E0EE1561F4AF
:10280A0034FE03C09882A98206C0E0911302F091B7
:10281A001402E883F98335C0E3E0EE1519F0E4E029
:10282A00EE1561F434FE03C09882A98206C0E091D5
:10283A002802F0912902E883F98323C0E5E0EE1526
:10284A0019F0E6E0EE1561F434FE03C09882A9821D
:10285A0006C0E0913D02F0913E02E883F98311C07F
:10286A00E7E0EE1519F0E8E0EE1559F434FE03C07E
:10287A009882A98206C0E0915202F0915302E8833D
:10288A00F98305C045D20E94CE18E883F983EAE0AD
:10289A00EE1519F4E09168020AC0EBE0EE1511F4A6
:1028AA00ED2D05C0ECE0EE1529F4E0916702F0E0A9
:1028BA00E883F983E9E0EE15B1F4E0919202E0933E
:1028CA000702F0D0E13031F4E091A302E09308026C
:1028DA00E0E006C0E0919C02E0930802E0919C02CD
:1028EA00E093090213C0ECE0EE1569F4E091A60248
:1028FA00E0930702E0E0E0930802E09167025FD10B
:10290A00E093090203C0E881F981D3D333FC05C0FF
:10291A00A9E0B2E0EC91E062EC9333FE03C0B88226
:10292A00C98205C0EE2D1AD109D2E883F983E9E0FC
:10293A00EE1549F0EAE0EE1531F0EBE0EE1519F08C
:10294A00ECE0EE1541F4E0E0E0930B02E0930C02B8
:10295A00E0930D020AC0E881F981B1D333FC05C0C6
:10296A00ADE0B2E0EC91E062EC939AC090D1A93A62
:10297A00E2E0BE0768F0E0919D02E0930202E09176
:10298A009E02E0930302E0919E02E09304022CC0AF
:10299A0021FC02C0F79B10C0E091250296D3009259
:1029AA00050230FE04C0A0912502A13009F003C03F
:1029BA00E0E0E093050203C0E0E0E093050222FEB6
:1029CA000DC0E0919C02E0930202E0E4E09303026E
:1029DA00E0912502F4D0E093040206C05A934A9388
:1029EA00E1E0EA930E949D0257D1A93AE2E0BE07CC
:1029FA0010F023FC08C05AD1A93AE2E0BE0710F051
:102A0A00F59901C00DC0E0919D02E0930702E091A3
:102A1A009E02E0930802E0919E02E093090229C017
:102A2A0023FC02C025FE06C0E0913A024ED3009272
:102A3A000A0203C0E0E0E0930A0223FC02C024FE7B
:102A4A0010C026FE0DC0E0919C02E0930702E0E46C
:102A5A00E0930802E0913A02B2D0E093090201C081
:102A6A0039D3F59937D327FE04C0CCD1F0E0EC83F3
:102A7A00FD8327FC2FD315D1A93AE2E0BE0768F0FF
:102A8A00E0919D02E0930B02E0919E02E0930C021A
:102A9A00E0919E02E0930D0203C0EA81FB810FD30D
:102AAA00D6CCFFCFA8E1B0E00E94E1180895A8E1D2
:102ABA00B0E0E1E00E94F5180895A0E7B0E00E94B6
:102ACA00E118E09325020895A1E7B0E00E94E11819
:102ADA00E0933A020895E12FAAE6B2E0F0E0EE0FA1
:102AEA00FF1F0895EA0FFB1F0F01E12F0895ACE3C2
:102AFA00B0E0F0E0EE0FFF1F0895AE0FBF1F0E9477
:102B0A00DD18D001ED93FC930895E12FACE7B2E014
:102B1A00F0E0EE0FFF1F0895AAE5B0E0F0E0EE0F37
:102B2A00FF1F0895E0933F02F09340020895E09357
:102B3A005402F09355020895E0931502F093160299
:102B4A000895E0932A02F0932B020895AE0FBF1F57
:102B5A000E94CE18D0010E94ED180895ACE7B2E0A9
:102B6A00F0E0EE0FFF1F0895E0916802A6E3B0E0DF
:102B7A000E94F5180895A0E0F399A1E0A030089505
:102B8A00A0E0F599A1E0A0300895A0E027FCA1E01B
:102B9A00A0300895AA81BB81E4E6F0E00895E981B6
:102BAA00EF5FE983E150F0E0EF5FFD4F0895DF0149
:102BBA00E12FF0E0EE56FD4FE081EC930895F0E04E
:102BCA00EE56FD4FE0810895E0910002A8E6B0E0DC
:102BDA00F0E0EE0FFF1FEA0FFB1F0E94D2180895C4
:102BEA00A0E023FCA1E0A0300895A0E0F799A1E0BD
:102BFA00A0300895E0910002F0E0E256FF4F0895F8
:102C0A00A0E01D99A1E0E0E0F09BE1E0EA17089559
:102C1A00E091B002F091B1020895E6EEF0E0E0939F
:102C2A00AE02F093AF020895E091AB02EF5FE0933A
:102C3A00AB02A091AB02A5300895ED91FD913197B9
:102C4A00FE93EE930895AC85BD85EE85FF85EA1B5C
:102C5A00FB0B0895A2E3B0E00E94E1180895E09505
:102C6A00EA23A2E3B0E00E94F5180895EA2BA2E352
:102C7A00B0E00E94F518EFEFFFEF0895EE2DAAE6F7
:102C8A00B2E0F0E0EE0FFF1FEA0FFB1F0895A091DC
:102C9A001302B09114020895A0912802B09129025A
:102CAA000895A0913D02B0913E020895A09152026A
:102CBA00B09153020895E1E0EA270E940A190895A3
:102CCA00A6E1B0E0E0E00E94F518A7E1B0E00E94BA
:102CDA00F5180895A0E2B0E0E0E00E94F518A1E23C
:102CEA00B0E00E94F5180895A2E0B0E0E0E00E948A
:102CFA00F518A3E0B0E00E94F5180895ACE0B0E042
:102D0A00E0E00E94F518ADE0B0E00E94F5180895E1
:102D1A00EE2DAAE6B2E0F0E0EE0FFF1FAE0FBF1FE6
:102D2A000895ED91FD913196FE93EE930895E0E0BA
:102D3A00E093AA02E8ECEA930C94D801AE0FBF1F05
:102D4A000E94CE180895E0E0E093AA02EEE1EA9329
:102D5A000C94D801A0913F02B09140020895A4E0DA
:102D6A00B0E00E94E118F6CFF0E0EA0FFB1F0895E9
:102D7A00F0E00E94D618EA1BFB0B0895E0913F028F
:102D8A00F09140020895A0915402B091550208951D
:102D9A00AEE0B0E00E94E118F6CFE0915402F09163
:102DAA0055020895A0911502B09116020895A9E15D
:102DBA00B0E00E94E118F6CFE0911502F0911602F8
:102DCA000895E0932502E0912502A0E7B0E00E9471
:102DDA00F5180895A0912A02B0912B020895A2E253
:102DEA00B0E00E94E118F6CFE0912A02F0912B029E
:102DFA000895E0933A02E0913A02A1E7B0E00E9416
:102E0A00F5180895A8E2B0E00E94E1180895AE0FFF
:102E1A00BF1FE0E0F0E00895E02FA091B402EA0FAE
:102E2A00E093B40208950A921A92FA926A937A93F4
:102E3A008A939A93AA93BA93EA93FA93EFB7EA9387
:102E4A000895F0E0EE0FFF1F0895E091B702F091A8
:102E5A00B8020895E0914102F0914202FA93EA938E
:102E6A000C94010BFA93EA930C94010BE0913D0246
:102E7A00F0913E02F7CFE0914502F0914602F2CF7F
:102E8A00E0914702F0914802EDCFE0914302F091C0
:102E9A004402E8CFE0911702F0911802E3CFE091E3
:102EAA001302F0911402DECFE0911B02F0911C0292
:102EBA00D9CFE0911D02F0911E02D4CFE091190200
:102ECA00F0911A02CFCFE0912C02F0912D02CACFD5
:102EDA00E0912802F0912902C5CFE0913002F091E9
:102EEA003102C0CFE0913202F0913302BBCFE091C0
:102EFA002E02F0912F02B6CFE0915602F0915702BE
:102F0A00B1CFE0915202F0915302ACCFE0915A0254
:102F1A00F0915B02A7CFE0915C02F0915D02A2CF33
:102F2A00E0915802F09159029DCFE091B902F091D7
:102F3A00BA020895E091BB02F091BC0208950E9482
:102F4A00E118EA930C94E00AFA93EA930C94E90ADA
:102F5A00A091BF02B091C002E4E60E949A180895B7
:102F6A00E091C102F091C202EA0FFB1F0895A091FD
:102F7A00C302B091C402E4E60E949A180895E0914F
:102F8A00C502F091C602EA0FFB1F0895A091C7027D
:102F9A00B091C802E4E60E949A180895E091C90225
:102FAA00F091CA02EA0FFB1F0895A091CB02B091DB
:102FBA00CC02E4E60E949A180895E091CD02F091BD
:102FCA00CE02EA0FFB1F0895A091CF02B091D00262
:102FDA00E4E60E949A180895E091D102F091D20293
:102FEA00EA0FFB1F0895A091D302B091D402E4E640
:102FFA000E949A180895E091D502F091D602EA0F3C
:10300A00FB1F0895A091D702B091D802E4E60E946E
:10301A009A180895E091D902F091DA02EA0FFB1F9B
:10302A000895A091DB02B091DC02E4E60E949A18AE
:10303A000895E091DD02F091DE02EA0FFB1F089588
:10304A00AE85BF850E94CE180895AA85BB850E94C9
:10305A00CE180895FA93EA930C94E10EE091E802EF
:10306A00F091E902EA17FB070895A091E802B091EE
:10307A00E902EA17FB0708950E94E118EA930C9403
:10308A00AD0EA0E030FCA1E0EA2FEE0FEE0F1E2BF2
:10309A00AC81BD810895A0E030FEA1E0EA2FEE0FD9
:1030AA001E2B0895EE2DA3E0EA9FF001E055FF4F95
:1030BA000895FA93EA93E6E0EA930C949D02FA9350
:1030CA00EA93EAE0EA930C949D02F0E0EC56FF4F93
:1030DA0004900895EC81FD81ECCFE991F991309645
:1030EA0039F080ED97E00197F1F7A8953197C9F784
:1030FA000895F195E195F0400895EE230E2EFD0115
:10310A0021F0F695E7950A94E1F70895F695E79583
:10311A00F695E795F695E7950895FA9FF02DEB9FBA
:10312A00F00DEA9FE02DF10D08956E2F6A9FF001D0
:10313A006B9FF00D08951FD0F0DF0EF4DADF0895CB
:10314A000024112490E1AA0FBB1F001C111C0E1AA7
:10315A001F0A18F40E0E1F1E01C0A1609A9599F756
:10316A00FD01D001089507D0EBDF0EF4C2DF089508
:10317A00E7DFFD010895E894F7FF02C0BADF68941B
:10318A00B7FF06C0A095B095119600F8039400FA0F
:10319A000895ED91FC91119708950590F491E02D11
:1031AA0008951B2EBF2FF12D1A2EAE2FE12D089553
:1031BA00119602D0FE2F1197F999FECFFF93FFB710
:1031CA00F894A1BDB2BDF89AE0B5FFBFFF9108958A
:1031DA0007D01196EF93EF2F03D0EF91119708952F
:1031EA00F99B02C0A895FCCF9FB7F894A1BDB2BDC8
:1031FA00F89A80B5E81719F0E0BDFA9AF99A9FBFD4
:10320A00089500240A160B060895E894EE2309F09F
:10321A00689408955A934A933A932A931A930A936D
:10322A0008955D814C813B812A8119810881089525
:00000001FF
