:060000000C9491000C9429
:1000060000000C9400000C9400000C9400000C946A
:1000160000000C9400000C9400000C9400000C945A
:1000260076110C9400000C9400000C9400000C94C3
:1000360000000C9400000C9400000C94A9100C9481
:1000460000000C94210B0C9400000C9400000C94FE
:1000560000000C9400000C9400000C9400000C941A
:10006600000000000800100020000400800040008E
:1000760000040008004000800010002000029A00E2
:10008600CD000501370169019B01CD010002004049
:1000960040C0E0F0F8FAFE00FF121216FFFF060F4E
:1000A60000FF161212000A3264960000000A120EB1
:1000B6000A120D0F120E0F120D05120E05120D0B60
:1000C600120E0B120D100B0C050E0F0F130A05174F
:1000D6000E00000000000C009F815DD5C3D6DE85B2
:1000E600DFD74E5E48CB1A4F9EC840D85A581ED905
:1000F600E6000000000018010A00000C03000200E0
:10010600D80001000002DC0018008A02DE000100AF
:10011600A602F6000A000500F8000000F894EE2793
:10012600EFBBF1E0F5BFE5BFF8E1A895A4B7A77F5F
:10013600A4BFF0936000E09360008DE0A2E0BB27CF
:10014600ED938A95E9F780E094E0A0E0B1E0ED93C5
:100156000197E9F7E2E0F1E085919591009761F06A
:10016600A591B59105901590BF01F00105900D92EE
:100176000197E1F7FB01F0CFE0E0EEBBEFEFEDBF5B
:10018600E4E0EEBFC0E0D2E00C942412E881E093F4
:100196007C008BE18A95F1F7E0917A00E064E093C8
:1001A6007A00E0917A00E071E1F3E0917A00E06193
:1001B600E0937A00E0917800F09179001BC11A93E0
:1001C600E0E8E0936100E0E0E0936100E5B9EFED7F
:1001D600E4B9E4E4E8B9E8E3E7B9E0E0EBB9ECEF69
:1001E600EAB9E0E0E4BDE3E0E5BDE0E0E6BDE7BD99
:1001F600E8BDE0938000E0938100E0938500E09302
:100206008400E0938700E0938600E0938900E09302
:100216008800E0938B00E0938A00E093B600E093B9
:10022600B000E7E0E093B100E0E0E093B200E093D5
:10023600B300E093B400E0936900EDBBE09368007F
:10024600E1E0E0936E00E0E0E0936F00E1E0E09330
:100256007000E0E0E093C000E8E9E093C100E6E06A
:10026600E093C200E0E0E093C500E9E1E093C4005A
:10027600E0E8E0BFE0E0E0937B00E0937E00E093FF
:100286007C00E3E8E0937A000E94F014E23010F07C
:100296000E94F514A4E3B0E00E946F18DE2EA6E3D8
:1002A600B0E00E946F18E09360020E94FB140E9467
:1002B600021511E0193090F40E9409150E941015DC
:1002C6000E9415150E941B150E9423150E941015E9
:1002D6000E942A150E941B151F5FECCFA0E0B0E01C
:1002E6000E946B180E943015AAE0B0E00E946B18BD
:1002F6000E943515A4E1B0E00E946B180E943A15E1
:10030600AEE1B0E00E946B180E943F15A0E3B0E09A
:100316000E946F18E0935F02A0915F02A53038F04B
:10032600E0E0E0935F02A0E3B0E00E9483187894D7
:100336001D9B0FC0F09A3B98E1E0F0E0FA93EA9338
:100346000E940718339902C0F19801C0F19A3B9AAE
:1003560001C0F09828C01A93F89411E01930A8F457
:10036600E12F0E941515EA0FFB1F0F010E940915C8
:100376000E944415E12F0E942A150E9410150E9422
:100386004C150E9444151F5FE9CFED2DA4E3B0E0A4
:100396000E9483180E945215E0915F02A0E3B0E02C
:1003A6000E948318789419910895A881A13028F0A5
:1003B600A0E041FCA1E0A03009F005C0E881E0938F
:1003C6008602689441F8E881E030A1F441FE04C059
:1003D600A0918602A13008F406C05C9AE0918602DC
:1003E600E150E0938602E0918602E03019F45C98D1
:1003F600E89441F82196089535FE9BC0E89435F8B7
:10040600772059F0A0918902AF5FA0938902A330AB
:1004160020F0E0E0E09389027724A0918702AF5FA5
:10042600A0938702AD33C0F1E0E0E093870236FC8B
:1004360032C0E0916102EF5FE0936102E0916002F9
:10044600A0916102EA17F1F4E89437F8689436F857
:10045600F398F598F798F79902C02F9801C02F9A4C
:10046600E89423F823FC02C05B9801C05B9AE894E9
:1004760027F827FC02C02E9801C02E9AEEEFEA93C9
:1004860094DF09C0A0916102AF5FE0916002EA17B4
:1004960011F4689437F826C037FE24C0E09187022D
:1004A600E13011F0EA3009F402C0E43109F402C087
:1004B600EE3109F402C0E83209F402C0ED3211F45B
:1004C600E4E60EC0E23311F0E43309F402C0E63389
:1004D60009F402C0E83309F402C0EA3319F4E8EC7F
:1004E600EA9363DF0E945915A9F40E945E1591F400
:1004F6000E94631579F4A0E025FCA1E0A03051F438
:10050600A0E021FCA1E0A03029F4A0E031FCA1E0AC
:10051600A03009F00BC0E0918802EF5FE0938802FB
:10052600A0918802DA1608F4289803C0E0E0E09368
:10053600880208951A930E9468150E9433181E2F88
:100546000E9468150E944B18EA83FB83103029F03D
:100556000E946D150E94751504C00E946D15A0E0DD
:10056600A083AA81BB81EAE0F0E00E9433181E2F27
:10057600AA81BB81EAE0F0E00E944B18EA83FB8384
:100586000E946D150E9475151A81A981B0E0AF5FB2
:10059600BD4FE12F0E947D15EC9318812496089596
:1005A600FF9222971A9345980E948215E983FA834F
:1005B600F09B0AC0F19B06C00E948215E095F0955B
:1005C600E983FA83E89401C06894F0F810E01831E2
:1005D60098F4183030F4F0FC02C0439801C0439AF6
:1005E60005C0F0FE02C0439801C0439A459A000038
:1005F600459800001F5FEBCF449883E08A95F1F79A
:10060600449A31FC44C0A0910002AA3060F0A09147
:100616000002AD3040F4A0E0F499A1E0A03019F456
:100626000E94591509F002C0E0E4EB83A091000294
:10063600A630B8F0A0910002A93098F40E945E1589
:1006460081F40E94631569F40E948E1551F4A0E0AE
:1006560024FCA1E0A03029F4A0E025FCA1E0A03014
:1006660009F002C0E0E4EB83A0910002A13060F043
:10067600A0910002A43040F40E94931529F4A0E052
:1006860021FCA1E0A03009F002C0E0E4EB8332FED9
:100696000DC00E949815A491AF3F31F00E949815A5
:1006A600E4910E947D1501C0E0E0EB83F09903C060
:1006B600EB81E095EB8310E0183148F5183070F4C3
:1006C600EB81E078EE1FE0E0EE1FE03011F4439896
:1006D60001C0439AEB81EE0FEB8313C0E981FA81E7
:1006E600E070F078DF01EFE00E941718E03011F4B7
:1006F600439801C0439AE981FA81EE0FFF1FE9830F
:10070600FA83459A0000459800001F5FD5CF4498AC
:100716000000449A18812496FF900895E091A20261
:10072600E03011F00C940305E091A602F091A702C7
:10073600309711F00C94FE040E949E1529F4A0E057
:1007460043FCA1E0A03009F002C0689443F843FEE0
:1007560066C00E949E1511F00C940404E0910002FC
:10076600E13021F40E94A615319647C0E23021F40B
:100776000E94A615329641C0E33021F40E94A615C8
:1007860034963BC0E43021F40E94A615389635C055
:10079600E53021F40E94A61570962FC0E63021F4AC
:1007A6000E94A615B09629C0E73029F40E94A61526
:1007B600E05CFF4F22C0E83029F40E94A615E058FD
:1007C600FF4F1BC0E93029F40E94A615E050FF4FE9
:1007D60014C0EA3029F40E94A615E050FE4F0DC061
:1007E600EB3029F40E94A615E050FC4F06C0EC3011
:1007F60041F40E94A615E050F84FE093A802F0934A
:10080600A902A091AA02AF5FA093AA02AC3039F464
:10081600E0E0E093AA020E94AB15E89443F8A091A9
:10082600AA02A03039F4A091A802B091A9020E94B0
:10083600941808F0BDC00E94A615E830A0E0FA079B
:1008460021F4E4E0E093A20279C0E230A0E0FA07E6
:1008560021F4E2E0E093A20271C0E130A0E0FA07E1
:1008660021F4E3E0E093A20269C0E030A8E0FA07D1
:1008760021F4E1E0E093A20261C0E031A0E0FA07D2
:1008860021F4E5E0E093A20259C0E430A0E0FA07C3
:1008960021F4E6E0E093A20251C0E032A0E0FA07BC
:1008A60021F4E7E0E093A20249C0E034A0E0FA07B1
:1008B60021F4E8E0E093A20241C0E030A1E0FA07AB
:1008C60021F4ECE0E093A20239C0E030A4E0FA079C
:1008D60021F4EAE0E093A20231C0E030A2E0FA0798
:1008E60021F4EBE0E093A20229C0E038A0E0FA0789
:1008F60021F4E9E0E093A20221C0E330A6E0FA0782
:1009060051F40E94B21531F4EEE0E093A202E0E069
:10091600E093A30213C0E130A2E0FA0779F40E9443
:10092600B21529F4A0E031FCA1E0A03009F006C020
:10093600EDE0E093A202E0E0E093A30237FE06C0FA
:10094600EFE0E093A202EEEFEA932FDDA091A20280
:10095600A13028F0E0E0E0936102E89437F842FC29
:1009660010C0E091A402EF5FE093A4020E94AB15D1
:10097600A091A402A53029F4689442F8E0E0E0933F
:10098600A40242FE10C0E0915F02F0E0E455FF4F82
:10099600E491F0E0E093A602F093A702E091A602AC
:1009A600EB5FE093A502E0E0E093A802E093A902E2
:1009B600A0910002AC3059F4A091A402A13038F005
:1009C600A091AB02AF5FA093AB02AB3008F407C0B7
:1009D600E0E0E093AB02E093A402E093A30242FEC0
:1009E60009C0E091A502E150E093A502E03011F4C0
:1009F600E89442F805C0A6EAB2E00E94BB1531961B
:100A060008950E949D180E94C115AA85BB85AE1B3C
:100A1600BF0BE885F985AE1BBF0BE4E6F0E00E944C
:100A26002E180F01AC85BD85E885F985EA1BFB0B01
:100A3600D0010E9446188F01112342F00E94C8156A
:100A4600AE2FEE810E94CD15E02F08C00E94C8157A
:100A5600AE810E94D415E01BF10BF0E0EF5F5E2F34
:100A66000E94C115BF01F801AC85BD850E942E18F4
:100A7600DF01E4E6F0E00E944618DB01AE1BBF0B87
:100A86009D01332342F00E94C815AE2FEF810E94CC
:100A9600CD15422F08C00E94C815AF810E94D415FB
:100AA600E21BF30B4E2FE1E0EE1519F0E2E0EE1536
:100AB60049F4E42FA7E1B0E00E948318E52FA6E1F0
:100AC600B0E02CC0E3E0EE1519F0E4E0EE1549F4D1
:100AD600E42FA1E2B0E00E948318E52FA0E2B0E087
:100AE6001DC0E5E0EE1519F0E6E0EE1549F4E42F39
:100AF600A3E0B0E00E948318E52FA2E0B0E00EC0AC
:100B0600E7E0EE1519F0E8E0EE1551F4E42FADE05C
:100B1600B0E00E948318E52FACE0B0E00E94831895
:100B26000E94A41860960895A091A202A23041F4F2
:100B3600E394ECE0EE1510F4E1E0EE2EE89433F8E1
:100B4600A091A202A33041F4EA94E1E0EE1610F47B
:100B5600ECE0EE2EE89433F8A091A202AC3011F04E
:100B66000C94F40533FE3DC0E1E0EE1519F0E2E029
:100B7600EE1529F40E94DC150E94E51520C0E3E07D
:100B8600EE1519F0E4E0EE1529F40E94DC150E943A
:100B9600EA1515C0E5E0EE1519F0E6E0EE1529F4C4
:100BA6000E94DC150E94EF150AC0E7E0EE1519F069
:100BB600E8E0EE1531F40E94DC150E94F415A083DE
:100BC600B183E1E0EE1618F0E8E0EE1508F407C090
:100BD600EE2D0E944C15EA0FFB1FB082C182E894ED
:100BE60033F8A091A202A430C9F5A0E033FCA1E03D
:100BF6000E94F91533F8E1E0EE1519F0E2E0EE1582
:100C060031F40E94FE150E94C815EF7C23C0E3E074
:100C1600EE1519F0E4E0EE1531F40E9408160E9474
:100C2600C815E37F17C0E5E0EE1519F0E6E0EE150E
:100C360031F40E9412160E94C815EF730BC0E7E04C
:100C4600EE1519F0E8E0EE1549F40E941C160E9414
:100C5600C815EC7FA2E3B0E00E948318A091A2021F
:100C6600A530F1F5E2E0EE1589F4A0E0F799A1E0F0
:100C7600E1E0EA2711F4F79801C0F79A689421F8A1
:100C8600F79902C02F9801C02F9A2AC0E4E0EE150A
:100C960071F4A0E023FCA1E00E94F91523F8689402
:100CA60025F823FC02C05B9801C05B9A19C0E6E0F8
:100CB600EE1551F4A0E0F399A1E0E1E0EA2711F482
:100CC600F39801C0F39A0CC0E8E0EE1549F4A0E0F1
:100CD600F599A1E0E1E0EA2711F4F59801C0F59A4B
:100CE600A091A202A73011F00C94C50633FE39C0BC
:100CF60034FE32C0E1E0EE1618F0E8E0EE1508F436
:100D06000AC0E4EFF1E09E16AF0620F4EAE0F0E058
:100D16009E0EAF1E21C0EAE0EE1551F4A0916002CE
:100D2600A33628F4E0916002EF5FE093600214C0FE
:100D3600EBE0EE1529F4ECE3DE1608F4D3940CC0D0
:100D4600ECE0EE1549F4A0915F02A33028F4E0919F
:100D56005F02EF5FE0935F02689434F8EFE08E2E57
:100D66000CC00E9426160E945C18E032A3E0FA0727
:100D760020F40E9426160E942F16E9E0EE1511F4C3
:100D86000E94F514A091A202A63011F00C94190746
:100D960033FE3AC034FE33C0E1E0EE1618F0E8E068
:100DA600EE1508F40BC0E2E3F0E0E915FA0528F4C5
:100DB600E92DFA2D3A979E2EAF2E21C0EAE0EE15C8
:100DC60051F4A0916002AB3028F0E0916002E1504E
:100DD600E093600214C0EBE0EE1529F4E5E0ED15B2
:100DE60008F4DA940CC0ECE0EE1549F4A0915F0229
:100DF600A13028F0E0915F02E150E0935F02689431
:100E060034F8EFE08E2E0AC00E9426160E945C1867
:100E1600329720F00E9426160E94BB15E9E0EE15D7
:100E260029F4A8E1B0E0E0E00E948318A091A202B4
:100E3600A13029F4A0E033FCA1E0A03009F08FC076
:100E46000E94AE01E1E0EE1519F0E2E0EE15E1F4E4
:100E5600E0917602F0917702FA93EA93E0916402C8
:100E6600F0916502FA93EA93E0917802F0917902A3
:100E7600FA93EA93E0916602F0916702FA93EA9395
:100E8600E0E2EA93E0E165C0E3E0EE1519F0E4E0A4
:100E9600EE15E1F4E0917A02F0917B02FA93EA937F
:100EA600E0916802F0916902FA93EA93E0917C027C
:100EB600F0917D02FA93EA93E0916A02F0916B0257
:100EC600FA93EA93E8E0EA93E4E043C0E5E0EE153E
:100ED60019F0E6E0EE15E1F4E0917E02F0917F0272
:100EE600FA93EA93E0916C02F0916D02FA93EA9319
:100EF600E0918002F0918102FA93EA93E0916E020A
:100F0600F0916F02FA93EA93E0E8EA93E0E421C0F5
:100F1600E7E0EE1519F0E8E0EE15E9F4E09182025B
:100F2600F0918302FA93EA93E0917002F0917102D4
:100F3600FA93EA93E0918402F0918502FA93EA9398
:100F4600E0917202F0917302FA93EA93E1E0EA9378
:100F5600E2E0EA9356DDE89431F80E943516E1E0C6
:100F6600EE1618F0E8E0EE1508F43FC0A091A202D4
:100F7600AA30E1F433FE0AC0E4EFF1E0BE16CF0674
:100F860020F4E1E0F0E0BE0ECF1E10C0EE2D0E9470
:100F96004C150E943C16E032A3E0FA0738F4EE2D19
:100FA6000E944C15AE0FBF1F0E942F16A091A202E1
:100FB600AB30D9F433FE0BC0EAE0F0E0EB15FC05EC
:100FC60028F4EB2DFC2D3197BE2ECF2E0EC0EE2D24
:100FD6000E944C150E943C16329738F0EE2D0E9466
:100FE6004C15AE0FBF1F0E94BB15A091A202A130E7
:100FF60028F0A0E037FCA1E0A03009F002C00E9472
:10100600411608951A93A091A202A93069F4A0E0AE
:10101600F399A1E0E1E0EA2711F4F39801C0F39A0D
:10102600F39B02C0E4E07E2EA091A202AA3011F04A
:10103600AB3011F4F39901C02DC0F49B22C0A091EE
:10104600A202AA3031F40E944816A039E1E0BE0798
:1010560008F006C00E944D160E9452160E943015D6
:10106600A091A202AB3031F40E944816A536E0E00A
:10107600BE0708F406C00E944D160E9456160E942E
:101086003015F49AEFE08E2E0E945C16A0E0B0E0D8
:101096000E947B18A091A202AC3041F40E94631515
:1010A60029F4A0E024FCA1E0A03009F00DC0A0E0E6
:1010B600F599A1E0E1E0EA2711F4F59801C0F59A67
:1010C600F59B02C0E8E07E2EA091A202A73011F0A7
:1010D600A63011F4F59901C02DC0F69B22C0A0914F
:1010E600A202A73031F40E946116A039E1E0BE07E2
:1010F60008F006C00E9466160E9452160E94351518
:10110600A091A202A63031F40E946116A536E0E055
:10111600BE0708F406C00E9466160E9456160E9474
:101126003515F69AEFE08E2E0E946B16AAE0B0E017
:101136000E947B18A0E03299A1E0A03031F4F79B21
:1011460004C00E94F014E13009F003C0E1E0E0932E
:10115600A202A091A202A13029F5A0E0F799A1E090
:10116600E1E0EA2711F4F79801C0F79A689421F8AC
:101176000E94FB14A0E03299A1E0A03021F40E9465
:10118600F014E13009F001C0F798F79B0AC00E94FD
:10119600E515A83AE2E0BE0708F42F9AE1E07E2EB4
:1011A60001C02F98F79B61C0A091A202A23019F04E
:1011B600A33009F04DC022FC2DC020FE20C0A09116
:1011C600A202A23031F40E947016A23CE1E0BE07F2
:1011D60008F006C00E9475160E9452160E943A1523
:1011E600A091A202A33021F40E947016D39708F4AE
:1011F60006C00E9475160E9456160E943A156894FB
:1012060020F8EFE08E2E0E947A16A4E1B0E00E944C
:101216007B181EC0A091A202A23021F4A091250243
:10122600A83008F005C0E0912502EF5F0E947F1606
:10123600A091A202A33021F4A0912502A23008F4C5
:1012460005C0E0912502E1500E947F16EFE08E2E48
:10125600A091A202A43041F4A0E022FCA1E00E94E9
:10126600F91522F8EFE08E2E19C0F79917C0A09154
:101276001702B0911802999740F0A0911702B09109
:101286001802A935E2E0BE0710F0E89421F821FE25
:1012960005C0689420F8E7E0E0932502A091A20239
:1012A600A53031F40E94631519F40E945E1509F009
:1012B60017C0A0E023FCA1E00E94F91523F868946A
:1012C60025F823FE0AC00E94EA15A83AE2E0BE0706
:1012D60008F45B9AE2E07E2E01C05B980E9402153C
:1012E60023FC2DC0A091A202A83069F4A0E027FC3F
:1012F600A1E00E94F91527F827FC02C02E9801C02C
:101306002E9AE89424F8A0912A02B0912B0299977C
:1013160040F0A0912A02B0912B02A935E2E0BE0767
:1013260010F0E89425F825FE03C00E94631509F025
:1013360005C0689424F8E7E0E093380262C023FE13
:1013460060C0A091A202A73019F0A63009F04DC0E6
:1013560026FC2DC024FE20C0A091A202A73031F4A5
:101366000E948816AC32E1E0BE0708F006C00E9473
:101376008D160E9452160E943F15A091A202A63019
:1013860021F40E948816D39708F406C00E948D1691
:101396000E9456160E943F15689424F8EFE08E2EA0
:1013A6000E949216AEE1B0E00E947B181EC0A0918A
:1013B600A202A73021F4A0913802A83008F005C097
:1013C600E0913802EF5F0E949716A091A202A63024
:1013D60021F4A0913802A23008F405C0E091380249
:1013E600E1500E949716EFE08E2EA091A202A8303F
:1013F60041F4A0E026FCA1E00E94F91526F8EFE0F2
:101406008E2E27FE20C0A091A202A73021F40E94B2
:10141600A016E43608F007C00E94A016EB5FA8E20B
:10142600B0E00E948318A091A202A63021F40E9487
:10143600A016EB3008F407C00E94A016E550A8E2FB
:10144600B0E00E948318A091A202AE3031F40E944F
:10145600931519F40E94591509F090C0689432F852
:10146600E9E18E2EA0E0B0E0E6EEF0E00E947B1807
:101476000E9430150E941216A4E0B0E0E5E00E943A
:101486008318AAE0B0E0E1EEF0E00E947B180E942B
:1014960035150E941C16AEE0B0E0E5E00E94831808
:1014A600A4E1B0E0E8E1F1E00E947B180E943A1561
:1014B6000E94FE15A9E1B0E0EAE00E948318AEE1C1
:1014C600B0E0E8E7F0E00E947B180E943F150E941A
:1014D6000816A2E2B0E0EAE00E948318A8E2B0E0B3
:1014E600E2E30E948318A2E3B0E0E0E00E948318E2
:1014F600F8940E94F514EFE0DE2EA4E3B0E00E941B
:101506008318EEE1E0936002A6E3B0E00E94831840
:10151600E7E0E0932502A0E7B0E00E948318E0939D
:101526003802A1E7B0E00E94831810E01930E0F419
:101536000E9409150E94A516ED93FC93E12F0E94C7
:1015460015150E94A5160E947B180E9423150E945D
:10155600A516ED93FC93E12F0E942A150E94A5166D
:101566000E947B181F5FE2CFA0E3B0E0E0E00E949C
:101576008318E0935F0278940E943516A091A20228
:10158600AD3099F40E94591549F40E945E1531F464
:101596000E94931519F40E948E1509F006C06894EE
:1015A60031F8EBE0EE2E0E943516A091A202A13092
:1015B60010F00E94411619910895E091C000E07262
:1015C600E1F3E881E093C600219608951A930A9301
:1015D6000E9468150E9433188F010E94AA160A936A
:1015E600ECDFA4E6A09FF001A19FF00DAA81BB81CC
:1015F600AE1BBF0B8D010E94AA1610C01A930A9348
:10160600EA81FB81E0708F01012F112707FD1095FC
:101616000A93D3DFEA81FB81F0708F010A93CDDF55
:101626001981088124960895EFE4EA93C6DFEBE476
:10163600EA93C3DFEBEFEA93C0DF08950E94B11689
:101646000E949F183FB7F8941091C6003FBF1C3FF9
:1016560051F4E0E0E093DF02E093AD02E093AE02E6
:10166600E093AC0273C3E091DF02ADEAB2E00E9400
:10167600BF16AE0FBF1FE12FF0E0ED93FC93E09194
:10168600DF02A091AD02B091AE02F0E0EA17FB07CF
:1016960021F4A091DF02A13008F453C30E94C316BF
:1016A600E635A0E0FA0711F00C949A0BE6E5EA930A
:1016B60084DFE6E5EA9381DFE0E3EA937EDF0E94DA
:1016C600C8160E945C160E94D0160E94D4160E946C
:1016D600D9160E94DE160E94E3160E94E8160E94A2
:1016E6007A160E94D0160E94ED160E94F2160E94EB
:1016F600F7160E94FC160E9401170E9492160E947D
:10170600D0160E9406170E940B170E9410170E94FF
:1017160015170E941A170E946B160E94D0160E9477
:101726001F170E9424170E9429170E942E170E9435
:10173600C316E234A0E0FA0721F4E091B102E09387
:10174600A2020E94C316E035A0E0FA0731F40E9417
:101756003317E337A0E0FA0709F01FC00E943817D5
:10176600E133A0E0FA0789F4F29AA091B502B091AC
:10177600B602E4E60E9428185E2E6F2EE091B702AC
:10178600F091B8025E0E6F1E07C00E943817E03354
:10179600A0E0FA0709F4F29847DF0E94C316ED3479
:1017A600A0E0FA0709F440DF0E94C316EB34A0E07C
:1017B600FA0711F00C947C0C0E943317EF33A0E06B
:1017C600FA0711F00C94260CEBE6EA93F6DEE6E651
:1017D600EA93F3DEEEE0EA93F0DEA3E0B0E00E94E7
:1017E6003D17A2E0B0E00E943D17A7E1B0E00E94DD
:1017F6003D17A6E1B0E00E943D17A1E2B0E00E94CD
:101806003D17A0E2B0E00E943D17ADE0B0E00E94B7
:101816003D17ACE0B0E00E943D170E94C815F0E00D
:101826000E944217A4E0B0E00E943D17A9E1B0E093
:101836000E943D17A2E2B0E00E943D17AEE0B0E084
:101846000E943D1756C00E943317E132A0E0FA0706
:1018560011F00C947C0CE091B302A3E0B0E00E947E
:101866008318E091B502A2E0B0E00E948318E091EF
:10187600B702A7E1B0E00E948318E091B902A6E1A1
:10188600B0E00E948318E091BB02A1E2B0E00E94A2
:101896008318E091BD02A0E2B0E00E948318E091B7
:1018A600BF02ADE0B0E00E948318E091C102ACE057
:1018B600B0E00E948318E091C302A2E3B0E00E9468
:1018C6008318E091C502A4E0B0E00E948318E0917D
:1018D600C702A9E1B0E00E948318E091C902A2E222
:1018E600B0E00E948318E091CB02AEE0B0E00E9427
:1018F60083180E94C316EA35A0E0FA0731F40E9465
:101906003317E435A0E0FA0709F046C10E943817FC
:10191600EF33A0E0FA0709F5EAE7EA934EDEE4E7DB
:10192600EA934BDE01E0093058F4E02FA2E6B2E07C
:101936000E94BF160E943C160E9442170F5FF3CF0B
:1019460001E0093048F4E02F0E944C150E943C1635
:101956000E9442170F5FF5CF1CC10E943817E13273
:10196600A0E0FA0711F00C94CF0DE091B502F091CA
:10197600B602E335A0E0FA0711F00C94420D0E947E
:101986004617E0936402F0936502A0916402B09159
:1019960065020E944E17E0936402F09365020E946E
:1019A6005517E0936602F0936702A0916602B09124
:1019B60067020E945D17E0936602F09367020E9439
:1019C6006417E0936802F0936902A0916802B091EF
:1019D60069020E946C17E0936802F09369020E9404
:1019E6007317E0936A02F0936B02A0916A02B091BA
:1019F6006B020E947B17E0936A02F0936B020E94CF
:101A06008217E0936C02F0936D02A0916C02B09184
:101A16006D020E948A17E0936C02F0936D020E9499
:101A26009117E0936E02F0936F02A0916E02B0914F
:101A36006F020E949917E0936E02F0936F020E9464
:101A4600A017E0937002F0937102A0917002B0911A
:101A560071020E94A817E0937002F09371020E942F
:101A6600AF17E0937202F0937302A0917202B091E5
:101A760073020E94B717E0937202F0937302E0912B
:101A8600B502F091B602E235A0E0FA0711F00C9427
:101A9600CC0D0E944617E0937602F0937702A09150
:101AA6007602B09177020E944E17E0937602F09389
:101AB60077020E945517E0937802F0937902A0917D
:101AC6007802B09179020E945D17E0937802F09354
:101AD60079020E946417E0937A02F0937B02A09148
:101AE6007A02B0917B020E946C17E0937A02F0931F
:101AF6007B020E947317E0937C02F0937D02A09113
:101B06007C02B0917D020E947B17E0937C02F093E9
:101B16007D020E948217E0937E02F0937F02A091DD
:101B26007E02B0917F020E948A17E0937E02F093B4
:101B36007F020E949117E0938002F0938102A091A8
:101B46008002B09181020E949917E0938002F0937F
:101B560081020E94A017E0938202F0938302A09173
:101B66008202B09183020E94A817E0938202F0934A
:101B760083020E94AF17E0938402F0938502A0913E
:101B86008402B09185020E94B717E0938402F09315
:101B96008502EBEFEA9311DD0E94C316E035A0E063
:101BA600FA0731F40E943317EF34A0E0FA0709F080
:101BB60031C00E943817EF33A0E0FA0799F4E0E746
:101BC600EA93FBDCEFE6EA93F8DCE3E0EA93F5DC84
:101BD600DA92F3DCE0916002EA93EFDCFED6EA9358
:101BE600ECDC18C00E943817E132A0E0FA0791F445
:101BF600D090B502ED2DA4E3B0E00E948318E091E9
:101C0600B702E09360024BD7E091B902A8E1B0E0D9
:101C16000E9483180E94C316E035A0E0FA0731F44B
:101C26000E943317E434A0E0FA0709F08AC0E0E71F
:101C3600EA93C3DCE4E6EA93C0DCE4E6EA93BDDCBF
:101C4600E0E1EA93BADC0E943817E634A0E0FA072E
:101C5600C9F40E94ED160E947A160E94D0160E94C0
:101C6600E8160E94FC160E94F2160E94F716E091F2
:101C76001F02F09120020E94D016E0912102F091FD
:101C860022025CC00E943817E035A0E0FA07C9F4CA
:101C96000E9406170E9492160E94D0160E940117F3
:101CA6000E9415170E940B170E941017E09132022E
:101CB600F09133020E94D016E0913402F091350281
:101CC6003DC00E943817E335A0E0FA07C9F40E9428
:101CD600D4160E945C160E94D0160E94C8160E9456
:101CE600E3160E94D9160E94DE16E0914502F09195
:101CF60046020E94D016E0914702F09148021EC0AB
:101D06000E943817E534A0E0FA07D9F40E941F179D
:101D16000E946B160E94D0160E941A170E942E1758
:101D26000E9424170E942917E0915802F091590247
:101D36000E94D016E0915A02F0915B02FA93EA9360
:101D46005DDCE091DF02EF5FE093DF020E94A61800
:101D5600249669C30E949F18EC81A885B985F0E096
:101D66000E942018DF01E4E6F0E00E9433188F019C
:101D76000CD7AD81EA23AE2FED81EA1729F4E88569
:101D8600F985E01BF10B05C0F801A885B985EA0FB6
:101D9600FB1F9F01FAD6AF81EA23AE2FEF81EA1728
:101DA60021F4EE81D9017FD704C0EE81F0E0E20F85
:101DB600F31F0E94A6182A9608950E949D1831FEC8
:101DC60004C0A889B9899D92AC92AC85BD850E9454
:101DD6005C18AE81BF81ED93FC93A889B9890D90FB
:101DE6001C900E94BE17D001AE1BBF0B8D01F801DF
:101DF600A2E1B0E00E942E18DF01EAE0F0E00E94C6
:101E06004618AC85BD85ED93FC93AC85BD850D90DC
:101E16001C90AE81BF810E945C18D001AE1BBF0B27
:101E2600E2E0F0E00E942E18A885B985ED93FC93B8
:101E36000436E0E01E0724F40230E0E01E070CF44E
:101E460007C0AA85BB85ED91FD913196FE93EE9371
:101E5600E6E0FFEFE017F10724F40F3FEFEF1E0770
:101E66000CF007C0AA85BB85ED91FD913197FE93D5
:101E7600EE930E94C317EC30AEEFFA0734F4AA854E
:101E8600BB85ECE0FEEFED93FC930E94C317E53CA7
:101E9600A9E0FA0734F0AA85BB85E4ECF9E0ED93F6
:101EA600FC930E94C317DF01E5E0F0E00E944618AC
:101EB6009F01AE81BF810D901C90AC85BD850E94AF
:101EC6005C18E00DF11DE20FF31F0F01A885B9851F
:101ED6000E945C18E00DF11D8F010E94BE17E53FC0
:101EE600A1E0FA0720F40130E0E01E0714F400E058
:101EF60010E0A8010E94BE17F29718F444E650E0DD
:101F060006C04F3FE1E05E0710F04EEF51E0FA01E8
:101F16000E94A41862960895F299E3C0F79B05C043
:101F260051D6A83AE2E0BE0708F019C0E5E1F2E0B2
:101F3600FA93EA93E7E1F2E0FA93EA93EBE1F2E04F
:101F4600FA93EA93EDE1F2E0FA93EA93EFE1F2E035
:101F5600FA93EA93E1E2F2E00E94C81702C0E0E0D9
:101F6600F0E0E0931902F0931A0221FE0AC0E09114
:101F76002502A2E8B0E000D7EA0FFB1F0E94601816
:101F860002C0E0E0F0E0E0932302F093240298D54B
:101F960039F423FE05C01BD6A83AE2E0BE0708F0D6
:101FA60019C0E8E2F2E0FA93EA93EAE2F2E0FA9381
:101FB600EA93EEE2F2E0FA93EA93E0E3F2E0FA93D0
:101FC600EA93E2E3F2E0FA93EA93E4E3F2E00E94B2
:101FD600C81702C0E0E0F0E0E0932C02F0932D0277
:101FE60025FE0AC0E0913802A2E8B0E0C5D6EA0FA5
:101FF600FB1F0E94601802C0E0E0F0E0E0933602AA
:10200600F0933702F39B05C0E7D5A83AE2E0BE0796
:1020160008F018C0EBE3F2E0FA93EA93EDE3F2E09E
:10202600FA93EA93E1E4F2E0FA93EA93E3E4F2E066
:10203600FA93EA93E5E4F2E0FA93EA93E7E4F2E04E
:10204600A4D702C0E0E0F0E0E0933F02F093400244
:10205600F59B05C0C6D5A83AE2E0BE0708F018C051
:10206600EEE4F2E0FA93EA93E0E5F2E0FA93EA931B
:10207600E4E5F2E0FA93EA93E6E5F2E0FA93EA930E
:10208600E8E5F2E0FA93EA93EAE5F2E07ED702C0E9
:10209600E0E0F0E0E0935202F093530227FE02C024
:1020A6003AD509F018C049D6F0E0E0930E02F09355
:1020B6000F02E0910E02F0910F02EE0FFF1FFE2FAE
:1020C600E0E0DF01E4E6F0E00E943318E09310025E
:1020D600F093110205C0E0E0E0931002E0931102D4
:1020E60034C0F39B05C050923F026092400206C086
:1020F600E0E0F0E0E0933F02F0934002F59B05C07C
:10210600509252026092530206C0E0E0F0E0E09383
:102116005202F0935302F79B05C050921902609247
:102126001A0206C0E0E0F0E0E0931902F0931A020A
:1021360023FE05C050922C0260922D0206C0E0E0FC
:10214600F0E0E0932C02F0932D020895AA93BA933F
:10215600EA93FA93EFB7EA93EBEFE6BDE09112024A
:10216600E23011F00C946011A0911902B0911A029C
:10217600129730F0A0911902B0911A020AD708F00E
:1021860001C02A9AE0911902F0911A0209D709F4BE
:102196002A98A0912302B0912402129730F0A091C0
:1021A6002302B0912402F5D608F001C05D9AE091B1
:1021B6002302F0912402F4D609F45D98A0913F021F
:1021C600B0914002129730F0A0913F02B0914002C8
:1021D600E0D608F001C0299AE0913F02F091400252
:1021E600DFD609F42998A0915202B09153021297B2
:1021F60030F0A0915202B0915302CBD608F001C044
:102206005A9AE0915202F0915302CAD609F45A98AA
:10221600A0911002B0911102129758F0E091E002DD
:10222600F091E102A0911002B0911102EA17FB07AA
:1022360008F001C02B9AE0911002F0911102B0D67D
:1022460009F42B98A0912C02B0912D02129730F030
:10225600A0912C02B0912D029CD608F001C02C9AB8
:10226600E0912C02F0912D029BD609F42C98A091B6
:102276003602B0913702129730F0A0913602B09133
:10228600370287D608F001C05E9AE0913602F091D7
:10229600370286D609F45E98A0EEB2E0DDD4EF3FB1
:1022A600A1E0FA0749F4E0E0E0931202689440F8EE
:1022B600E093E002E093E1020FC0E03069F4A09100
:1022C600E202AF5FA093E202A63530F0E1E0E093D0
:1022D6001202E0E0E093E202E991EFBFF991E991A1
:1022E600B991A99118953AD5E5EFE093B20031FC82
:1022F60003C00E94050802C00E949705A4EEB2E042
:10230600ABD4ED3BA2E0FA0738F0689435F8E0E08C
:10231600E093E402E093E502E0910002E150E093ED
:102326000002A0910002A13018F4ECE0E093000254
:102336000E949103E0E0EA930E94D80130FE02C0B9
:10234600F49901C00AC0A0910002AA3020F0A09121
:102356000002AD3008F001C001C002C0E0E043C099
:1023660030FE04C0D8D311F4F69901C00AC0A0917A
:102376000002A63020F0A0910002A93008F001C0AA
:1023860001C002C0E0E02FC030FE02C020FC01C048
:102396000AC0A0910002A13020F0A0910002A43052
:1023A60008F001C001C002C0E0E01DC030FE05C05B
:1023B60024FC02C034FE01C001C00CC07CD351F421
:1023C600A0910002A63020F0A0910002A93008F0EA
:1023D60001C001C002C0E0E006C0E0910002F0E0EA
:1023E600EF5FFD4FE081EA930E94D302A091E302E2
:1023F600AF5FA093E302A536B0F0E0E0E093E3021E
:10240600A0E030FCA1E0F2D330F8E0E0E81510F4EB
:102416008A9409C0F498F698E89420F824F822F8EB
:1024260026F834F832F8E991EFBFF991E991B991BC
:10243600A9919991899179916991F9901990099049
:10244600189524970E94E200289A0E94FF01A09105
:102456001202A13019F5E7E0EA930E94C900E09361
:102466003902F0933A02E1E0EA930E94C900E09350
:102476004C02F0934D02E6E0EA930E94C900E09315
:102486001302F0931402E0E0EA930E94C900E0937D
:102496002602F0932702E2E0E0931202A0911202D4
:1024A600A03011F440FC01C05BC0E89440F8E09114
:1024B6003902F0913A02FA93EA93E0E8EA93A3E04C
:1024C600B0E00E946F18EA93E0E4EA93A2E0B0E07D
:1024D6006ED5E0933D02F0933E02E0914C02F091FE
:1024E6004D02FA93EA93E2E0EA93ADE0B0E00E948F
:1024F6006F18EA93E1E0EA93ACE0B0E058D5E093D8
:102506005002F0935102E0911302F0911402FA93F3
:10251600EA93E0E2EA93A7E1B0E00E946F18EA933B
:10252600E0E1EA93A6E1B0E042D5E0931702F0932A
:102536001802E0912602F0912702FA93EA93E8E066
:10254600EA93A1E2B0E00E946F18EA93E4E0EA930E
:10255600A0E2B0E02CD5E0932A02F0932B02DCDC5B
:1025660010E0F39B37C0F49903C0E4E0E71511F4DB
:10257600A0D304C0E0913D02F0913E02EA83FB83C2
:1025860098D33397AA81BB81AE17BF0710F41064A6
:1025960020C08FD33396AA81BB81EA17FB07C0F40C
:1025A600A0E030FCA1E0EA2FE295E07FEE0FEE0F0F
:1025B6001E2BAA81BB81A139E1E0BE0740F0A0E055
:1025C60030FEA1E0EA2FE295E07FEE0F1E2B01C060
:1025D600106201C01060F59B23C0F69903C0E8E0C5
:1025E600E71529F440914E0250914F0204C04091E4
:1025F6005002509151026CD333974E175F0710F477
:1026060014600DC065D33396E417F50738F4D4D4B7
:102616004139E1E05E0708F0D7D401C0126001C07D
:102626001060F79B2EC020FC03C0E1E0E71529F4FB
:10263600209115023091160204C0209117023091A4
:10264600180255D333972E173F0710F4186018C099
:102656004ED33396E217F30790F4A0E030FCA1E0E6
:10266600EA2FEE0FEE0FEE0F1E2B2D3BE2E03E079C
:1026760028F0A0E030FEA1E0EA2F1E2B01C0116079
:1026860007C021FE04C02091170230911802106085
:1026960023FE23C024FC03C0E2E0E71529F44091A1
:1026A60028025091290204C040912A0250912B021F
:1026B60036D333974E175F0710F414600DC02FD32F
:1026C6003396E417F50738F477D44D3BE2E05E071E
:1026D60008F07AD401C012600AC024FE02C025FCAC
:1026E60001C004C040912A0250912B021060A091B3
:1026F6000002A43011F00C94EE141093060231FE81
:10270600D1C069D4E491F6D1E093020264D4319643
:10271600E491F0D1E09303025ED43296E491EAD1DB
:10272600E093040233FE48C0E1E0EE1519F0E2E062
:10273600EE1561F434FE03C09882A98206C0E091CA
:102746001302F0911402E883F98335C0E3E0EE1535
:1027560019F0E4E0EE1561F434FE03C09882A98214
:1027660006C0E0912602F0912702E883F98323C090
:10277600E5E0EE1519F0E6E0EE1561F434FE03C06F
:102786009882A98206C0E0913902F0913A02E88364
:10279600F98311C0E7E0EE1519F0E8E0EE1559F4FB
:1027A60034FE03C09882A98206C0E0914C02F091E3
:1027B6004D02E883F98305C046D20E945C18E8837F
:1027C600F983EAE0EE1519F4E09160020AC0EBE045
:1027D600EE1511F4ED2D05C0ECE0EE1529F4E091AF
:1027E6005F02F0E0E883F983E9E0EE15B1F4E091E9
:1027F6008A02E0930702F1D0E13031F4E0919B02C6
:10280600E0930802E0E006C0E0919402E09308023B
:10281600E0919402E093090215C0ECE0EE1569F42C
:10282600E0919E02E0930702E0E0E0930802E09167
:102836005F0260D1E093090205C0E881F981FA934D
:10284600EA93D0D333FC05C0A9E0B2E0EC91E06294
:10285600EC9333FE03C0B882C98205C0EE2D19D1B0
:1028660008D2E883F983E9E0EE1549F0EAE0EE15CF
:1028760031F0EBE0EE1519F0ECE0EE1541F4E0E096
:10288600E0930B02E0930C02E0930D020AC0E8818C
:10289600F981ACD333FC05C0ADE0B2E0EC91E06267
:1028A600EC9399C08FD1A93AE2E0BE0768F0E091B7
:1028B6009502E0930202E0919602E0930302E09112
:1028C6009602E09304022CC021FC02C0F79B10C0C4
:1028D600E091250291D30092050230FE04C0A0913A
:1028E6002502A13009F003C0E0E0E093050203C031
:1028F600E0E0E093050222FE0DC0E0919402E09331
:102906000202E0E4E0930302E0912502F3D0E093B3
:10291600040206C03A932A93E1E0EA930E949D02DC
:1029260056D1A93AE2E0BE0710F023FC08C059D1FF
:10293600A93AE2E0BE0710F0F59901C00DC0E0919A
:102946009502E0930702E0919602E0930802E09177
:102956009602E093090228C023FC02C025FE06C0A9
:10296600E091380249D300920A0203C0E0E0E09306
:102976000A0223FC02C024FE10C026FE0DC0E09110
:102986009402E0930702E0E4E0930802E091380243
:10299600B1D0E093090201C034D3F59932D327FEB2
:1029A60003C0CBD14E2F552727FC2BD315D1A93ADF
:1029B600E2E0BE0768F0E0919502E0930B02E09139
:1029C6009602E0930C02E0919602E0930D0203C09A
:1029D600EA81FB810BD339CDFFCFA8E1B0E00E949D
:1029E6006F180895A8E1B0E0E1E00E948318089509
:1029F600A0E7B0E00E946F18E09325020895A1E7D2
:102A0600B0E00E946F18E09338020895E12FA2E625
:102A1600B2E0F0E0EE0FFF1F0895EA0FFB1F0F0173
:102A2600E12F0895ACE3B0E0F0E0EE0FFF1F08954C
:102A3600AE0FBF1F0E946B18D001ED93FC93089553
:102A4600E12FA4E7B2E0F0E0EE0FFF1F0895AAE53C
:102A5600B0E0F0E0EE0FFF1F0895E0933B02F09325
:102A66003C020895E0934E02F0934F020895E093DE
:102A76001502F09316020895E0932802F0932902B6
:102A86000895AE0FBF1F0E945C18D0010E947B18EC
:102A96000895A4E7B2E0F0E0EE0FFF1F0895E0917D
:102AA6006002A6E3B0E00E9483180895A0E0F399BF
:102AB600A1E0A0300895A0E0F599A1E0A030089526
:102AC600A0E027FCA1E0A0300895AA81BB81E4E63E
:102AD600F0E00895E981EF5FE983E150F0E0EF5F10
:102AE600FD4F0895DF01E12FF0E0E657FD4FE0814D
:102AF600EC930895F0E0E657FD4FE0810895E091EC
:102B06000002A8E6B0E0F0E0EE0FFF1FEA0FFB1FA1
:102B16000E9460180895A0E023FCA1E0A03008956B
:102B2600A0E0F799A1E0A0300895E0910002F0E05E
:102B3600E256FF4F0895A0E01D99A1E0E0E0F09B6A
:102B4600E1E0EA170895E091A802F091A90208953C
:102B5600E6EEF0E0E093A602F093A7020895E09176
:102B6600A302EF5FE093A302A091A302A53008950C
:102B7600ED91FD913197FE93EE930895AC85BD8559
:102B8600EE85FF85EA1BFB0B0895A2E3B0E00E94E9
:102B96006F180895E095EA23A2E3B0E00E94831837
:102BA6000895EA2BA2E3B0E00E948318EFEFFFEF4F
:102BB6000895EE2DA2E6B2E0F0E0EE0FFF1FEA0F59
:102BC600FB1F0895A0911302B09114020895A091DD
:102BD6002602B09127020895A0913902B0913A02D7
:102BE6000895A0914C02B0914D020895E1E0EA27C4
:102BF6000E9498180895A6E1B0E0E0E00E948318CC
:102C0600A7E1B0E00E9483180895A0E2B0E0E0E0FA
:102C16000E948318A1E2B0E00E9483180895A2E002
:102C2600B0E0E0E00E948318A3E0B0E00E948318C1
:102C36000895ACE0B0E0E0E00E948318ADE0B0E0BB
:102C46000E9483180895EE2DA2E6B2E0F0E0EE0FA2
:102C5600FF1FAE0FBF1F0895ED91FD913196FE93B4
:102C6600EE930895E0E0E093A202E8ECEA930C9478
:102C7600D801AE0FBF1F0E945C180895E0E0E093F4
:102C8600A202EEE1EA930C94D801A0913B02B09126
:102C96003C020895A4E0B0E00E946F18F6CFF0E081
:102CA600EA0FFB1F0895F0E00E946418EA1BFB0B75
:102CB6000895E0913B02F0913C020895A0914E02E6
:102CC600B0914F020895AEE0B0E00E946F18F6CFC3
:102CD600E0914E02F0914F020895A0911502B09135
:102CE60016020895A9E1B0E00E946F18F6CFE091B0
:102CF6001502F09116020895E0932502E09125024F
:102D0600A0E7B0E00E9483180895A0912802B09130
:102D160029020895A2E2B0E00E946F18F6CFE09172
:102D26002802F09129020895E0933802E0913802D2
:102D3600A1E7B0E00E9483180895A8E2B0E00E94DF
:102D46006F180895AE0FBF1FE0E0F0E00895E02F82
:102D5600A091AC02EA0FE093AC0208950A921A928F
:102D6600FA926A937A938A939A93AA93BA93EA9376
:102D7600FA93EFB7EA930895F0E0EE0FFF1F089578
:102D8600E091AF02F091B0020895E0913D02F0911A
:102D96003E02FA93EA930C94010BFA93EA930C948D
:102DA600010BE0913902F0913A02F7CFE09141022E
:102DB600F0914202F2CFE0914302F0914402EDCF4E
:102DC600E0913F02F0914002E8CFE0911702F091C6
:102DD6001802E3CFE0911302F0911402DECFE091E6
:102DE6001B02F0911C02D9CFE0911D02F0911E0248
:102DF600D4CFE0911902F0911A02CFCFE0912A02C6
:102E0600F0912B02CACFE0912602F0912702C5CF9E
:102E1600E0912E02F0912F02C0CFE0913002F091A6
:102E26003102BBCFE0912C02F0912D02B6CFE0919A
:102E36005002F0915102B1CFE0914C02F0914D0257
:102E4600ACCFE0915402F0915502A7CFE091560223
:102E5600F0915702A2CFE0915202F09153029DCF1A
:102E6600E091B102F091B2020895E091B302F091BF
:102E7600B40208950E946F18EA930C94E00AFA933C
:102E8600EA930C94E90AA091B702B091B802E4E67D
:102E96000E9428180895E091B902F091BA02EA0F4B
:102EA600FB1F0895A091BB02B091BC02E4E60E940C
:102EB60028180895E091BD02F091BE02EA0FFB1FAB
:102EC6000895A091BF02B091C002E4E60E942818BE
:102ED6000895E091C102F091C202EA0FFB1F089526
:102EE600A091C302B091C402E4E60E942818089596
:102EF600E091C502F091C602EA0FFB1F0895A0916A
:102F0600C702B091C802E4E60E9428180895E0912D
:102F1600C902F091CA02EA0FFB1F0895A091CB02E5
:102F2600B091CC02E4E60E9428180895E091CD0203
:102F3600F091CE02EA0FFB1F0895A091CF02B09147
:102F4600D002E4E60E9428180895E091D102F0919B
:102F5600D202EA0FFB1F0895A091D302B091D402CA
:102F6600E4E60E9428180895E091D502F091D60271
:102F7600EA0FFB1F0895AE85BF850E945C18089571
:102F8600AA85BB850E945C180895FA93EA930C946F
:102F9600E00EE091E002F091E102EA17FB070895E6
:102FA600A091E002B091E102EA17FB0708950E94A2
:102FB6006F18EA930C94AD0EA0E030FCA1E0EA2F66
:102FC600EE0FEE0F1E2B0895A0E030FEA1E0EA2FD3
:102FD600EE0F1E2B0895EE2DA3E0EA9FF001E055BB
:102FE600FF4F0895E6E0EA930C949D02FA93EA9364
:102FF600EAE0EA930C949D02F0E0EC56FF4F049051
:1030060008955A934A93EECFE991F991309639F0A3
:1030160080ED97E00197F1F7A8953197C9F70895E4
:10302600F195E195F0400895EE230E2EFD0121F075
:10303600F695E7950A94E1F70895FA9FF02DEB9F30
:10304600F00DEA9FE02DF10D08956E2F6A9FF001B5
:103056006B9FF00D08951FD0F0DF0EF4E1DF0895A9
:103066000024112490E1AA0FBB1F001C111C0E1A8C
:103076001F0A18F40E0E1F1E01C0A1609A9599F73B
:10308600FD01D001089507D0EBDF0EF4C9DF0895E6
:10309600E7DFFD010895E894F7FF02C0C1DF6894F9
:1030A600B7FF06C0A095B095119600F8039400FAF4
:1030B6000895ED91FC91119708950590F491E02DF6
:1030C60008951B2EBF2FF12D1A2EAE2FE12D089538
:1030D600119602D0FE2F1197F999FECFFF93FFB7F5
:1030E600F894A1BDB2BDF89AE0B5FFBFFF9108956F
:1030F60007D01196EF93EF2F03D0EF911197089514
:10310600F99B02C0A895FCCF9FB7F894A1BDB2BDAC
:10311600F89A80B5E81719F0E0BDFA9AF99A9FBFB8
:10312600089500240A160B060895E894EE2309F084
:10313600689408955A934A933A932A931A930A9352
:1031460008955D814C813B812A811981088108950A
:00000001FF
